:020000040800F2
:10000000B80B002099010008FB210008DD1A000848
:10001000F921000859060008692A000800000000BC
:100020000000000000000000000000001D28000883
:100030007907000800000000D12600081F280008EA
:10004000B3010008B3010008B3010008B3010008C0
:10005000B3010008B3010008B3010008B3010008B0
:10006000B3010008B3010008B3010008B3010008A0
:10007000B3010008B3010008B3010008B301000890
:10008000B3010008B3010008B3010008B301000880
:10009000B3010008B3010008B3010008B301000870
:1000A000B3010008B3010008B3010008B301000860
:1000B000B3010008B3010008B3010008B301000850
:1000C000B3010008B3010008B3010008F5260008D9
:1000D000B3010008B3010008B30100085D2A00085D
:1000E000B3010008B3010008B301000800F002F8F2
:1000F00000F042F80AA090E8000C82448344AAF180
:100100000107DA4501D100F037F8AFF2090EBAE87D
:100110000F0013F0010F18BFFB1A43F0010318473B
:10012000C84A0000E84A0000103A24BF78C878C1E5
:10013000FAD8520724BF30C830C144BF04680C60ED
:10014000704700000023002400250026103A28BF35
:1001500078C1FBD8520728BF30C148BF0B60704739
:10016000642900F08980782900F0C280002070475F
:100170001FB51FBD10B510BD00F028FA1146FFF7DE
:10018000F7FF02F089FC00F046FA03B4FFF7F2FF34
:1001900003BC00F049FA00000948804709480047BD
:1001A000FEE7FEE7FEE7FEE7FEE7FEE7FEE7FEE727
:1001B000FEE7FEE704480549054A064B7047000084
:1001C00081280008ED000008B8050020B80B0020C9
:1001D000B8070020B8070020B2F120030AD5C2F109
:1001E000200320FA02F001FA03F321FA02F140EAB7
:1001F0000300704721FA03F04FF000017047000040
:100200000FB41CB5074B06AA7B44694600900598BD
:1002100000F0BFF90020694600F0CEF91CBC5DF883
:1002200014FB0000AD03000070B50446856900684A
:10023000C10601D5302600E02026C00707D070BDDA
:10024000D4E9012130469047206A401C20626D1E8F
:10025000F6D570BD70B5044685690078C00707D132
:1002600070BDD4E9012120209047206A401C206203
:100270006D1EF6D570BD00002DE9F0410646002444
:1002800010687529314616A510D0AFF300800028FC
:1002900002DA404213A507E031688A0701D512A5AA
:1002A00002E0490704D511A5012401E0AFF3008065
:1002B00000210A2206F1240709E0B0FBF2FCB0FBA2
:1002C000F2F302FB1C00303078541846491C002819
:1002D000F3D123462A463046BDE8F04100F0FAB893
:1002E000000000002D0000002B0000002000000096
:1002F00070B504460D4621461068AFF30080218892
:10030000090502D50F4A7A4402E00E4A7A440E32B9
:10031000002104F1240305E000F00F060009965DBA
:100320005E54491C0028F7D120780023000704D52B
:10033000702D02D009B1022311322046BDE8704071
:1003400000F0C8B8A44800002DE9F05F89460446D3
:100350004FF0000ADFF824B1FB44C0F820A020468B
:10036000E168884700287DD0252806D0D4E90121FE
:100370009047206A401C2062F1E700255F46204636
:10038000E16888472028064607DB312E05D2B819D8
:1003900010F8200C08B10543F1E7A80701D525F0B6
:1003A0000405C4F81CA00027C4F818A02A2E09D000
:1003B000304602F06AFB38B304EB8708303EC8F8D9
:1003C000186019E059F8041B204604EB870291617C
:1003D000E1688847012F064618D1E069002820DA35
:1003E00025F020051DE0D8F8180000EB800006EB92
:1003F00040003038C8F818002046E16888470646B3
:1004000002F043FB0028EED1012F0AD02E2E08D196
:100410002046E16888477F1C0646022F45F02005EC
:10042000C4DBA069002803DA404245F00105A06161
:10043000E80701D025F01005A6B1A6F14100192862
:1004400002D8203645F400654A46314620462560EC
:100450004D46FFF785FE60B1012807D0ED1D25F060
:10046000070000E007E000F1080978E705F104095A
:1004700075E730467AE7206ABDE8F09F7A480000C9
:100480004FF0000200B5134694469646203922BF2D
:10049000A0E80C50A0E80C50B1F12001BFF4F7AF78
:1004A000090728BFA0E80C5048BF0CC05DF804EB5A
:1004B000890028BF40F8042B08BF704748BF20F8C8
:1004C000022B11F0804F18BF00F8012B70477047C6
:1004D000704770472DE9F0470D469946924604460D
:1004E00000F124080168880604D5E06921F01001B4
:1004F000216000E00120A84201DD471B00E0002749
:10050000A1697A1902EB0900081AA0612078C006D7
:1005100002D42046FFF788FE002608E0D4E9012136
:100520001AF806009047206A401C761C20624E454F
:10053000F4DB2078C0060AD52046FFF775FE06E0FA
:10054000D4E9012130209047206A401C2062381EE7
:10055000A7F10107F4DC07E0D4E9012118F8050050
:100560009047206A401C2062281EA5F10105F3DC9B
:100570002046FFF76FFE2078000602D50220BDE876
:10058000F0870120FBE7000001694A1C026108783E
:10059000704700B58FB0CDE90131002105910549C3
:1005A0007944CDE9031011466846FFF7CDFE0FB040
:1005B00000BD0000E5FFFFFF0A6802F8010B0A60BA
:1005C0007047000000487047580500207546FFF747
:1005D000F9FFAE4605006946534620F00700854600
:1005E00018B020B5FFF7E6FDBDE820404FF000064B
:1005F0004FF000074FF000084FF0000B21F007010B
:10060000AC46ACE8C009ACE8C009ACE8C009ACE84D
:10061000C0098D46704710B50446AFF300802046F0
:10062000BDE81040FFF7B1BD01491820ABBEFEE7A1
:10063000260002007047000001221103014800F06B
:100640007ABB0000000C014000224FF480510148A9
:1006500000F071BB000C0140FEE70000F8B52F4C24
:1006600000260125A08810B3A078401CC0B2A0705D
:10067000032839D3FFF7E8FF082329A21821002017
:10068000009501F007FF01F06DFE40F6B83000F074
:1006900099F9FFF7D1FF082323A218210020009524
:1006A00001F0F8FE01F05EFE2670A67032E002F066
:1006B00019F808231FA218210020009501F0EAFE76
:1006C00001F050FE41F2883000F07CF902F002F8AF
:1006D000082315A218210020009501F0DBFE01F08F
:1006E00041FE2670A670F8BD082315A2182100202F
:1006F000009501F0CFFE01F035FE4FF47A7000F066
:1007000061F9082308A218210020009501F0C2FE1B
:1007100001F028FEBDE8F84000F016B80000002007
:10072000416C61726D2100002020202020202020BB
:1007300000000000537563636573732100000000BF
:100740004572726F7221000008B508480021082325
:100750008180C1700120009005A21946202001F07F
:1007600099FEBDE8084001F0FDBD0000000000203A
:100770002020202000000000704772B6FEE7000035
:1007800006490020C8610648016941F00401016181
:10079000016941F04001016170470000B80000208C
:1007A00000200240064A0021D16106490A6942F050
:1007B00002020A614861086940F040000861704720
:1007C000B800002000200240044B0022DA61044AF5
:1007D000136943F00103136101807047B8000020E2
:1007E0000020024014480022C168CB06134904D5FA
:1007F000CA6942F00202CA611022C3685B0705D5CC
:10080000CB6943F00103CB6142F00402C369DB070B
:1008100007D0CB6943F00403CB61C16921F001012A
:10082000C161A2F58071013901D0C2607047C16910
:1008300021F00101C161704700200240B800002092
:1008400070B5054600F07CFA0646114C09E0681CBC
:1008500007D025B100F074FA801BA84201D903200B
:1008600070BDE068C007F2D1E068800601D52020A5
:10087000E060E068C00605D4E069C00702D1E06826
:10088000400703D5FFF7AEFF012070BD002070BD0B
:100890000020024010B586B000F044F9002000901E
:1008A0000C4C0120CDE9024004A9684600F09CF8F8
:1008B00060B9002213462146022000F0F3F828B95F
:1008C00000221346211D022000F0ECF800F0E0F8B1
:1008D00006B010BD00FC0008014800687047000029
:1008E00000FC000810B590F821100022022905D064
:1008F0000421816380F82020012010BD01680B686D
:1009000023F00E030B6001680B6823F001030B60FA
:1009100090F84030C46B012101FA03F3636080F862
:10092000211080F82020104610BD000010B590F86E
:1009300021100024022903D00421816301243DE019
:1009400001680A6822F00E020A6001680A6822F053
:1009500001020A601A4A0168914201D1012121E095
:10096000174A1432914201D110211BE0144A283257
:10097000914201D1891515E0114A3C32914201D1D1
:1009800089140FE00E4A5032914202D14FF4803167
:1009900008E00B4A6432914202D14FF4801101E029
:1009A0004FF08071064A083A5160012180F8211009
:1009B000002180F82010416B01B18847204610BD0E
:1009C0000800024070B5044600F0BAF90546601C04
:1009D00002D004480078044400F0B2F9401BA04261
:1009E000FAD370BD080000202DE9F04705462648DF
:1009F0000F460126017E01290FD001218146017693
:100A00002868DFF888804CF25034022808D0A246CB
:100A10002046FFF715FFA8B131E00220BDE8F087BE
:100A20002046FFF70DFF08BB0120FFF7A9FE204677
:100A3000FFF706FFD8F81010064621F00401C8F8A9
:100A400010101CE04FF0FF303860AC6811E0204619
:100A5000FFF7A8FE5046FFF7F3FED8F81010060087
:100A600021F00201C8F8101001D03C6007E004F545
:100A70008064D5E9020100EB8120A042E7D8002183
:100A800089F818103046C9E7B8000020002002405D
:100A90000348016941F080010161002070470000B6
:100AA000002002402DE9F05F07461C4888460024DC
:100AB000017E15461E46012909D001218146017695
:100AC0004CF2503A5046FFF7BBFE18B122E002202C
:100AD000BDE8F09F012F02D0022F00D00427D3469B
:100AE000DFF83CA0220128463146FFF775FB81B2B2
:100AF00008EB4400FFF768FE5846FFF7A1FEDAF85E
:100B0000102022F00102CAF8102018B9641CE4B2C7
:100B1000BC42E7D3002289F81820D9E7B8000020AA
:100B200000200240064900200A69120607D5054A3E
:100B30004A60054A4A600969090600D501207047E4
:100B40000020024023016745AB89EFCD2DE9F84F26
:100B5000DFF8B8910024A9F1040B23460F2709F10F
:100B6000040AABF1040EC9E00125A5402A40AA42BF
:100B70007DD1674ED1F804C0ACEB0608B44532D045
:100B800014DCBCF1030F3AD009DCBCF1000F2AD011
:100B9000BCF1010F1CD0BCF1020F31D11DE0BCF142
:100BA000110F17D0BCF1120F2AD119E0B8F5881F28
:100BB00019D006DCB8F5803F15D0B8F5801F1FD1DD
:100BC00011E0B8F5001F0ED0B8F5041F18D10AE0E7
:100BD000CB6815E0CB681B1D12E0CB6808330FE033
:100BE000CB680C330CE08B682BB1012B4FF0080362
:100BF00003D0456104E0042302E0056100E0002326
:100C0000FF2A01D8064601E000F104064FEA8405F8
:100C100001D9A5F12005D6F8008007FA05FC28EADD
:100C20000C0803FA05F548EA0508C6F800804D6887
:100C3000ED0062D5374DAE6946F00106AE61AD6993
:100C400024F0030605F001050095334D06EB050C75
:100C5000DCF80850A607360F07FA06F825EA08055B
:100C6000DFF8B880404503D14FF0000817E044E0BA
:100C7000DFF8AC80404502D14FF001080FE0DFF80B
:100C8000A480404502D14FF0020808E0DFF89880C8
:100C9000404502D14FF0030801E04FF0040808FA84
:100CA00006F848EA0508CCF808804D68D9F80060D5
:100CB000ED024D4601D5164300E096432E604D6887
:100CC000DAF80060AD02554601D5164300E09643C0
:100CD0002E604D68DBF80060AD035D4601D516431C
:100CE00000E096432E604D68DEF80060ED03754627
:100CF00001D5164300E096432E60641C0D682A4619
:100D0000E5407FF431AFBDE8F88F000008040140F2
:100D100000001110001002400000014000080140D6
:100D2000000C0140001001400014014080680840A0
:100D300000D0012070470AB1016170470904FBE748
:100D40000148806870470000080000200248816860
:100D5000027811448160704708000020074810B5F0
:100D6000016841F010010160032000F075F80F20C8
:100D700000F006F800F024F8002010BD002002402A
:100D800070B50D4D04464FF47A712878B1FBF0F040
:100D90000A490968B1FBF0F000F0E0FC48B9102CFA
:100DA00007D200222146501E00F036F800206C6069
:100DB00070BD012070BD000008000020140000205C
:100DC0000C4808B5816941F001018161816901F038
:100DD00001010091C16941F08051C161C06900F019
:100DE000805000900448416821F0E06141F00071BA
:100DF000416008BD0010024000000140002809DBEE
:100E000000F01F02012191404009800000F1E02024
:100E1000C0F8001170470000F0B40E4B1B680C4680
:100E2000C3F30223C3F10705042D00D90425191DBE
:100E3000072901D2002300E0DB1E012606FA05F196
:100E4000491E214099409E40761E16403143F0BC19
:100E500001F00BBE0CED00E0064900F00702086847
:100E60004FF6FF03184040EA0220034A104308608F
:100E7000704700000CED00E00000FA052DE9F04796
:100E80000F46050061D0434E306800F00700B842BD
:100E900009D2306820F0070038433060306800F035
:100EA0000700B84251D128683B4C810712D5400752
:100EB00003D5606840F4E06060602878000703D5DF
:100EC000606840F4605060606068A96820F0F000DD
:100ED000084360602878C00728D06868012810D0CF
:100EE0002168022810D0890700292EDA616821F0D4
:100EF000030101436160FFF723FF804641F2883917
:100F00000DE021688903EFE78901EDE7FFF718FF9E
:100F1000A0EB0801494502D90320BDE8F0876068CD
:100F2000696800F00C00B0EB810FEFD1306800F081
:100F30000700B8420BD9306820F007003843306012
:100F4000306800F00700B84201D00120E5E72878BA
:100F5000400705D56068E96820F4E06008436060F8
:100F60002878000706D56068296920F4605040EAB7
:100F7000C100606000F038F86168084AC1F30311ED
:100F8000515CC8400649086006480068FFF7F8FE53
:100F90000020C2E70020024000100240862D000819
:100FA000140000200C00002004480549006849682E
:100FB000044AC1F30221515CC8407047140000206C
:100FC00000100240962D0008044805490068496851
:100FD000044AC1F3C221515CC8407047140000208C
:100FE00000100240962D00080E4A51680E4801F08C
:100FF0000C03042B11D0082B0FD10C48C1F38343F1
:10100000C903C05C0AD55168084AC1F34041921E29
:10101000515C054A5043B0FBF1F070470449484326
:10102000704700000010024000127A00762D000880
:1010300000093D002DE9F84F040070D02078C04D24
:10104000C00749D06868C0F38100012807D06868EC
:10105000C0F38100022809D16868C00306D528685A
:10106000800339D560680028E7D035E06068B0F5C6
:10107000803F0BD010B1B0F5A02F11D0286820F41C
:1010800080302860286820F4802002E0286840F43E
:1010900080302860606890B1FFF752FE06460AE093
:1010A000286840F480202860F0E700BFFFF748FE82
:1010B000801B642873D828688003F7D50CE0FFF7FD
:1010C0003FFE064605E000BFFFF73AFE801B64289E
:1010D000F0D828688003F7D420789A4E80074FF024
:1010E00001094FF0000839D5686810F00C0F07D0DF
:1010F0006868C0F38100022809D16868C00306D47B
:101100002868800714D52069012808D110E02069DB
:10111000B0B1C6F80090FFF713FE074605E00AE1FC
:10112000FFF70EFEC01B0228C4D828688007F7D539
:101130002868616920F0F80040EAC10028600DE0ED
:10114000C6F80080FFF7FCFD074604E0FFF7F8FD56
:10115000C01B022823D828688007F7D4207800070E
:101160002CD57948A169D9B1C0F80090FFF7E8FD06
:10117000074604E0FFF7E4FDC01B02280FD8686AA9
:101180008007F7D571484FF4FA510068B0FBF1F0D1
:10119000009000BF0098411E0091FAD20EE080E05E
:1011A000C0F80080FFF7CCFD074604E0FFF7C8FD5C
:1011B000C01B022875D8686A8007F7D420784007DA
:1011C00060D5E8690027C00008D4E86940F0805085
:1011D000E861E869012700F0805000905C480168F0
:1011E000C90513D40168834641F480710160FFF79B
:1011F000A7FD824606E000BFFFF7A2FDA0EB0A00B4
:1012000064284ED8DBF80000C005F5D5E068012859
:101210000AD008B1052813D0286A20F001002862FE
:10122000286A20F0040002E0286A40F001002862E9
:10123000E06841F2883B98B1FFF782FD82460BE0FF
:10124000286A40F004002862EEE700BFFFF778FD4F
:10125000A0EB0A0159455AD8286A8007F6D50CE058
:10126000FFF76EFD824605E0FFF76AFDA0EB0A017D
:1012700059454CD8286A8007F6D41FB1E86920F098
:101280008050E861E06988B36968C1F3810102298F
:1012900044D00228C6F8608004D0FFF751FD044610
:1012A00038E034E0FFF74CFD074604E0FFF748FD67
:1012B000C01B02282BD828688001F7D4206AB0F51B
:1012C000803F05D16868A16820F400300843686059
:1012D000D4E908010843696821F47411084368607F
:1012E000C6F86090FFF72CFD044606E025E000BF3D
:1012F000FFF726FD001B022809D828688001F7D5D2
:101300001BE000BFFFF71CFD001B022802D90320D1
:10131000BDE8F88F28688001F4D40EE00128F7D0EA
:101320006868226A00F48031914204D1616A00F455
:101330007010884201D00120EAE70020E8E70000B1
:10134000001002400000424280044242140000208B
:10135000007000407047000038B5044600684268DD
:101360008168C9434B0606D5CB0704D1D3435B063E
:1013700001D4216C05E08B0708D4D3431B0605D4A8
:10138000616C01B02046BDE8304008478B0601D5AE
:101390004B0646D4D3439B0643D44B060AD494F859
:1013A0005130032B3ED0636D43F004036365C36883
:1013B00083680093890609D4616D41F0010161657C
:1013C00081680091016821F040010160606D002892
:1013D00027D02068416821F0E0014160012084F8B5
:1013E0005100900722D02068416821F0030141603C
:1013F000104DE06C40B14563E06CFFF797FA18B10F
:10140000606D40F040006065A06C002809D0456325
:10141000A06CFFF78BFA002803D0606D40F040000D
:10142000606538BDC1688068009038BD2046FFF710
:1014300091FF38BD2127000870B5040009D0606A0B
:10144000002540B125616561A56294F8510040B165
:101450000CE0012070BD6068B0F5827FF4D0E561DA
:10146000F2E784F85050204600F040F8022084F85B
:1014700051002068016821F040010160A0882189A5
:1014800000F4827001F404410843A18901F4006171
:101490000843217C01F002010843217D01F0010194
:1014A0000843218B01F400710843217F01F03801CA
:1014B000084394F8201001F080010843218D01F4C5
:1014C0000051084321680860A069042101EA104026
:1014D000216848602068C16921F40061C1616565C7
:1014E000012084F85100002070BD000030B585B0A7
:1014F00000240094019402940394006818498842DF
:101500002BD11848816941F480518161816901F4CE
:1015100080510491816941F0040181618069124D1B
:1015200000F004000490A02000900220019003200D
:10153000039069462846FFF709FB4020CDE90004E7
:10154000694628460294FFF701FB0022114623203A
:10155000FFF762FC2320FFF751FC05B030BD00000F
:101560000030014000100240000801402DE9FF4F0B
:1015700081B01D46934604464FF001090E9EFFF7C9
:10158000DFFB074694F851006168012806D0B1F5E9
:10159000827F3CD1A168C9BB042838D102980028B9
:1015A00071D0BBF1000FFBD0002DF9D094F85000A2
:1015B00001282CD04FF0010A84F850A094F8510073
:1015C000042802D0052084F851004FF00008C4F828
:1015D0005480C4F838B0E587A58702992163E58671
:1015E000A586C4F84080C4F8448020680168490694
:1015F00003D4016841F040010160E068B0F5006F7C
:10160000606808D0F0B3012D49D081E0FFE70220E7
:1016100005B0BDE8F08F08B1012D39D1206B2168EC
:101620000088C860206B801C2063E08E401EE0862E
:101630002EE02068816889070FD5E18E69B1B9F184
:10164000010F0AD1216B0988C160206B801C2063C7
:10165000E08E401EE0864FF0000920688168C907CF
:101660000CD0E18F51B1C068A16B0880A06B801CC9
:10167000A063E08F401EE0874FF00109FFF760FB99
:10168000C01B01E00BE067E0B04201D3701C50D1F9
:10169000E08E0028CDD1E08F0028CAD13EE0206B3B
:1016A000216800780873206B401C2063E08E401E88
:1016B000E0862DE02068816889070FD5E18E69B149
:1016C000B9F1010F0AD1216B09780173206B401C1D
:1016D0002063E08E401EE0864FF00009206881689C
:1016E000C9070CD0E18F51B1C068A16B0870A06B25
:1016F000401CA063E08F401EE0874FF00109FFF718
:101700001FFBC01BB04202D3701C01D011E086B198
:10171000E08E0028CED1E08F0028CBD13A4631466A
:10172000204601F005F850B12020606584F8508013
:1017300012E084F851A084F85080032068E7A06884
:1017400018B92068C1688068009084F851A084F8B6
:101750005080606D0028F1D0012059E710B5401E7F
:10176000B0F1807F01D3012010BD4FF0E024606113
:101770000F21601701F079F90020A0610720206196
:10178000002010BD70477047F8B50168044608682E
:10179000CA684B6910F00F0F4FF0000559D003F0E5
:1017A000010602F49077374365D0C10705D0D10513
:1017B00003D5616C41F001016164410705D5D9078A
:1017C00003D0616C41F002016164810705D5D9073E
:1017D00003D0616C41F004016164010707D502F098
:1017E0002001314303D0616C41F008016164616CF8
:1017F00000293AD0800604D5900602D5204601F093
:101800006FF820684069616CC0F38010090700D44C
:1018100060B3204601F03DF820684069400621D5BC
:101820002068143050E8001F21F0400140E8001209
:10183000002AF5D1E06BA8B16D494163E06BFFF779
:1018400075F8002811D0E06B416B01B0BDE8F040A5
:10185000084783060FD593060DD52046BDE8F8400E
:1018600001F03EB82046FFF78EFFF8BD2046FFF797
:101870008AFF6564F8BD266B2023012E7CD1C60645
:101880007AD5D60678D508684868009048694FF040
:101890000206400640D5E16B086840680004000C71
:1018A000E8D0A28D8242E5D9E085886920282DD034
:1018B00020680C3050E8001F21F4807140E80012CD
:1018C000002AF5D12068143050E8001F21F00101F2
:1018D00040E80012002AF5D12068143050E8001FBB
:1018E00021F0400140E80012002AF5D184F842308E
:1018F000256320680C3050E8001F21F0100140E8FB
:101900000012002AF5D1E06BFEF7ECFF6663A08DB4
:10191000E18D401A81B22AE0A08DE18D401A81B29A
:10192000E08D0028A6D00029A4D022680C3252E80D
:10193000000F20F4907042E80007002FF5D12068D6
:10194000143050E8002F22F0010240E80027002F59
:10195000F5D184F84230256320680C3050E8002F20
:1019600022F0100240E80023002BF5D166632046E8
:10197000FFF708FFF8BDFFE705062BD5150629D5AB
:1019800094F841002128F5D1A068B0F5805F01D11D
:101990002069B0B1206A411C21622168007848604A
:1019A000E08C401E0004000CE084E3D12068C16894
:1019B00021F08001C1602068C16841F04001C16030
:1019C000D8E7206A0088C0F308004860206A801CBD
:1019D0002062E5E74006CDD55006CBD5CA68204643
:1019E00022F04002CA6084F8413000F076F8C1E786
:1019F0008328000870B5040004D094F84100002545
:101A000010B106E0012070BD84F84050204600F07F
:101A100023F8242084F841002068C16821F4005193
:101A2000C160204600F0BEFF2068016921F49041AA
:101A300001612068416921F02A0141612068C16883
:101A400041F40051C1606564202084F8410084F8AD
:101A500042006563002070BD30B585B0002400945D
:101A60000194029403940068184988422CD11848C4
:101A7000C16941F48021C161C16901F480210491EF
:101A8000816941F0080181618069124D00F0080010
:101A900004904FF480600090022001900320039096
:101AA00069462846FFF752F8E814CDE90004694674
:101AB00028460294FFF74AF8002211462720FFF734
:101AC000ABF92720FFF79AF905B030BD0048004078
:101AD00000100240000C014070477047FEE70F28DD
:101AE0001DD2DFE800F01C080A0C1C0E10121C149A
:101AF00016181C1C1A000120704702207047032092
:101B00007047042070470520704706207047072063
:101B10007047082070470920704700207047FF2059
:101B2000704770B50C46054600F0AAF820EA04019B
:101B30002846BDE8704000F0CBB800002DE9FF5FFB
:101B40000027FE25DDF838A016468B468146B846AC
:101B50000C2805D0B9F10E0F05D11227102001E095
:101B600077273020804647F08001022000F0B0F84F
:101B700080210420FFF7D5FF0021012000F0A8F804
:101B800080210A2000F098F8002405E01BF80410DA
:101B9000092000F09DF8641CB442F7D349460120A7
:101BA00000F096F8B9F10C0F03D180210D2000F060
:101BB00083F8294E042000F063F80446761E04D012
:101BC000E00702D114EA080FF4D080210D20FFF7BE
:101BD000A8FF36B1062000F053F810F01B0F0CD010
:101BE000FE2580210C2000F067F80021012000F084
:101BF0006FF804B02846BDE8F09F00253C40E007A0
:101C000000D0FF25B9F10C0FEBD10A2000F038F815
:101C100004460C2000F034F810F007004FEAC4012D
:101C200004D008390844AAF8000001E0AAF800101E
:101C300024B1122C04D91224002603E00124FBE76E
:101C4000002605E0092000F01BF803998855761C52
:101C5000A642F7D3C5E70000E093040010B50122C7
:101C600010210548FFF767F80122BDE81040114632
:101C70000248FFF760B8000000080140000C014076
:101C800070B57E2101EA40000A4D40F08004002238
:101C900010212846FFF74FF8204600F031FD0020C4
:101CA00000F02EFD0446012210212846FFF743F8DC
:101CB000204670BD0008014070B50C460546FFF790
:101CC000DFFF40EA04012846BDE87040AFF3008022
:101CD00070B50E467E2101EA4004094D0022102114
:101CE0002846FFF728F8204600F00AFD304600F0AD
:101CF00007FD2846BDE8704001221021FFF71BB800
:101D0000000801402DE9F04385B000263F480096C9
:101D1000019602960396816941F010018161816903
:101D200001F010010491816941F020018161816914
:101D300001F020010491816941F004018161816910
:101D400001F004010491816941F008018161806919
:101D50002F4F00F008004FF4604404900122214608
:101D60003846FEF7E8FFDFF8AC80012248F21301A5
:101D70004046FEF7E0FFDFF8A090012243F2390170
:101D80004846FEF7D8FF00940124032569463846EB
:101D90000194CDE90245FEF7D9FE1320CDE90004F8
:101DA00069464046CDE90245FEF7D0FE41F201000A
:101DB000CDE9000469464846CDE90245FEF7C6FE76
:101DC0006003CDE900040220CDE9020569464846DA
:101DD000FEF7BCFEE00303958DE8510069464046DE
:101DE000FEF7B4FE382003958DE851006946484659
:101DF000FEF7ACFE4FF47070CDE900066946029420
:101E00004846FEF7A3FE05B0BDE8F083001002408F
:101E10000010014000080140000C0140104810B5BE
:101E20000E4901604FF48271416000218160C16000
:101E30004FF400720161C0E905121822C0E90721C0
:101E4000416281620A21C162FFF7F6FA002803D0DD
:101E5000BDE81040FEF791BC10BD0000003001400D
:101E6000180000200C4810B50A4901604FF4E13118
:101E70004160002181600C22C160C0E904128161CF
:101E8000C161FFF7B7FD002803D0BDE81040FEF7A1
:101E900074BC10BD00480040700000207047000076
:101EA0002DE9F047DFF8489300244FF4004822461C
:101EB00041464846FEF73FFFCE4D01220821284605
:101EC000FEF739FF012210212846FEF734FF0122D8
:101ED00020212846FEF72FFF40212846FEF726FF47
:101EE000AE156F1578B180212846FEF71FFFD0B1DF
:101EF00031462846FEF71AFF28B339462846FEF732
:101F000015FF80B33FE00A20FEF75CFD4021284624
:101F1000FEF70CFF30BB012440212846FEF706FFE8
:101F20000028F9D02FE00A20FEF74CFD802128463A
:101F3000FEF7FCFEB0B9022480212846FEF7F6FE2B
:101F40000028F9D01FE00A20FEF73CFD3146284664
:101F5000FEF7ECFE30B9032431462846FEF7E6FED4
:101F60000028F9D00FE0FFE70A20FEF72BFD3946E5
:101F70002846FEF7DBFE30B9042439462846FEF732
:101F8000D5FE0028F9D0012241464846FEF7D3FE8F
:101F9000002208212846FEF7CEFE40212846FEF703
:101FA000C5FE78B180212846FEF7C0FED0B131468B
:101FB0002846FEF7BBFE28B339462846FEF7B6FE94
:101FC00080B33FE00A20FEF7FDFC40212846FEF7E3
:101FD000ADFE30BB052440212846FEF7A7FE0028B1
:101FE000F9D02FE00A20FEF7EDFC80212846FEF70D
:101FF0009DFEB0B9062480212846FEF797FE0028F2
:10200000F9D01FE00A20FEF7DDFC31462846FEF736
:102010008DFE30B9072431462846FEF787FE00289A
:10202000F9D00FE0FFE70A20FEF7CCFC394628463E
:10203000FEF77CFE30B9082439462846FEF776FEC6
:102040000028F9D0012208212846FEF774FE00225C
:1020500010212846FEF76FFE40212846FEF766FE57
:1020600078B180212846FEF761FED0B1314628467E
:10207000FEF75CFE28B339462846FEF757FE80B3CC
:102080003FE00A20FEF79EFC40212846FEF74EFE68
:1020900030BB092440212846FEF748FE0028F9D02D
:1020A0002FE00A20FEF78EFC80212846FEF73EFE38
:1020B000B0B90A2480212846FEF738FE0028F9D05E
:1020C0001FE00A20FEF77EFC31462846FEF72EFE72
:1020D00030B90B2431462846FEF728FE0028F9D0F7
:1020E0000FE0FFE70A20FEF76DFC39462846FEF7B1
:1020F0001DFE30B90C2439462846FEF717FE00288D
:10210000F9D0012210212846FEF715FE00222021D9
:102110002846FEF710FE40212846FEF707FE78B15C
:1021200080212846FEF702FED0B131462846FEF750
:10213000FDFD28B339462846FEF7F8FD80B33FE0A1
:102140000A20FEF73FFC40212846FEF7EFFD30BB9A
:102150000D2440212846FEF7E9FD0028F9D02FE0A4
:102160000A20FEF72FFC80212846FEF7DFFDB0B9DC
:102170000E2480212846FEF7D9FD0028F9D01FE063
:102180000A20FEF71FFC31462846FEF7CFFD30B986
:102190000F2431462846FEF7C9FD0028F9D00FE08C
:1021A000FFE70A20FEF70EFC39462846FEF7BEFD83
:1021B00030B9102439462846FEF7B8FD0028F9D07A
:1021C000012241464846FEF7B6FD01220821284675
:1021D000FEF7B1FD012210212846FEF7ACFD0122D9
:1021E00020212846FEF7A7FD2046BDE8F087000025
:1021F00000080140000C0140FEE7FEE730B400217A
:10220000084B0A465FF0000003EBC004401CC0B25C
:1022100062548028F8D3491CC9B20829F2D330BCD3
:1022200000F0A0B8D800002030B5CC0801F00703BA
:1022300001259D40EBB2064D05EBC005C808285CA2
:102240000AB1184302E063EA0000C043285530BDDC
:10225000D800002070B5424D4FF4004400222146C2
:102260002846FEF768FDC820FEF7ACFB0122214698
:102270002846FEF760FD0021AE2000F029F900217C
:10228000084600F025F90021102000F021F9002176
:10229000402000F01DF90021812000F019F90021F3
:1022A000CF2000F015F90021A12000F011F9002144
:1022B000C82000F00DF90021A62000F009F9002146
:1022C000A82000F005F900213F2000F001F90021CD
:1022D000D32000F0FDF80021084600F0F9F80021B5
:1022E000D52000F0F5F80021802000F0F1F8002161
:1022F000D92000F0EDF80021F12000F0E9F80021EC
:10230000DA2000F0E5F80021122000F0E1F80021C9
:10231000DB2000F0DDF80021402000F0D9F800219A
:10232000202000F0D5F80021022000F0D1F8002193
:102330008D2000F0CDF80021142000F0C9F8002114
:10234000A42000F0C5F80021A62000F0C1F8FFF796
:1023500055FFBDE870400021AF2000F0B9B8000083
:102360000010014070B5114E002400BF04F1B00010
:10237000C0B2002100F0ACF80021084600F0A8F837
:102380000021102000F0A4F85FF0000506EBC50066
:102390000121005D00F09CF86D1CEDB2802DF5D39D
:1023A000641CE4B2082CE1D370BD0000D80000200A
:1023B0002DE9FC4F1C460E4682468B460190082BA9
:1023C0000DD0600700D0012000EBD4006108484325
:1023D000C0B28146203AD0B2009000204BE00620E7
:1023E000F7E7082C13D00C2C18D0102C1BD0182C6D
:1023F00044D10098234900EBC00000BF01EB8001ED
:10240000002711F80850E80712D00B9A13E0009843
:102410001D4900EB400001EB4001F1E700981B492A
:1024200000EB4000EAE71A49009801EB0011E7E7EA
:102430000B9828B3002231465046FFF7F5FE761C74
:102440007F1C6D08FFB2F6B2082FDCD30AF1010041
:1024500000F0FF0A082C0AD00199AAEB0100B0EBAA
:10246000540F04D10BF108008A4600F0FF0B08F16D
:1024700001005E46C0B280464845B2D3BDE8FC8F3D
:102480000122D8E72A3A00089E2D0008C62F00082E
:102490003A3400082DE9F8411E46154688460446A0
:1024A000079F0BE03346414620460097FFF780FF29
:1024B000082E0AD004EB5600C4B26D1C2A78A2F193
:1024C00020005E28EED9BDE8F881A41DE4B2F4E74F
:1024D0002DE9F0471D4C054609B1012200E000221C
:1024E00001212046FEF727FC00220221A0462046BB
:1024F000FEF721FC164F00244FF480494FF400569C
:10250000002231463846FEF716FC280601D5012286
:1025100000E0002249463846FEF70DFC0122314614
:102520003846FEF708FC6806641C050EE4B2082C69
:10253000E6D30122022144464046FEF7FCFB20463A
:10254000BDE8F04701221146FEF7F5BB0008014047
:102550000010014003211420FFF7E3BA10B5142046
:10256000FFF78EFB800705D10321BDE81040142042
:10257000FFF7A2BB10BD70B50646082188B0002445
:102580000846FFF7CEFA00210D20FFF7A1FB8021BE
:102590000E20FFF7C6FA93208DF8040020208DF856
:1025A000050006A801AB0090022219460C20FFF797
:1025B000C5FA05000DD1002101A8425C7254425CAD
:1025C000491C5440C9B20429F7D3405CA04200D052
:1025D000FE2580210E20FFF76FFB08B0284670BD56
:1025E00010B5FFF73BFB00F02FF8FFF7B3FFBDE896
:1025F0001040FFF7B3BF30B50C460546082187B041
:102600000846FFF78EFA07210D20FFF761FB032133
:102610001420FFF751FB06A801AB00908DF8045081
:10262000012219460C20FFF789FA002809D1BDF8CC
:102630001810102905D19DF8041021709DF805107F
:10264000617007B030BD000010B5204C012211466A
:102650002046FEF770FB0220FEF7B4F900220121AC
:102660002046FEF768FB0220FEF7ACF90122114676
:102670002046FEF760FB0220FEF7A4F90F2101209F
:10268000FFF726FB0220FEF79DF93D211120FFF701
:102690001FFB1E212D20FFF71BFB00212C20FFF725
:1026A00017FB8D212A20FFF713FB3E212B20FFF77C
:1026B0000FFB40211520FFF70BFBFFF74BFF02201C
:1026C000FEF780F9BDE81040FFF748BF000C01405D
:1026D0007047000000224FF400510148FEF72BBB69
:1026E000000C0140012251030148FEF724BB000009
:1026F000000C01400148FEF72FBE0000180000202A
:1027000001B582B00A200090012301AA02A9034862
:10271000FEF72CFF9DF804000EBD000018000020FD
:1027200010B5406A0021C187C186FEF713FE10BDB7
:10273000F8B515460E460B460092044601220221CA
:1027400000F010F840B93346002280212046009561
:1027500000F008F8002804D0606D40F020006065AB
:102760000320F8BD2DE9F8431E46914688460446ED
:10277000089DFEF7E5FA401B351AFEF7E1FA074619
:1027800025480068C0F3CB30684338E0701C37D070
:10279000FEF7D6FAC01BA84203D215B1009860B369
:1027A0002CE02068416821F0E00141606068B0F5EC
:1027B000827F0BD1A068B0F5004F02D0B0F5806FDA
:1027C00004D12068016821F040010160A06AB0F5E1
:1027D000005F09D12068016821F400510160206880
:1027E000016841F400510160012084F8510000208B
:1027F00084F850000320BDE8F8830025401E0090B7
:102800002068816838EA010004D000214945BDD123
:102810000020F0E70121F9E7140000207047FEF7DF
:1028200095BA30B58FB028216846FDF729FE1421EE
:102830000AA8FDF725FE01210804CDE900100024B7
:10284000029402250491CDE907504FF4E01009905D
:102850006846FEF7EFFB08B172B6FEE70F20CDE940
:102860000A054FF48060CDE90C4002210AA80E94BD
:10287000FEF704FB002801D072B6FEE70FB030BDB2
:10288000704710B5406A0021C185C184FEF77BFF07
:1028900010BD01680C3151E8002F22F4907241E81C
:1028A0000023002BF5D10168143151E8002F22F0EC
:1028B000010241E80023002BF5D1016B012909D168
:1028C00001680C3151E8002F22F0100241E800238A
:1028D000002BF5D1202180F84210002101637047C0
:1028E00008B590F84210222901D0022008BD826864
:1028F0004FF480539A4201D1016921B1816A9A4211
:102900001BD04AB10AE00268816A5268C2F3080229
:102910000A80816A891C08E0026972B10268526803
:1029200002F07F020A70816A491C8162C18D491ED2
:102930000904090CC18503D01BE002685268F1E765
:102940000168CA6822F02002CA600168CA6822F4DD
:102950008072CA6001684A6922F001024A6120213E
:1029600080F8421000214163026B012A03D0FFF777
:10297000B3F8002008BD016301680C3151E8002F55
:1029800022F0100241E80023002BF5D101680A680B
:10299000D20602D50A6849680091818DFEF7F2FEE1
:1029A000E7E7000070B5044600680169E26821F4B9
:1029B0004051114301612169A068084361690843DE
:1029C0002168CA6841F20C639A430243CA602068D6
:1029D0004169A26921F44071114341611E49206897
:1029E000884202D1FEF7F0FA01E0FEF7DDFA00EBD3
:1029F000C00101EB0012606864218000B2FBF0F3BB
:102A0000B3FBF1F36FF018067343B2FBF0F5B2FBC2
:102A1000F0F605EB8305322303EB0515B5FBF1F565
:102A2000B6FBF1F605F0F00505EB0615B2FBF0F686
:102A3000B2FBF0F0B0FBF1F06FF01802504306EB80
:102A4000800003EB0010B0FBF1F0216800F00F00F4
:102A50002844886070BD0000003801400148FEF73E
:102A600093BE000070000020FEE70907090E002851
:102A700004DB00F1E02080F80014704700F00F0044
:102A800000F1E02080F8141D704730380A2801D288
:102A9000012070470020704788B0FEF75FF9FFF70C
:102AA000C0FEFFF72FF9FFF7DDF9FFF7B7F9FFF7E2
:102AB000D1FBFFF7F3F9FFF793FDFDF7EBFE0124E0
:102AC000002108237CA208460094FFF7E3FC0823BA
:102AD0007CA2194600200094FFF7DCFC08237BA2AF
:102AE000102100200094FFF7D5FCFFF73BFC7C4D44
:102AF000002600BFFFF7D4F90746102827D12C7015
:102B0000AE80EE700021082376A208460094FFF7FD
:102B1000C1FC082376A2194600200094FFF7BAFCF6
:102B2000082375A2194620200094FFF7B3FC082360
:102B300073A2102100200094FFF7ACFC082375A2BB
:102B4000182100200094FFF7A5FCFFF70BFC287864
:102B500010B1012874D0AAE006A92620FFF74BFD8A
:102B60000028F8D105A8FFF706FD0028F3D1059845
:102B700000BA20F0FF079DF817000743FDF7ACFEF1
:102B800080463A4668A101A8FDF73AFB082301AA4E
:102B9000194620200094FFF77DFCFFF7E3FB474533
:102BA00014D1B8F1000F11D0FFF79CFD082360A2EB
:102BB000102100200094FFF76DFCFFF7D3FB41F2DA
:102BC0008830FDF7FFFEFFF785FD16E06878401CB2
:102BD000C0B2687003281BD3FDF736FD082358A246
:102BE000102100200094FFF755FCFFF7BBFB40F6D7
:102BF000B830FDF7E7FEFDF71FFD082345A21021C1
:102C000000200094FFF746FCFFF7ACFB6E704EE02F
:102C100008234DA2102100200094FFF73BFCFFF792
:102C2000A1FB4FF47A70FDF7CDFE082339A21021E5
:102C300000200094FFF72EFCFFF794FB37E0FFE73E
:102C40003FB33846FEF74BFFFF2830D0E978042920
:102C50002DD2AA88491C02EB820200EB420082B20C
:102C6000C8B2AA80E870012814D0022814D0032822
:102C700017D0042817D08DF80460082301AA19463C
:102C800020200094FFF706FCFFF76CFBE87804288F
:102C90000BD00CE030A100E030A101A8FDF7B0FAA4
:102CA000EBE730A1F9E731A1F7E7FDF7D7FC6420A6
:102CB000FDF788FE1EE700004E4643204D6F646519
:102CC000000000004E46433A200000005072657339
:102CD00073204B4559313620666F722050494E00A3
:102CE0000000002050494E204D6F64650000000038
:102CF00050494E3A20000000202020200000000013
:102D0000456E74657220342D64696769742050497A
:102D10004E000000202020202020202020202020E5
:102D2000202020200000000025303858000000003E
:102D3000416363657373204772616E74656400005C
:102D4000416C61726D2100004163636573732044BF
:102D5000656E6965640000002564000025303264FA
:102D6000000000002530336400000000253034648A
:102D700000000000010202030405060708090A0B0F
:102D80000C0D0E0F101000000000000000000102EA
:102D90000304060708090000000001020304000004
:102DA000000000000000002F0000000007000700E6
:102DB00000147F147F1400242A7F2A120062640802
:102DC000132300364955225000000503000000007F
:102DD0001C224100000041221C000014083E08147F
:102DE0000008083E0808000000A06000000808086D
:102DF0000808000060600000002010080402003E87
:102E00005149453E0000427F400000426151494621
:102E1000002141454B31001814127F100027454511
:102E20004539003C4A494930000171090503003623
:102E30004949493600064949291E00003636000036
:102E4000000056360000000814224100001414143B
:102E50001414000041221408000201510906003236
:102E60004959513E007C1211127C007F4949493674
:102E7000003E41414122007F4141221C007F4949DF
:102E80004941007F09090901003E4149497A007F13
:102E90000808087F0000417F4100002040413F01B9
:102EA000007F08142241007F40404040007F020C18
:102EB000027F007F0408107F003E4141413E007FB9
:102EC00009090906003E4151215E007F0919294682
:102ED0000046494949310001017F0101003F40405E
:102EE000403F001F2040201F003F4038403F00630C
:102EF000140814630007087008070061514945432E
:102F000000007F41410000552A552A5500004141EB
:102F10007F000004020102040040404040400000E5
:102F200001020400002054545478007F484444387F
:102F300000384444442000384444487F0038545406
:102F4000541800087E0901020018A4A4A47C007F84
:102F5000080404780000447D4000004080847D0027
:102F6000007F102844000000417F4000007C0418CE
:102F70000478007C0804047800384444443800FC99
:102F8000242424180018242418FC007C08040408B5
:102F900000485454542000043F444020003C40402A
:102FA000207C001C2040201C003C4030403C004461
:102FB00028102844001CA0A0A07C004464544C4469
:102FC0001414141414140000000000000000000089
:102FD00000000000FC000000000002000000000CE7
:102FE000020C020000000000000090D0BCD0BC9099
:102FF0000003000300001824FE448C0003020702B3
:1030000001001824D8B04C80000300010201C03830
:10301000E438E0000102020102020806000000009C
:10302000000000000000000000F8040200000001A1
:103030000204000204F80000000402010000906095
:10304000F86090000000010000002020FC2020001B
:103050000000010000000000000000000806000061
:1030600000002020202020000000000000000000C0
:10307000000000000002000000000080601C020050
:10308000040300000000F8040404F8000102020236
:1030900001000008FC000000000203020000188488
:1030A0004424180003020202020008042424D80069
:1030B00001020202010040B088FC80000000000311
:1030C00002003C242424C400010202020100F8246E
:1030D000242CC0000102020201000C04E41C0400C4
:1030E000000003000000D8242424D80001020202BA
:1030F000010038444444F8000003020201000000CB
:10310000100000000000020000000000200000008D
:1031100000000600000000205088040200000000AB
:1031200001029090909090000000000000000002CA
:10313000048850200002010000001804C424180074
:10314000000002000000F804E494F800010202020A
:10315000020000E09CF0800002030000030204FC77
:103160002424D800020302020100F80404040C0025
:1031700001020202010004FC0404F800020302023E
:10318000010004FC24740C0002030202030004FC8E
:1031900024740C00020302000000F0080444CC4038
:1031A00000010202010004FC2020FC0402030000D4
:1031B00003020404FC0404000202030202000004EF
:1031C00004FC040406040403000004FC24D00C04E2
:1031D00002030200030204FC0400000002030202D6
:1031E0000203FC3CC03CFC0003000300030004FCA1
:1031F00030C4FC04020302000300F8040404F800D5
:1032000001020202010004FC24241800020302004F
:103210000000F8848404F80001020207050004FCA1
:1032200024649800020302000302182424448C0042
:103230000302020201000C04FC040C000002030261
:10324000000004FC0000FC04000102020100047CF8
:1032500080E01C040000030000001CE03CE01C00B7
:10326000000300030000049C609C040002030003B0
:103270000200041CE01C04000002030200000C8495
:10328000641C04000203020203000000FE020200AC
:10329000000007040400000E30C000000000000120
:1032A0000200000202FE0000000404070000000407
:1032B0000204000000000000000000000000000008
:1032C00008080808080800000200000000000000CC
:1032D00000000040A0A0C00000010202030204FCA4
:1032E0002020C00000030202010000C02020600076
:1032F00000010202020000C02024FC0000010202C2
:10330000030200C0A0A0C0000001020202000020D1
:10331000F82424040002030202000040A0A0602060
:1033200000070A0A0A0404FC2020C000020302006D
:1033300003020020E400000000020302000000007D
:1033400020E4000008080807000004FC80E02020BA
:103350000203020003020404FC0000000202030254
:103360000200E020E020C00003000300030020E092
:103370002020C00002030200030200C02020C00081
:1033800000010202010020E02020C000080F0A0214
:10339000010000C02020E0000001020A0F0820E028
:1033A000402020000203020000000060A0A02000D6
:1033B0000002020203000020F820000000000102C9
:1033C000020020E00020E00000010202030220E0F1
:1033D000208060200000030100006080E080600029
:1033E000000300030000206080602000020300034F
:1033F000020020E020806020080807010000002073
:10340000A0602000000203020200000020DE020093
:10341000000000070400000000FF00000000000F93
:1034200000000002DE20000000040700000002018E
:103430000204040200000000000000000000000080
:1034400000000000000000000000000000F8000084
:103450000000000000333000000000100C06100CCB
:103460000600000000000000000040C07840C07866
:103470004000043F04043F040400007088FC08304E
:103480000000001820FF211E0000F008F000E018E6
:10349000000000211C031E211E0000F0088870009F
:1034A00000001E2123241927211010160E000000F1
:1034B00000000000000000000000000000E0180410
:1034C0000200000000071820400000020418E0007D
:1034D00000000040201807000000404080F08040BD
:1034E00040000202010F01020200000000F0000093
:1034F00000000101011F01010100000000000000A7
:10350000000080B07000000000000000000000001B
:1035100000000001010101010101000000000000A4
:10352000000000303000000000000000000080605B
:103530001804006018060100000000E010080810E0
:10354000E000000F102020100F00001010F8000005
:1035500000000020203F202000000070080808889C
:10356000700000302824222130000030088888486C
:1035700030000018202020110E000000C02010F89C
:10358000000000070424243F240000F8088888086D
:1035900008000019212020110E0000E01088881872
:1035A0000000000F112020110E0000380808C83854
:1035B00008000000003F0000000000708808088834
:1035C0007000001C222121221C0000E010080810BD
:1035D000E0000000312222110F00000000C0C000F6
:1035E00000000000003030000000000000800000FB
:1035F00000000000806000000000000080402010FB
:1036000008000001020408102000404040404040F3
:103610004000040404040404040000081020408056
:10362000000000201008040201000070480808088B
:10363000F0000000003036010000C030C828E8105B
:10364000E0000718272423140B000000C038E00016
:103650000000203C23020227382008F88888887060
:103660000000203F202020110E00C030080808086C
:103670003800071820202010080008F80808081053
:10368000E000203F202020100F0008F88888E8087C
:103690001000203F20202320180008F88888E80820
:1036A0001000203F200003000000C0300808083848
:1036B000000007182020221E020008F80800000859
:1036C000F808203F210101213F20000808F80808E0
:1036D00000000020203F2020000000000808F8081B
:1036E0000800C08080807F00000008F888C028188B
:1036F0000800203F20012638200008F808000000BC
:103700000000203F20202020300008F8F800F8F8C2
:103710000800203F003F003F200008F830C00008AC
:10372000F808203F200007183F00E01008080810A4
:10373000E0000F10202020100F0008F808080808EB
:10374000F000203F210101010000E01008080810EE
:10375000E0000F18242438504F0008F88888888823
:103760007000203F2000030C3020007088080808FB
:1037700038000038202121221C00180808F8080809
:1037800018000000203F2000000008F80800000892
:10379000F808001F202020201F000878880000C89B
:1037A0003808000007380E010000F80800F800088B
:1037B000F800033C0700073C030008186880806895
:1037C000180820302C03032C30200838C800C838D3
:1037D00008000000203F2000000010080808C8383A
:1037E00008002038262120201800000000FE0202D8
:1037F00002000000007F40404000000C30C000008C
:103800000000000000010638C00000020202FE00B5
:103810000000004040407F0000000000040202025F
:103820000400000000000000000000000000000094
:103830000000808080808080808000020204000080
:103840000000000000000000000000008080808078
:1038500000000019242222223F2008F80080800066
:103860000000003F112020110E0000000080808029
:103870000000000E11202020110000000080808830
:10388000F800000E112020103F2000008080808072
:103890000000001F222222221300008080F088886E
:1038A00088180020203F20200000000080808080B9
:1038B0008000006B94949493600008F800808080EE
:1038C0000000203F210000203F2000809898000049
:1038D00000000020203F2020000000000080989879
:1038E000000000C08080807F000008F80000808019
:1038F0008000203F24022D302000000808F800003E
:1039000000000020203F20200000808080808080F8
:103910008000203F20003F20003F8080008080808A
:103920000000203F210000203F2000008080808098
:103930000000001F202020201F00808000808000C9
:10394000000080FFA12020110E0000000080808078
:103950008000000E112020A0FF80808080008080E9
:10396000800020203F212000010000008080808016
:1039700080000033242424241900008080E080800B
:1039800000000000001F2020000080800000008058
:103990008000001F202020103F20808080000080B9
:1039A000808000010E3008060100808000800080C9
:1039B00080800F300C030C300F000080800080806E
:1039C00080000020312E0E31200080808000008099
:1039D000808080818E701806010000808080808049
:1039E00080000021302C2221300000000000807C6B
:1039F000020200000000003F404000000000FF0005
:103A0000000000000000FF0000000002027C8000B7
:103A100000000040403F00000000000601010202DB
:103A2000040400000000000000000000000000008E
:103A30000000000000000000000000000000000086
:103A40000000000000000000000000000000000076
:103A5000000000F0F0F00000000000000000000195
:103A60007F010000000000000000001C1C1C000082
:103A7000000000008060301C8C60301C0C000000D6
:103A80000000000000000000000000000000000036
:103A9000000000000000000000E00000000000E066
:103AA00000000086E69F86868686E69F86000001E7
:103AB0001F01010101011F010100000080C0602001
:103AC000F820E0C00000000003070C18FF70E1813F
:103AD00000000000070F10107F100F07000080602B
:103AE000206080000000E02000000F3020309F7038
:103AF000DC371030C0000000100E0300071810184B
:103B000007000000C02020E0C0000000000080E0AE
:103B10001F38E88703C43C040000070F1810100B7F
:103B2000070D1010080000808C4C380000000000C9
:103B30000000000000000000000000000000000085
:103B40000000000000000000000000000000000075
:103B500080E0300804000000000000FEFF010000CB
:103B60000000000000000000030F182040000004C7
:103B70000830E0800000000000000000000001FFAD
:103B8000FE0000000000004020180F0300000000AD
:103B90000000000000000000C00000000000004223
:103BA00066663C18FF183C66664200000000000094
:103BB0000300000000000000000000008000000082
:103BC0000000001010101010FF1010101010000056
:103BD00000000000030000000000000000000000E2
:103BE00000000000000000000000000000000000D5
:103BF000000000808C4C3800000000000000000035
:103C00000000000000000000000000101010101064
:103C10001010101010000000000000000000000054
:103C20000000000000000000000000000000000094
:103C30000000000000000000000000001C1C1C0030
:103C40000000000000000000000000000000E0385C
:103C50000C000000000080701C03000000000060E9
:103C6000380E0100000000000000000080C060204D
:103C70002060C080000000FEFF010000000001FF86
:103C8000FE000001070E181010180E0701000000BA
:103C9000808080C0E000000000000000000000FF05
:103CA000FF000000000000001010101F1F10101077
:103CB00000000080402020202060C0800000000321
:103CC0000300804020381F070000001C1A19181834
:103CD0001818181F00000080C020202060C080003D
:103CE0000000000303001010182FE78000000007F9
:103CF0000F10101010180F07000000000000000047
:103D0000C0E0F000000000C0B088868180FFFF8026
:103D10008000000000000010101F1F1010000000A5
:103D2000E060606060606060000000003F100808B4
:103D30000818F0E0000000070B101010101C0F0313
:103D40000000000080C040202020E0C0000000FCF7
:103D5000FF211008080818F0E0000001070C1810F7
:103D60001010080F03000000C0E06060606060E0B9
:103D70006000000003000000E018070000000000E1
:103D80000000001F1F00000000000080C060202015
:103D9000202060C080000087EF2C1818303068CFDA
:103DA000830000070F0810101010180F0700000004
:103DB000C0C020202020C0800000001F3F60404085
:103DC000402010FFFE0000000C1C101010080F0314
:103DD00000000000000000000000000000000000E3
:103DE0000000000E0E0E0000000000000000001C8D
:103DF0001C1C00000000000000000000000000008B
:103E0000000000000000000C0C000000000000009A
:103E10000000005838000000000000000000000012
:103E200000804020100000001028448201000000A3
:103E30000000000000000000010204081000000063
:103E400000000000000000000000008484848484DE
:103E500084848484840000000000000000000000CE
:103E60000000000010204080000000000000000062
:103E70000000000001824428100000001008040225
:103E800001000000000000C020201010101030E0E1
:103E9000C0000003030000F010080C07030000003E
:103EA00000001C1C1C0000000000000000C040605E
:103EB00020202040C00000FCFF01F00E03C1FE03E3
:103EC000807F0001070E0811111011090402000083
:103ED000000080E0E000000000000000807C434023
:103EE000477FF880000010181F1000000000131F0B
:103EF0001C1020E0E02020202060C080000000FF97
:103F0000FF10101010182FE78000101F1F10101046
:103F10001010180F0700000080C0402020202060F3
:103F2000E00000FCFF0100000000000001000001B3
:103F3000070E181010100804030020E0E0202020D5
:103F40002040C080000000FFFF000000000001FFD3
:103F5000FE00101F1F10101018080E07010020E0AF
:103F6000E020202020202060800000FFFF101010A3
:103F7000107C00000000101F1F10101010101018EF
:103F8000060020E0E020202020206060800000FF6C
:103F9000FF101010107C00000100101F1F10000007
:103FA000000000000000000080C06020202040E0F1
:103FB000000000FCFF0100004040C0C14040000183
:103FC000070E181010100F0F000020E0E020000076
:103FD000000020E0E02000FFFF101010101010FF84
:103FE000FF00101F1F1000000000101F1F10000016
:103FF000202020E0E020202000000000000000FF42
:10400000FF000000000000001010101F1F10101013
:10401000000000000000202020E0E0202020000020
:104020000000000000FFFF0000000060E0808080D2
:10403000C07F3F00000020E0E020000020A06020C2
:10404000200000FFFF30187CE3C000000000101FBC
:104050001F10000001131F1C181020E0E0200000BA
:1040600000000000000000FFFF0000000000000052
:104070000000101F1F10101010101018060020E074
:10408000E0E000000000E0E0E02000FF013FFEC0B3
:10409000E01E01FFFF00101F1000031F0300101F90
:1040A0001F1020E0E0C0000000000020E02000FF22
:1040B0000003071C78E08000FF00101F10000000C4
:1040C0000000030F1F00000080C060202060C0803F
:1040D000000000FEFF010000000000FFFE000001E4
:1040E000070E181010180C07010020E0E020202017
:1040F000202060C0800000FFFF2020202020301FF3
:104100000F00101F1F100000000000000000000042
:1041100080C060202060C080000000FEFF01000021
:10412000000000FFFE000001070E1111133C7C6728
:10413000210020E0E0202020202060C0800000FF3F
:10414000FF101030F0D0080F0700101F1F100000E4
:1041500000030F1C10100080C06020202020404071
:10416000E00000070F0C1818303060E08100001FDD
:104170000C0810101010180F07008060202020E09D
:10418000E020202060800100000000FFFF00000010
:10419000000100000000101F1F100000000020E0C0
:1041A000E020000000000020E02000FFFF000000F1
:1041B00000000000FF0000070F181010101010087A
:1041C00007002060E0E02000000020E06020000008
:1041D000077FF88000807C03000000000000071FBC
:1041E0001C070000000020E0E02000E0E0200020AC
:1041F000E0200007FFF8E01FFFFCE01F00000000C8
:10420000031F0300011F03000000002060E0A00066
:104210000020E0602000000000038F7CF8C6010051
:1042200000000010181E130001171F181000206056
:10423000E0E02000000020E06020000001073EF8E0
:10424000E0180700000000000010101F1F101000F1
:10425000000000806020202020A0E0E0200000007E
:104260000000C0F03E0F0300000000101C1F1710DC
:104270001010101806000000000000FC04040404E4
:1042800004000000000000FF00000000000000002B
:104290000000007F404040404000000010E000006F
:1042A00000000000000000000000031C608000000F
:1042B000000000000000000000030C7080000000FF
:1042C0000404040404FC00000000000000000000DE
:1042D00000FF00000000000040404040407F000020
:1042E000000000000010080C040C08100000000082
:1042F00000000000000000000000000000000000BE
:1043000000000000000000000000000000000000AD
:10431000000000000000000000000000000080809D
:10432000808080808080808080800000000404087D
:104330000800000000000000000000000000000075
:10434000000000000000000000000000000000006D
:1043500000000000000000000000000098D8446445
:104360002424FCF80000000F1F18101010081F1F55
:1043700010180020E0F00000000000000000000025
:10438000FFFF180804040CF8F00000001F0F1810BD
:104390001010180F030000000000000000000000D3
:1043A000000000E0F8180404043C3800000000039A
:1043B0000F0C101010100806000000000000000094
:1043C0000020E0F0000000E0F81C04040408FFFFF7
:1043D000000000030F18101010081F0F0800000045
:1043E000000000000000000000000000E0F8484469
:1043F00044444C7870000000030F0C181010100893
:1044000004000000000080C0602020E0C000000424
:104410000404FFFF040404040000000010101F1F28
:10442000101010000000000000000000000000005C
:104430000000000070F88C04048CF874040C007008
:1044400076CF8D8D8D89C87870000020E0F0000057
:104450000000000000000000FFFF08040404FCF856
:10446000000000101F1F100000101F1F1000000090
:10447000000000606000000000000000040404FC74
:10448000FC000000000000001010101F1F10101092
:10449000000000000000000000606000000000005C
:1044A0000000040404FCFC0000000000C0C0808088
:1044B000C07F3F0000000020E0F00000000000008E
:1044C00000000000FFFF80C0F41C04040000001086
:1044D0001F1F1100031F1C1010000000202020E0EF
:1044E000F000000000000000000000FFFF000000DE
:1044F000000000001010101F1F101010000000001E
:104500000000000000000000000004FCFC0804FCA7
:10451000FC0804FCFC00101F1F10001F1F10001FD0
:104520001F10000000000000000000000000000458
:10453000FCFC08080404FCF8000000101F1F100019
:1045400000101F1F1000000000000000000000000D
:10455000000000E0F0180C04040C18F0E000000368
:104560000F0C101010100C0F0300000000000000D2
:104570000000000000000004FCFC080404040CF827
:10458000F0000080FFFF889010101C0F0300000057
:104590000000000000000000000000E0F81C04041F
:1045A0000408F8FC000000030F1810109088FFFFAB
:1045B0008000000000000000000000000000040473
:1045C00004FCFC100804040C0C001010101F1F1039
:1045D00010100000000000000000000000000000BB
:1045E000000000003078CCC48484840C1C000000DF
:1045F0001E1810101011190F06000000000000C056
:1046000000000000000000040404FFFF0404040094
:104610000000000000000F1F1010100C0000000030
:10462000000000000000000000000004FCFE00008C
:104630000004FCFE000000000F1F181010081F0FE0
:10464000080000000000000000000000000000045E
:104650000C3CFCC40000C43C0C0400000000010F32
:104660001E0E01000000000000000000000000001D
:104670000000043CFCC400E47CFC84807C0400005A
:10468000071F070000071F070000000000000000D0
:104690000000000000000004041C7CE4C0341C0482
:1046A00004000010101C1601131F1C18100000003D
:1046B0000000000000000000000000040C3CFCC4EE
:1046C00000C43C0404000000C080C1370E0100009B
:1046D00000000000000000000000000000000000DA
:1046E0001C0404C4F47C1C0400000000101C1F17F0
:1046F000111010180E0000000000000000F80C045B
:10470000000000000000001028EF00000000000082
:1047100000000000003F60400000000000000000BA
:10472000FF0000000000000000000000FF0000008B
:104730000000000000000000FF000000000000007A
:10474000040CF80000000000000000000000EF284A
:10475000100000000000000040603F00000000006A
:104760000000001806020204081020203008000093
:104770000000000000000000000000000000000039
:104780000000000000000000F010101010FF1010DA
:104790001010F000000000000F04040404FF0404E3
:1047A00004040F0000004040405F555555755555B5
:1047B000555F404040000040200F094989790909B0
:1047C000090F2040000000FE02424ACA4A4ACA4A73
:1047D0004A4202FE000000FF40504C4340404F5010
:1047E000505C40FF00000000F888888888FF8888B7
:1047F0008888F800000000001F080808087F8888E3
:1048000088889F80F00080828282828282E2A292E7
:104810008A8682808000000000000040807F0000C7
:10482000000000000000101010FF10900888888819
:10483000FF88888808000444827F01808040432CE0
:104840001028468180000010101010D030FF30D0AA
:10485000121C1010000010080402010000FF0000EC
:1048600001020408100004040484E43C27242424E6
:1048700024E40404040004020100FF0909090949B1
:10488000897F0000000000FE225A8600FE9292926C
:104890009292FE00000000FF04080700FF40200382
:1048A0000C142241400000804020180680000718A8
:1048B00020408000000001002070282621202024B4
:1048C00038600001010000101292929292929212AE
:1048D0001202FE0000000000003F101010103F0008
:1048E00040807F000000000000C0808080808080C9
:1048F00080FC84808080808080C0C0000000000038
:1049000000FF7F404040404040FF4040404040402A
:1049100040FF7F00000000000000000000000000D9
:10492000007F700000000000000000000000000098
:1049300000000000000000000000000000FCF80083
:104940000000000000000000000000000000000067
:104950000000FFFE020202020202020202FFFF0248
:104960000202020202020202FF0300000000000035
:1049700000001F1F040404040404040404FFFF04D3
:1049800004040404040404041F00000000000000E8
:10499000000000000000000000000000007F3F0059
:1049A0000000000000000000000000000000000007
:1049B00000000000000000000000000000000000F7
:1049C0000000000000000000000000F8F8F0F070A7
:1049D00020000000000000000000000000000000B7
:1049E00000000000000000000000000000000000C7
:1049F0000000000000008000000000000000000037
:104A00000000000000000000000000FFFFFFFF00AA
:104A10000000000000000000000000000000000096
:104A20000000808000000000000000000000000086
:104A300000000000000000FFFFFE06060606060656
:104A40000606060606060606060606FFFFFFFF0622
:104A500006060606060606060606060606060606F6
:104A600006FFFFFFFF07020000000000000000003B
:104A700000000000000000FFFFFF00000000000039
:104A80000000000000000000000000FFFFFFFF002A
:104A90000000000000000000000000000000000016
:104AA00000FFFFFFFF00000000000000000000000A
:104AB00000000000000000FFFFFF18181818181869
:104AC0001818181818181818181818FFFFFFFF18CA
:104AD0001818181818181818181818181818181856
:104AE00018FFFFFFFF0000000000000000000000B2
:104AF00000000000000002010100000000000000B2
:104B00000000000000000000000000FFFFFFFF00A9
:104B10000000000000000000000000000000000095
:104B20000001010000000000000000000000000083
:104B30000000000000000000000000000000000075
:104B40000000000000000000000000FFFFFFFF0069
:104B50000000000000000000000000000000000055
:104B60000000000000000000000000000000000045
:104B70000000000000000000000000000000000035
:104B800000000000000000000000001F1F0F0F00C9
:104B90000000000000000000000000000000000015
:104BA00000000000000000000000000000003031A4
:104BB0003233343536373839414243444546403044
:104BC00058003031323334353637383961626364F6
:104BD0006566403078000400000800000000000016
:104BE0000002000100001000084C00080000002036
:104BF0001800000028010008204C000818000020C0
:104C0000A00B0000440100080000000000000000AC
:104C100001000000100000000000000000127A00F7
:04000005080000ED02
:00000001FF
