:020000040800F2
:10000000A80F0020A5010008073E000839360008A7
:10001000053E0008990D000801520008000000008C
:10002000000000000000000000000000654A000819
:10003000130E000800000000DD420008674A0008B7
:10004000BF010008BF010008BF010008BF01000890
:10005000BF010008BF010008BF010008BF01000880
:10006000BF010008BF010008BF010008BF01000870
:10007000BF010008BF010008D10D0008DD0D000818
:10008000BF010008BF010008BF010008BF01000850
:10009000BF010008BF010008BF010008BF01000840
:1000A000BF010008BF010008BF010008BF01000830
:1000B000BF010008BF010008BF010008BF01000820
:1000C000BF010008BF010008BF0100083D4900084A
:1000D000BF010008FD500008BF010008555100088D
:1000E000BF010008BF010008BF01000800F002F8CE
:1000F00000F048F80AA090E8000C82448344AAF17A
:100100000107DA4501D100F03DF8AFF2090EBAE877
:100110000F0013F0010F18BFFB1A43F0010318473B
:10012000D87A0000F87A0000103A24BF78C878C165
:10013000FAD8520724BF30C830C144BF04680C60ED
:10014000704700000023002400250026103A28BF35
:1001500078C1FBD8520728BF30C148BF0B60704739
:10016000642900F0D580752900F0D280782900F04C
:100170000B81732900F08783002070471FB51FBDD6
:1001800010B510BD00F089FB1146FFF7F7FF05F031
:100190004FF800F0A7FB03B4FFF7F2FF03BC00F039
:1001A000ABFB00000948804709480047FEE7FEE72F
:1001B000FEE7FEE7FEE7FEE7FEE7FEE7FEE7FEE717
:1001C00004480549054A064B70470000C94A000823
:1001D000ED000008A8090020A80F0020A80B0020AF
:1001E000A80B0020B2F120030AD5C2F1200320FAA7
:1001F00002F001FA03F321FA02F140EA030070472A
:1002000021FA03F04FF00001704700000FB41CB555
:10021000084B06AA7B4469460090059800F001FB54
:1002200004460020694600F00FFB20461CBC5DF828
:1002300014FB0000310600000FB47CB50C0009AAC5
:10024000009001D02044401E084B7B446946019039
:10025000089800F0E6FA05461CB10020694600F057
:10026000F3FA28467CBC5DF814FB0000050600008C
:1002700070B5044685690068C10601D5302600E0E6
:100280002026C00707D070BDD4E901213046904731
:10029000206A401C20626D1EF6D570BD70B5044604
:1002A00085690078C00707D170BDD4E901212020FD
:1002B0009047206A401C20626D1EF6D570BD70B557
:1002C0000C460546012A05D02878800600D5EA6943
:1002D000002302E0012305E05B1C934202D2E05CB4
:1002E0000028F9D1A869E618C01AA861286A18443C
:1002F00028622846FFF7BCFF04E0D5E9012114F885
:10030000010B9047B442F8D32846FFF7C7FF70BDF2
:100310002DE9F0410646002410687529314616A5DE
:1003200010D0AFF30080002802DA404213A507E0A6
:1003300031688A0701D512A502E0490704D511A545
:10034000012401E0AFF3008000210A2206F1240716
:1003500009E0B0FBF2FCB0FBF2F302FB1C00303012
:1003600078541846491C0028F3D123462A463046C3
:10037000BDE8F04100F0F6B9000000002D000000DB
:100380002B0000002000000070B504460D462146F9
:100390001068AFF300802188090502D50F4A7A441E
:1003A00002E00E4A7A440E32002104F1240305E0F3
:1003B00000F00F060009965D5E54491C0028F7D135
:1003C00020780023000704D5702D02D009B1022344
:1003D00011322046BDE8704000F0C4B9A07700009B
:1003E0002DE9F05F894604464FF0000ADFF874B14A
:1003F000FB44C0F820A02046E1688847002874D05C
:10040000252806D0D4E901219047206A401C2062AB
:10041000F1E700265F462046E16888472028054628
:1004200007DB312D05D2781910F8200C08B10643EE
:10043000F1E7B00701D526F00406C4F81CA0002798
:10044000C4F818A02A2D09D0284604F0EAFE38B3D3
:1004500004EB8708303DC8F8185019E059F8041B20
:10046000204604EB87029161E1688847012F054629
:1004700018D1E069002820DA26F020061DE0D8F81F
:10048000180000EB800005EB40003038C8F8180079
:100490002046E1688847054604F0C3FE0028EED1F7
:1004A000012F0AD02E2D08D12046E16888477F1CF5
:1004B0000546022F46F02006C4DBA069002803DAB7
:1004C000404246F00106A061F00701D026F0100678
:1004D0006C2D0BD0682D09D04C2D39D06A2D35D01C
:1004E000742D35D07A2D33D016E038E0E1682F46F0
:1004F00020468847B842054609D16C2F26D04FF4D4
:100500008060E168064320468847054604E06C2F7A
:100510001AD04FF4807006430DB3A5F1410019289D
:1005200002D8203546F400664A4629462046266011
:100530004E46FFF715FE80B101280BD0F61D26F0C0
:10054000070000F1080956E74020E4E78020D8E7DB
:100550000020D6E706F104094DE7284652E7206A55
:10056000BDE8F09F76770000401ECAB210F8011F68
:100570008A4202D00029F9D10020704730B50546E3
:100580000B462A4613F8014B12F8010B08B1A042A2
:10059000F8D01CB1002802D06D1CF1E7284630BD10
:1005A00010B5431C02E010F8011B71B18107FAD1AC
:1005B0004FF0013202C88C1A8C4314EAC211F9D0F0
:1005C000C01A0A0603D0C01E10BDC01A10BD0A040E
:1005D00001D0801E10BD0902FCD0401E10BD032AB0
:1005E00040F2308010F0030C00F0158011F8013B50
:1005F000BCF1020F624498BF11F801CB00F8013B37
:1006000038BF11F8013BA2F1040298BF00F801CBFA
:1006100038BF00F8013B11F0030300F02580083AD1
:10062000C0F0088051F8043B083A51F804CBA0E828
:100630000810F5E7121D5CBF51F8043B40F8043B7D
:10064000AFF30080D20724BF11F8013B11F801CBB2
:1006500048BF11F8012B24BF00F8013B00F801CB83
:1006600048BF00F8012B704710B5203AC0F00B804E
:10067000B1E81850203AA0E81850B1E81850A0E8A6
:100680001850BFF4F5AF5FEA027C24BFB1E8185000
:10069000A0E8185044BF18C918C0BDE810405FEA70
:1006A000827C24BF51F8043B40F8043B08BF7047EC
:1006B000D20728BF31F8023B48BF11F8012B28BFF1
:1006C00020F8023B48BF00F8012B70474FF00002B2
:1006D0000429C0F0128010F0030C00F01B80CCF154
:1006E000040CBCF1020F18BF00F8012BA8BF20F8C2
:1006F000022BA1EB0C0100F00DB85FEAC17C24BF16
:1007000000F8012B00F8012B48BF00F8012B7047BF
:100710004FF0000200B5134694469646203922BF9A
:10072000A0E80C50A0E80C50B1F12001BFF4F7AFE5
:10073000090728BFA0E80C5048BF0CC05DF804EBC7
:10074000890028BF40F8042B08BF704748BF20F835
:10075000022B11F0804F18BF00F8012B7047704733
:10076000704770472DE9F0470D469946924604467A
:1007700000F124080168880604D5E06921F0100121
:10078000216000E00120A84201DD471B00E00027B6
:10079000A1697A1902EB0900081AA0612078C00645
:1007A00002D42046FFF764FD002608E0D4E90121C9
:1007B0001AF806009047206A401C761C20624E45BD
:1007C000F4DB2078C0060AD52046FFF751FD06E08D
:1007D000D4E9012130209047206A401C2062381E55
:1007E000A7F10107F4DC07E0D4E9012118F80500BE
:1007F0009047206A401C2062281EA5F10105F3DC09
:100800002046FFF74BFD2078000602D50220BDE808
:10081000F0870120FBE7000001694A1C02610878AB
:10082000704700B58FB0CDE9013100210591054930
:100830007944CDE9031011466846FFF7D1FD0FB0AA
:1008400000BD0000E5FFFFFF0A6802F8010B0A6027
:100850007047D1E900239A4202D2531C0B601070FA
:10086000704710B5436913B1AFF3008001E0FFF7A3
:1008700026FD012010BD127800F124010A7000222B
:100880004A700122EDE711684FF0FF32E9E70000FE
:10089000004870474809002070477546FFF7F8FF89
:1008A000AE4605006946534620F00700854618B05D
:1008B00020B5FFF785FCBDE820404FF000064FF063
:1008C00000074FF000084FF0000B21F00701AC4685
:1008D000ACE8C009ACE8C009ACE8C009ACE8C009A4
:1008E0008D46704710B50446AFF300802046BDE842
:1008F0001040FFF750BC000001491820ABBEFEE7D6
:100900002600020000B58BB0020A8DF824208DF875
:100910002500080A8DF826000AA88DF827100090F7
:1009200001AB042209A90C2000F03CF938B9BDF84C
:1009300028000B2803D39DF80D000BB000BDFF204D
:10094000FBE700B58BB001AB8DF824000AA800903E
:10095000012209A9022000F025F938B9BDF82800C4
:100960000B2803D39DF80D000BB000BDFF20FBE763
:1009700000B58BB009A80022009001AB1146012000
:1009800000F010F938B9BDF824000B2803D39DF806
:100990000D000BB000BDFF20FBE70000F0B58BB0F1
:1009A000064600244FF49675304600F055F90028AD
:1009B00020D0284601F078FC641CE4B2032CF3D369
:1009C000002401AF002202AB11464020009700F046
:1009D000E9F888B9BDF804000F280DD3DDF812003E
:1009E0009DF8151000BA20F0FF0008430749306059
:1009F000486000200BB0F0BD284601F055FC641C97
:100A0000E4B2022CDED3FF20F4E70000280000202F
:100A100010B503F013F84FF47A7001F045FC642030
:100A200001F042FC4FF4FA74204601F03DFC2046F0
:100A3000BDE8104001F038BC00B58BB001AB8DF8BB
:100A40002400080A8DF825000AA88DF826100090C9
:100A5000032209A9072000F0A5F838B9BDF828003D
:100A60000B2803D39DF80D000BB000BDFF20FBE762
:100A700010B58AB0044609A80022009001AB1146C7
:100A8000032000F08FF810B1FF200AB010BDBDF8B0
:100A900024000D2802D39DF80D0010B19DF80D0023
:100AA000F3E7BDF80E0040BA20800020EDE700001B
:100AB0002DE9F0478946824601F0B4FD154C002629
:100AC00005462680DFF8508041F288371AE02088FA
:100AD000A8B12088092812D3B8F80700218840BAA5
:100AE000093081420BD322880B495046FFF777FD2E
:100AF0002188A9F8001026800020BDE8F087012099
:100B000001F0D2FB01F08EFD401BB842DFD32680FE
:100B1000FF20F2E7280000204806002000B58BB037
:100B200009A80022009001AB1146052000F03AF818
:100B300038B9BDF824000B2803D39DF80D000BB085
:100B400000BDFF20FBE730B58DB01C46109D8DF831
:100B50000400080A8DF805008DF80610100A8DF8BB
:100B600007000BA88DF80820009003AB052201A90F
:100B7000042000F017F890B9BDF82C000F280ED310
:100B80009DF8150038B9BDF8160040BA2080BDF8B0
:100B9000180040BA28809DF815000DB030BDFF2028
:100BA000FBE70000F0B5C1B0140002464FF0EF00C3
:100BB000469F8DF800001E4625484FF001038DF832
:100BC000013040686D464FEA106C8DF802C04FEA64
:100BD000104C8DF803C04FEA102C8DF804C08DF82E
:100BE000050004F103008DF806304FEA10238DF85C
:100BF00008008DF807308DF809204FF00A0006D064
:100C000005F10A002246FFF7EAFC0A34A0B20022EE
:100C1000062104E06B5C491C1A4492B289B28142FD
:100C2000F8D3110A2954401C80B241F288332A5467
:100C3000401C82B26946074802F0ADFC36B12FB1C4
:100C400039463046FFF734FF41B0F0BD0020FBE7E6
:100C500028000020D40000202DE9FE43814601F049
:100C6000E1FC0646EF20284C8DF8000001218DF8AC
:100C700001106068020E8DF80220020C8DF803202E
:100C8000020A8DF804208DF8050000258DF8061065
:100C90008DF807508DF80850258041F288373B4683
:100CA00009226946194802F076FCC82001F0FCFAD6
:100CB000DFF85C8011E0208809280BD398F8001039
:100CC0004046EF2906D14178012903D198F8060062
:100CD00007280BD0012001F0E7FA01F0A3FC801BEC
:100CE000B842E8D32580FF20BDE8FE83D8F8020093
:100CF00098F8051000BA20F0FF000843C9F800007A
:100D0000606025800020EFE728000020D40000204C
:100D10004806002000B58BB001AB8DF82400080A0E
:100D20008DF825000AA88DF826100090032209A945
:100D30000620FFF737FF38B9BDF828000B2803D38A
:100D40009DF80D000BB000BDFF20FBE738B50C4649
:100D50000546FFF70DFE00280CD10120FFF7F1FD3D
:100D6000002807D12B464FF49672002101200094F1
:100D7000FFF7E9FE38BD000001221103014801F030
:100D80004CBC0000000C014000224FF4805101488F
:100D900001F043BC000C0140FEE7000008B5094922
:100DA00000200823C8600861486148710120009054
:100DB00005A21946202003F073F9BDE8084003F0AE
:100DC000D7B80000000000202020202000000000F4
:100DD000014801F059B9000060010020014801F00C
:100DE00053B900001C01002030B590F84050012498
:100DF000AC40C56B6C60046863604368102B03688B
:100E000003D099600068C26030BD9A600068C1601C
:100E100030BD70472DE9F043002689B03546ADF866
:100E20000460ADF818604FF4FA784FF4FA694FF4A3
:100E30007A77012400210823ABA20846009403F02E
:100E40002FF90823A8A219460020009403F028F9DE
:100E50000823A5A210210020009403F021F9082303
:100E6000A1A218210020009403F01AF903F080F8E1
:100E7000404601F019FA761C0021F6B208239FA221
:100E80000846009403F00CF90823A0A2194600209C
:100E9000009403F005F908239FA21021002000947C
:100EA00003F0FEF8082390A218210020009403F01C
:100EB000F7F803F05DF8384601F0F6F9FFF758FD52
:100EC00038B10520B6FBF0F100FB116000284DD0D1
:100ED00061E00120FFF735FD4FF00803009450B1A9
:100EE00090A21821002003F0DBF803F041F84846F7
:100EF00001F0DAF94FE090A21021002003F0D0F8C1
:100F000003F036F840F2DC56304601F0CDF96420AB
:100F100001F0CAF908238DA210210020009403F0EB
:100F2000BFF8082370A218210020009403F0B8F83D
:100F300003F01EF8384601F0B7F906A84FF496788A
:100F4000009001AB424600210120FFF7FCFD30B3C9
:100F500009284FF00803009454D081A218210020E2
:100F600003F09EF803F004F84846AEE0082381A29F
:100F700018210020009403F093F802F0F9FF38469E
:100F800001F092F9082358A218210020009403F0E0
:100F900087F802F0EDFF642001F086F94AE7BDF81A
:100FA000042079A102A8FFF731F9082302AA102131
:100FB0000020009403F074F802F0DAFF304601F0EC
:100FC00073F9642001F070F9082374A21021002045
:100FD000009403F065F8082343A218210020009430
:100FE00003F05EF802F0C4FF384601F05DF901211C
:100FF000BDF80400FFF786FC4FF00803009418B119
:101000006BA2ABE76FA2A9E737A21021002003F083
:1010100047F8082334A218210020009403F040F878
:1010200002F0A6FF002108236BA20846009403F0FB
:1010300037F8BDF804206DA102A8FFF7E7F80823F0
:1010400002AA19460020009403F02AF808236CA293
:1010500010210020009403F023F8082322A2182175
:101060000020009403F01CF802F082FF384601F0E3
:101070001BF9082367A210210020009403F010F848
:1010800002F076FF384601F00FF9FFF771FCF0B976
:101090000120FFF756FCD0B908A80090ADF81C500D
:1010A000ADF8205007AB424600210120FFF74BFD71
:1010B00009284FF00803009414D03DA2102100200D
:1010C00002F0EEFF02F054FF304601F0EDF802F0BE
:1010D0009BFE02F04DFF04F0F5FD5348057009B08A
:1010E000BDE8F08351A2E9E7202020202020202025
:1010F000202020202020202000000000506C616370
:10110000652066696E67657200000000746F206478
:10111000656C6574650000005363616E2066696EDE
:101120006765720047656E206661696C65642120A1
:10113000202020202000000046696E676572207321
:1011400063616E6E6564212020000000536561724A
:101150006368696E672E2E2E20202020200000005C
:10116000536561726368206661696C656421202043
:10117000200000004E6F2066696E67657221202096
:101180002020202020000000466F756E6420494416
:101190003A256420202020202020000044656C6532
:1011A00074696E672E2E2E20202020202000000043
:1011B00044656C657465206661696C6564212020F6
:1011C000200000004E6F7420666F756E6421202031
:1011D000202020202000000044656C657465642197
:1011E00020202020202020202000000049443A25F3
:1011F000642020202020202020202020200000000B
:1012000053756363657373212020202020202020E4
:1012100020000000566572696679696E672E2E2E71
:1012200020202020200000000000002044656C6584
:10123000746520636F6E6669726D656421000000DD
:1012400010B54FF400710348FFF740FA024900203F
:10125000088010BD48070020300000202DE9F04F25
:10126000ADF22C4D664967A0CDE9000168A36AA2E2
:101270004FF4007102A8FEF7DFFF72A00124CDE950
:101280000040002108237AA2084602F009FF02F07C
:101290006FFE0025DFF8EC91A8466B1C7AA2202196
:1012A0000DF58160FEF7C8FF08230DF58162194630
:1012B0000020009402F0F4FE02F05AFEFFF7C0FF97
:1012C0004FF47A7000F0F0FF02A8FFF769F982B2DC
:1012D00041F2883302A96F4802F05DF940F2DC5018
:1012E00000F0E2FF42F20F764FF0000A0DF5027BAC
:1012F000B9F800004F4668B34FF4967000F0D4FF81
:101300003F88B7F5007F01D340F2FF173A466249A4
:1013100082A8FFF764F90BF807A060A182A8FFF785
:101320002DF968B14FF00108FFF78AFF08235CA28E
:1013300010210020009402F0B3FE02F019FE1DE01F
:101340005AA182A8FFF71AF910B1FFF779FF07E059
:10135000FFF776FF0A2000F0A7FF761EB6B2C7D2CD
:10136000082354A210210020009402F099FE02F0FC
:10137000FFFD40F6B8306D1C00F096FF0A2D03DA31
:10138000B8F1000F89D002E0B8F1000F26D0082391
:101390004CA218210020009402F082FE02F0E8FD29
:1013A00001234DA2202182A8FEF746FF082382AA2E
:1013B00020210020009402F073FE02F0D9FD019874
:1013C000FFF7EEF882B241F288333248019902F019
:1013D000E2F801200DF22C4DBDE8F08F082342A267
:1013E00018210020009402F05BFE02F0C1FD4FF4D2
:1013F0007A7000F059FF02F007FD0020EAE70000D4
:101400007C7B00086455356A5667314C39620000B0
:10141000746573740000000041542B4D51545455B1
:101420005345524346473D302C312C222573222C04
:10143000222573222C222573222C302C302C2222A0
:101440000D0A000041542B4D515454434F4E4E3D14
:10145000302C226D717474732E6865636C6F7564C3
:10146000732E636F6D222C313838332C310D0A0006
:10147000436F6E6E656374696E6720436C6F75644D
:101480002E2E2E00300000205472793A2025642F31
:10149000313000008C000020480700204F4B000036
:1014A0005573657220636667204F4B004552524F5B
:1014B000520000005573657220636667206661699B
:1014C0006C656400436F6E6E656374696E67204D72
:1014D0005154542E2E2E0000436F6E6E205472799C
:1014E0003A2025642F350000436C6F756420636FCC
:1014F0006E6E656374206661696C6564000000004F
:1015000030B5A1B01CA000901EA323A2802101A889
:10151000FEF792FE01240021082325A2084600942C
:1015200002F0BEFD02F024FD26A101A800F076FB2A
:101530004FF4FA754FF00803009470B123A208210C
:10154000002002F0ADFD02F013FD284600F0ACFED5
:1015500002F05AFC012021B030BD20A20821002059
:1015600002F09EFD02F004FD284600F09DFE02F010
:101570004BFC0020EFE70000313338353139303192
:1015800038323500434D43432D3430322D322E3422
:10159000472D65787400000041542B43574A415051
:1015A0003D222573222C222573220D0A0000000003
:1015B000436F6E6E656374696E6720576946692E66
:1015C0002E2E0000474F54204950000057694669AD
:1015D00020636F6E6E6563746564000057694669C9
:1015E00020636F6E6E656374206661696C6564006C
:1015F000F8B502F009FC01240021082343A20846A3
:10160000009402F04DFD02F0B3FC4FF4FA76304640
:1016100000F04AFE40F2FF124049414801F060FFED
:10162000082340A219460020009402F039FD02F080
:101630009FFC40A140A000F0F1FA4FF00803009495
:1016400008B13FA200E041A20821002002F028FDDD
:10165000304600F029FE02F08BFC08233FA2102147
:101660000020009402F01CFD02F082FC002531A154
:101670003FA000F0D3FA38B108233FA21021002088
:10168000009402F00DFD05E0C82000F00DFE6D1C79
:10169000032DECDB02F06CFC08233BA21821002098
:1016A000009402F0FDFC02F063FC22A13BA000F0DC
:1016B000B5FA4FF00803009408B13CA200E03FA245
:1016C0001821002002F0ECFC304600F0EDFD02F0A5
:1016D0004FFC18A13EA000F0A1FA4FF008030094BF
:1016E00008B13FA200E042A22021002002F0D8FC75
:1016F000304600F0D9FD02F03BFC4FF4FA6000F0F8
:10170000D3FDBDE8F84002F07FBB000045535038E0
:1017100032363620496E69742E2E2E00480700207E
:101720008C00002054657374696E672041542E2E1E
:101730002E0000004F4B000041540D0A0000000035
:1017400041542074657374204F4B00004154207441
:10175000657374206661696C656400004469736137
:10176000626C696E67206563686F2E2E2E00000024
:10177000415445300D0A00004563686F2064697369
:1017800061626C656400000053657474696E672063
:1017900053746174696F6E2E2E2E000041542B43DA
:1017A000574D4F44453D310D0A000000537461749C
:1017B000696F6E206D6F6465204F4B0053746174C8
:1017C000696F6E206D6F6465206661696C65640089
:1017D00041542B4357444843503D312C310D0A00AE
:1017E0004448435020656E61626C656400000000EF
:1017F0005365742044484350206661696C656400F9
:101800002DE9F04FADF20C4D002848D0002946D00C
:101810008DE80E0003464FF4007422A2214603A86F
:10182000FEF70AFDFFF70CFD03A8FEF7B9FE82B232
:101830004FF47A6303A9234801F0ADFE00F0F2FEF5
:101840000546214EA14640F2FF1B4FF000080DF562
:10185000037A4FF4FA771DE03488C4B14C4500D3C5
:101860005C462246194983A8FEF7B9FE0AF80480AF
:1018700017A183A8FEF782FE20B101200DF20C4DC6
:10188000BDE8F08F13A183A8FEF778FE38B90120D8
:1018900000F00AFD00F0C6FE401BB842DCD3002079
:1018A000ECE7000041542B4D5154545055423D300B
:1018B0002C222573222C222573222C25642C2564AE
:1018C0000D0A00008C000020300000204807002096
:1018D0004F4B00004552524F5200000070B5DAB035
:1018E0000D460646034600913DA24FF4807101A8C3
:1018F000FEF7A2FC0124002108233FA20846009421
:1019000002F0CEFB334640A2402141A8FEF794FCF2
:10191000082341AA19460020009402F0C1FB2B467F
:101920003CA2202151A8FEF787FC082351AA1021D0
:101930000020009402F0B4FB02F01AFB37A101A8CA
:1019400000F06CF94FF47A754FF00803009410B171
:1019500033A2182121E036A21821002002F0A0FBBA
:10196000082338A220210020009402F099FB02F005
:10197000FFFAC82000F098FC28A101A800F04EF959
:101980004FF008030094A8B125A21821002002F00E
:1019900087FB08232EA220210094002002F080FB68
:1019A00002F0E6FA284600F07FFC02F02DFA012052
:1019B0005AB070BD1EA21821002002F071FB08234E
:1019C00027A220210020009402F06AFB02F0D0FA46
:1019D000284600F069FC02F017FA0020E8E7000052
:1019E00041542B4D5154545355423D302C222573B4
:1019F000222C25640D0A00005375627363726962BC
:101A0000696E672E2E2E0000546F7069633A202590
:101A100073000000516F533A202564004F4B0000C3
:101A2000537562736372696265204F4B000000005A
:101A3000537562736372696265206661696C65647F
:101A4000000000005265747279696E672E2E2E00B8
:101A50005265747279207375636365737300000057
:101A60005265747279206661696C656400000000DB
:101A7000F0B5394FADF2944D38884FF4FF75A84258
:101A800003D83E88002E63D001E040F2FF163246B4
:101A9000324980A8FEF7A3FD00243C802F4830A1E6
:101AA000047080A88455FEF769FD002850D07B2182
:101AB00080A8FEF759FD00284AD0002211466E4644
:101AC0000BE07B2B02D07D2B02D002E0521C00E009
:101AD000521E7354401C491C1AB103780BB1A94221
:101AE000EFDD7454002933D021A13046FEF746FDC6
:101AF00038B102F01BFF41F2883000F0D5FB02F054
:101B00000DFF1EA16846FEF739FD88B1861D222112
:101B10003046FEF729FD05000AD02C70334619A285
:101B200080210DF58060FEF787FB2220287008E0F9
:101B300000F078FD034620A280210DF58060FEF7BD
:101B40007BFB00231A460DF5806128A0FFF758FEA5
:101B50000DF2944DF0BD0000300000204807002039
:101B60002B4D5154545355425245435600000000EA
:101B70002253455431223A747275650022696422F9
:101B80003A2200007B226964223A222573222C2209
:101B9000636F6465223A3230302C226461746122B2
:101BA0003A6E756C6C2C226D7367223A22737563E2
:101BB00063657373227D00007B226964223A2225CB
:101BC0006C75222C22636F6465223A3230302C22ED
:101BD00064617461223A6E756C6C2C226D7367229D
:101BE0003A2273756363657373227D00247379737E
:101BF0002F6455356A5667314C39622F746573749A
:101C00002F7468696E672F70726F70657274792FA8
:101C10007365745F7265706C790000002DE9F04F98
:101C2000ADF5017D8B4604464EF66025FFF708FBB7
:101C30002046FEF7B5FC82B2C8232146214801F0B8
:101C4000AAFC322000F030FB1F4F4FF4007940F225
:101C5000FF180026EA4623E03888F0B1C82000F0DB
:101C600023FB3C884C4500D344462246174968462E
:101C7000FEF7B5FC0AF80460BBF100000BD001468A
:101C80006846FEF77BFC30B1FFF7DAFA01200DF56C
:101C9000017DBDE8F08FFFF7D3FA0A2000F004FBC6
:101CA0006D1EADB2D8D23C884C4500D34446224686
:101CB00006496846FEF793FC0DF80460FFF7C0FA8A
:101CC0000020E4E78C0000203000002048070020BE
:101CD00072B6FEE706490020C8610648016941F076
:101CE00004010161016941F0400101617047000098
:101CF000A801002000200240064A0021D1610649C7
:101D00000A6942F002020A614861086940F0400035
:101D100008617047A801002000200240044B002207
:101D2000DA61044A136943F00103136101807047CB
:101D3000A80100200020024014480022C168CB0600
:101D4000134904D5CA6942F00202CA611022C3686D
:101D50005B0705D5CB6943F00103CB6142F0040278
:101D6000C369DB0707D0CB6943F00403CB61C169CA
:101D700021F00101C161A2F58071013901D0C26079
:101D80007047C16921F00101C16170470020024024
:101D9000A801002070B5054600F044FC0646114C31
:101DA00009E0681C07D025B100F03CFC801BA8426C
:101DB00001D9032070BDE068C007F2D1E068800659
:101DC00001D52020E060E068C00605D4E069C007C6
:101DD00002D1E068400703D5FFF7AEFF012070BDD8
:101DE000002070BD0020024030B58BB0040005D04B
:101DF000684600F04FF800216A460BE003200BB064
:101E000030BD00BF52F82130A34201D10220F6E7D5
:101E1000491CC9B28142F5D30A2801D30120EEE75B
:101E2000054600F0F1FA0648224600EB8501002342
:101E3000022000F0A9FA00F09DFA0020DFE7000080
:101E400000F4010810B5114C86B02068401C1AD16E
:101E500000F0DAFA002000900120CDE9024004A948
:101E6000684600F033FA30B94FF030320023214693
:101E7000022000F089FA0648029004A9684600F0A2
:101E800025FA00F077FA06B010BD000000F0010856
:101E900000F4010830B503460020094C014600BF9C
:101EA00004EB8102D2F80024551C03D043F8202013
:101EB000401CC0B2491CC9B20A29F1D330BD000090
:101EC00000F00108044909680A0E02700A0C427009
:101ED0000A0A8270C170704700F00108F0B58FB037
:101EE000050005D06846FFF7D5FF00216C460DE0E0
:101EF00002200FB0F0BD00BF54F82120AA4203D148
:101F00000A2905D0461E0CE0491CC9B28142F3D310
:101F10000120EEE704EB8100406844F82100491CF1
:101F2000C9B2B142F6DB00F06FFA00200A900D4F03
:101F30000120CDE90C700EA90AA800F0C7F9002510
:101F40000AE000BF54F8252007EB8501002302209A
:101F500000F01AFA6D1CEDB2B542F3DB00F00AFA9C
:101F60000020C6E700F4010830B585B0044600F053
:101F70004BFA002000900B4D0120CDE9025004A93E
:101F8000684600F0A3F92068002300BA20F0FF02A1
:101F9000E07829460243022000F0F6F900F0EAF961
:101FA00005B030BD00F0010810B590F821100022F6
:101FB000022905D00421816380F82020012010BD72
:101FC00001680B6823F00E030B6001680B6823F0B7
:101FD00001030B6090F84030C46B012101FA03F358
:101FE000636080F8211080F82020104610BD0000AA
:101FF00010B590F821100024022903D00421816338
:1020000001243DE001680A6822F00E020A600168BE
:102010000A6822F001020A601A4A0168914201D15D
:10202000012121E0174A1432914201D110211BE015
:10203000144A2832914201D1891515E0114A3C32E7
:10204000914201D189140FE00E4A5032914202D1DF
:102050004FF4803108E00B4A6432914202D14FF4D0
:10206000801101E04FF08071064A083A5160012169
:1020700080F82110002180F82010416B01B18847C1
:10208000204610BD080002402DE9F05FC16B0C68CE
:1020900001680B68D0F840C0042202FA0CF2494DE6
:1020A000DFF824A1494E4A4FDFF828B1DFF828E1D4
:1020B00022422CD05A072AD50A68920603D40A680D
:1020C00022F004020A600168A94201D1042219E049
:1020D000514501D1402215E0B14202D14FF4806256
:1020E00010E0B94202D14FF480420BE0594502D1D1
:1020F0004FF4802206E0714502D14FF4800201E0E6
:102100004FF080622F4908394A60C16A3BE04FF0C6
:10211000020808FA0CF818EA040F4FF000094FF013
:10212000010235D05FEA837832D50B689B0605D46F
:102130000B6823F00A030B6080F821200168A94294
:1021400001D1022219E0514501D1202215E0B1420E
:1021500002D14FF4007210E0B94202D14FF40052A4
:102160000BE0594502D14FF4003206E0714502D12F
:102170004FF4001201E04FF00072124908394A6032
:1021800080F82090816A00291AD0BDE8F05F0847E6
:10219000082505FA0CF5254212D01B0710D50B684F
:1021A00023F00E030B6090F84010C36B02FA01F1AC
:1021B0005960826380F8212080F82090016BE2E76B
:1021C000BDE8F09F080002401C00024030000240C1
:1021D00044000240580002406C00024030B528B371
:1021E00008C8134914221944B1FBF2F18900C163F4
:1021F00010498163022141771A6843F6F0718A43DE
:10220000D0E900142143D0E902452C43214304695D
:10221000214344692143846921431143196000210A
:102220004163012242770177084630BD012030BD6D
:10223000F8FFFDBF0000024070B5044690F8200092
:10224000002501280CD0012084F8200094F821609A
:102250000020012E06D084F820000225284670BDFB
:10226000022070BD022684F82160A0632068066801
:1022700026F0010606602046FEF7B6FDE06A00285B
:102280002068016802D041F00E0106E021F004014F
:1022900001602068016841F00A010160206801685E
:1022A00041F001010160D9E770B5044600F0BAF9C8
:1022B0000546601C02D004480078044400F0B2F9DE
:1022C000401BA042FAD370BD180000202DE9F04752
:1022D000054626480F460126017E01290FD001211F
:1022E000814601762868DFF888804CF25034022855
:1022F00008D0A2462046FFF74DFDA8B131E00220EC
:10230000BDE8F0872046FFF745FD08BB0120FFF739
:10231000E1FC2046FFF73EFDD8F81010064621F0FC
:102320000401C8F810101CE04FF0FF303860AC68B2
:1023300011E02046FFF7E0FC5046FFF72BFDD8F8F0
:102340001010060021F00201C8F8101001D03C6006
:1023500007E004F58064D5E9020100EB8120A0428A
:10236000E7D8002189F818103046C9E7A8010020F5
:10237000002002400348016941F080010161002012
:1023800070470000002002402DE9F05F07461C481E
:1023900088460024017E15461E46012909D00121E8
:1023A000814601764CF2503A5046FFF7F3FC18B1E3
:1023B00022E00220BDE8F09F012F02D0022F00D0C2
:1023C0000427D346DFF83CA0220128463146FDF71A
:1023D00009FF81B208EB4400FFF7A0FC5846FFF765
:1023E000D9FCDAF8102022F00102CAF8102018B93E
:1023F000641CE4B2BC42E7D3002289F81820D9E774
:10240000A801002000200240064900200A691206A7
:1024100007D5054A4A60054A4A600969090600D598
:10242000012070470020024023016745AB89EFCDB2
:102430002DE9F84FDFF8B8910024A9F1040B2346E9
:102440000F2709F1040AABF1040EC9E00125A540EC
:102450002A40AA427DD1674ED1F804C0ACEB0608F1
:10246000B44532D014DCBCF1030F3AD009DCBCF126
:10247000000F2AD0BCF1010F1CD0BCF1020F31D1EA
:102480001DE0BCF1110F17D0BCF1120F2AD119E0D9
:10249000B8F5881F19D006DCB8F5803F15D0B8F51F
:1024A000801F1FD111E0B8F5001F0ED0B8F5041F32
:1024B00018D10AE0CB6815E0CB681B1D12E0CB6891
:1024C00008330FE0CB680C330CE08B682BB1012B89
:1024D0004FF0080303D0456104E0042302E00561E6
:1024E00000E00023FF2A01D8064601E000F10406BF
:1024F0004FEA840501D9A5F12005D6F8008007FA36
:1025000005FC28EA0C0803FA05F548EA0508C6F8B0
:1025100000804D68ED0062D5374DAE6946F001068A
:10252000AE61AD6924F0030605F001050095334D59
:1025300006EB050CDCF80850A607360F07FA06F87C
:1025400025EA0805DFF8B880404503D14FF00008C0
:1025500017E044E0DFF8AC80404502D14FF00108BD
:102560000FE0DFF8A480404502D14FF0020808E0F8
:10257000DFF89880404502D14FF0030801E04FF0AA
:10258000040808FA06F848EA0508CCF808804D68FF
:10259000D9F80060ED024D4601D5164300E09643A0
:1025A0002E604D68DAF80060AD02554601D516433D
:1025B00000E096432E604D68DBF80060AD035D4699
:1025C00001D5164300E096432E604D68DEF80060AA
:1025D000ED03754601D5164300E096432E60641C5A
:1025E0000D682A46E5407FF431AFBDE8F88F000062
:1025F00008040140000011100010024000000140DA
:1026000000080140000C014000100140001401408E
:102610008068084000D0012070470AB1016170470E
:102620000904FBE70148806870470000180000209B
:1026300002488168027811448160704718000020C8
:10264000074810B5016841F010010160032000F057
:1026500075F80F2000F006F800F024F8002010BDF7
:102660000020024070B50D4D04464FF47A71287871
:10267000B1FBF0F00A490968B1FBF0F000F0E0FCB2
:1026800048B9102C07D200222146501E00F036F81F
:1026900000206C6070BD012070BD0000180000209B
:1026A000240000200C4808B5816941F001018161D6
:1026B000816901F001010091C16941F08051C1615E
:1026C000C06900F0805000900448416821F0E0614A
:1026D00041F00071416008BD00100240000001405F
:1026E000002809DB00F01F02012191404009800011
:1026F00000F1E020C0F8001170470000F0B40E4B6C
:102700001B680C46C3F30223C3F10705042D00D94F
:102710000425191D072901D2002300E0DB1E012634
:1027200006FA05F1491E214099409E40761E16404A
:102730003143F0BC02F065BD0CED00E0064900F04D
:10274000070208684FF6FF03184040EA0220034AD8
:1027500010430860704700000CED00E00000FA052F
:102760002DE9F0470F46050061D0434E306800F078
:102770000700B84209D2306820F0070038433060C3
:10278000306800F00700B84251D128683B4C8107FF
:1027900012D5400703D5606840F4E0606060287897
:1027A000000703D5606840F4605060606068A96805
:1027B00020F0F000084360602878C00728D06868DF
:1027C000012810D02168022810D0890700292EDAAC
:1027D000616821F0030101436160FFF723FF804638
:1027E00041F288390DE021688903EFE78901EDE7BF
:1027F000FFF718FFA0EB0801494502D90320BDE807
:10280000F0876068696800F00C00B0EB810FEFD1D1
:10281000306800F00700B8420BD9306820F007009C
:1028200038433060306800F00700B84201D0012022
:10283000E5E72878400705D56068E96820F4E0609E
:10284000084360602878000706D56068296920F48D
:10285000605040EAC100606000F038F86168084AE2
:10286000C1F30311515CC84006490860064800687E
:10287000FFF7F8FE0020C2E70020024000100240EF
:102880001A5D0008240000201C00002004480549AF
:1028900000684968044AC1F30221515CC84070478E
:1028A00024000020001002402A5D00080448054969
:1028B00000684968044AC1F3C221515CC8407047AE
:1028C00024000020001002402A5D00080E4A5168D2
:1028D0000E4801F00C03042B11D0082B0FD10C482B
:1028E000C1F38343C903C05C0AD55168084AC1F3E8
:1028F0004041921E515C054A5043B0FBF1F07047D5
:1029000004494843704700000010024000127A005A
:102910000A5D000800093D002DE9F84F040070D061
:102920002078C04DC00749D06868C0F381000128F5
:1029300007D06868C0F38100022809D16868C00325
:1029400006D52868800339D560680028E7D035E0CF
:102950006068B0F5803F0BD010B1B0F5A02F11D05A
:10296000286820F480302860286820F4802002E065
:10297000286840F480302860606890B1FFF752FE0C
:1029800006460AE0286840F480202860F0E700BF8F
:10299000FFF748FE801B642873D828688003F7D5AA
:1029A0000CE0FFF73FFE064605E000BFFFF73AFEEA
:1029B000801B6428F0D828688003F7D420789A4ECA
:1029C00080074FF001094FF0000839D5686810F012
:1029D0000C0F07D06868C0F38100022809D168682D
:1029E000C00306D42868800714D52069012808D1BF
:1029F00010E02069B0B1C6F80090FFF713FE07465B
:102A000005E00AE1FFF70EFEC01B0228C4D82868C3
:102A10008007F7D52868616920F0F80040EAC10016
:102A200028600DE0C6F80080FFF7FCFD074604E0D3
:102A3000FFF7F8FDC01B022823D828688007F7D4C9
:102A4000207800072CD57948A169D9B1C0F8009049
:102A5000FFF7E8FD074604E0FFF7E4FDC01B02288E
:102A60000FD8686A8007F7D571484FF4FA510068AB
:102A7000B0FBF1F0009000BF0098411E0091FAD227
:102A80000EE080E0C0F80080FFF7CCFD074604E0D0
:102A9000FFF7C8FDC01B022875D8686A8007F7D405
:102AA0002078400760D5E8690027C00008D4E869AD
:102AB00040F08050E861E869012700F08050009004
:102AC0005C480168C90513D40168834641F48071EC
:102AD0000160FFF7A7FD824606E000BFFFF7A2FDF9
:102AE000A0EB0A0064284ED8DBF80000C005F5D53D
:102AF000E06801280AD008B1052813D0286A20F020
:102B000001002862286A20F0040002E0286A40F0F0
:102B100001002862E06841F2883B98B1FFF782FD2E
:102B200082460BE0286A40F004002862EEE700BF0E
:102B3000FFF778FDA0EB0A0159455AD8286A8007AB
:102B4000F6D50CE0FFF76EFD824605E0FFF76AFD63
:102B5000A0EB0A0159454CD8286A8007F6D41FB16A
:102B6000E86920F08050E861E06988B36968C1F3E2
:102B70008101022944D00228C6F8608004D0FFF702
:102B800051FD044638E034E0FFF74CFD074604E011
:102B9000FFF748FDC01B02282BD828688001F7D416
:102BA000206AB0F5803F05D16868A16820F4003044
:102BB00008436860D4E908010843696821F4741186
:102BC00008436860C6F86090FFF72CFD044606E0F5
:102BD00025E000BFFFF726FD001B022809D8286862
:102BE0008001F7D51BE000BFFFF71CFD001B02288A
:102BF00002D90320BDE8F88F28688001F4D40EE0E4
:102C00000128F7D06868226A00F48031914204D12B
:102C1000616A00F47010884201D00120EAE70020C8
:102C2000E8E70000001002400000424280044242F7
:102C300024000020007000407047000038B50446B2
:102C4000006842688168C9434B0606D5CB0704D1AA
:102C5000D3435B0601D4216C05E08B0708D4D34332
:102C60001B0605D4616C01B02046BDE83040084722
:102C70008B0601D54B0646D4D3439B0643D44B0663
:102C80000AD494F85130032B3ED0636D43F0040313
:102C90006365C36883680093890609D4616D41F058
:102CA0000101616581680091016821F040010160C6
:102CB000606D002827D02068416821F0E001416064
:102CC000012084F85100900722D02068416821F04B
:102CD00003014160104DE06C40B14563E06CFFF7CB
:102CE00087F918B1606D40F040006065A06C002865
:102CF00009D04563A06CFFF77BF9002803D0606D15
:102D000040F04000606538BDC1688068009038BD03
:102D10002046FFF791FF38BD6949000870B50400EF
:102D200009D0606A002540B125616561A56294F80B
:102D3000510040B10CE0012070BD6068B0F5827FA9
:102D4000F4D0E561F2E784F85050204600F040F8F6
:102D5000022084F851002068016821F040010160E0
:102D6000A088218900F4827001F404410843A189FC
:102D700001F400610843217C01F002010843217D38
:102D800001F001010843218B01F400710843217F08
:102D900001F03801084394F8201001F08001084345
:102DA000218D01F40051084321680860A0690421C5
:102DB00001EA1040216848602068C16921F400617F
:102DC000C1616565012084F85100002070BD0000DC
:102DD00030B585B0002400940194029403940068F7
:102DE000184988422BD11848816941F4805181618A
:102DF000816901F480510491816941F0040181618C
:102E00008069124D00F004000490A0200090022080
:102E100001900320039069462846FFF709FB4020F4
:102E2000CDE90004694628460294FFF701FB002221
:102E300011462320FFF762FC2320FFF751FC05B069
:102E400030BD000000300140001002400008014089
:102E50002DE9FF4F81B01D46934604464FF001090E
:102E60000E9EFFF7DFFB074694F8510061680128CA
:102E700006D0B1F5827F3CD1A168C9BB042838D106
:102E80000298002871D0BBF1000FFBD0002DF9D0C3
:102E900094F8500001282CD04FF0010A84F850A07B
:102EA00094F85100042802D0052084F851004FF016
:102EB0000008C4F85480C4F838B0E587A5870299A3
:102EC0002163E586A586C4F84080C4F84480206864
:102ED0000168490603D4016841F040010160E068DF
:102EE000B0F5006F606808D0F0B3012D49D081E0E3
:102EF000FFE7022005B0BDE8F08F08B1012D39D100
:102F0000206B21680088C860206B801C2063E08EE5
:102F1000401EE0862EE02068816889070FD5E18E8B
:102F200069B1B9F1010F0AD1216B0988C160206B29
:102F3000801C2063E08E401EE0864FF00009206870
:102F40008168C9070CD0E18F51B1C068A16B0880BE
:102F5000A06B801CA063E08F401EE0874FF001094A
:102F6000FFF760FBC01B01E00BE067E0B04201D35C
:102F7000701C50D1E08E0028CDD1E08F0028CAD13E
:102F80003EE0206B216800780873206B401C2063B2
:102F9000E08E401EE0862DE02068816889070FD50D
:102FA000E18E69B1B9F1010F0AD1216B0978017382
:102FB000206B401C2063E08E401EE0864FF000092D
:102FC00020688168C9070CD0E18F51B1C068A16B3E
:102FD0000870A06B401CA063E08F401EE0874FF09C
:102FE0000109FFF71FFBC01BB04202D3701C01D0C8
:102FF00011E086B1E08E0028CED1E08F0028CBD141
:103000003A463146204601F0B7FC50B120206065B9
:1030100084F8508012E084F851A084F85080032096
:1030200068E7A06818B92068C1688068009084F8D3
:1030300051A084F85080606D0028F1D0012059E73C
:1030400010B5401EB0F1807F01D3012010BD4FF0BC
:10305000E02460610F21601702F0D3F80020A06126
:1030600007202061002010BD704710B5044600689D
:10307000406994F84110C0F3C010212911D180B1EA
:103080002068143050E8001F21F0800140E8001251
:10309000002AF5D1A06B08B1FEF786FF204601F0AB
:1030A000BAFD2068406994F84210C0F380102229CC
:1030B00011D180B12068143050E8001F21F0400188
:1030C00040E80012002AF5D1E06B08B1FEF76CFF72
:1030D000204601F079FD002010BD7047F8B5016869
:1030E00004460868CA684B6910F00F0F4FF00005DE
:1030F00059D003F0010602F49077374365D0C10739
:1031000005D0D10503D5616C41F00101616441072F
:1031100005D5D90703D0616C41F0020161648107D4
:1031200005D5D90703D0616C41F004016164010742
:1031300007D502F02001314303D0616C41F0080152
:103140006164616C00293AD0800604D5900602D5EE
:10315000204601F06EFD20684069616CC0F380106C
:10316000090700D460B3204601F02EFD20684069B5
:10317000400621D52068143050E8001F21F040019E
:1031800040E80012002AF5D1E06BA8B16D49416317
:10319000E06BFEF72DFF002811D0E06B416B01B012
:1031A000BDE8F040084783060FD593060DD52046AD
:1031B000BDE8F84001F03DBD2046FFF78EFFF8BDA9
:1031C0002046FFF78AFF6564F8BD266B2023012E99
:1031D0007CD1C6067AD5D60678D5086848680090AE
:1031E00048694FF00206400640D5E16B0868406828
:1031F0000004000CE8D0A28D8242E5D9E085886900
:1032000020282DD020680C3050E8001F21F4807158
:1032100040E80012002AF5D12068143050E8001F61
:1032200021F0010140E80012002AF5D12068143095
:1032300050E8001F21F0400140E80012002AF5D1BB
:1032400084F84230256320680C3050E8001F21F0DC
:10325000100140E80012002AF5D1E06BFEF7A4FE51
:103260006663A08DE18D401A81B22AE0A08DE18DC8
:10327000401A81B2E08D0028A6D00029A4D022688F
:103280000C3252E8000F20F4907042E80007002F43
:10329000F5D12068143050E8002F22F0010240E8F8
:1032A0000027002FF5D184F84230256320680C30C8
:1032B00050E8002F22F0100240E80023002BF5D147
:1032C00066632046FFF7D0FEF8BDFFE705062BD565
:1032D000150629D594F841002128F5D1A068B0F54C
:1032E000805F01D12069B0B1206A411C2162216850
:1032F00000784860E08C401E0004000CE084E3D1BC
:103300002068C16821F08001C1602068C16841F077
:103310004001C160D8E7206A0088C0F30800486017
:10332000206A801C2062E5E74006CDD55006CBD54B
:10333000CA68204622F04002CA6084F8413000F09A
:103340007AF9C1E7CB4A000870B5040004D094F8BC
:103350004100002510B106E0012070BD84F8405006
:10336000204600F023F8242084F841002068C1683A
:1033700021F40051C160204601F0BCFC20680169C5
:1033800021F4904101612068416921F02A014161E5
:103390002068C16841F40051C1606564202084F850
:1033A000410084F842006563002070BDF0B585B02F
:1033B0000024009401940294039406460368424852
:1033C000404D022103220715AB424ED1836943F4DD
:1033D00080438361836903F480430493836943F0EA
:1033E000040383618069394D00F0040004900802F1
:1033F000CDE90001039269462846FFF719F8CDE9A7
:103400000074694628460294FFF712F8314D30489F
:103410008027C5E90004C5E902472C616C61AC61F5
:103420002846EC61FEF7DAFE08B1FEF751FCF563C1
:103430006E62284D26484435143801C5102091C5C8
:10344000244845F8104944306C61AC61EC61FEF7EA
:10345000C5FE08B1FEF73CFCB56300220121252022
:103460006E62FFF74BF9252028E01B4DAB4227D1B8
:10347000C36943F48023C361C36903F480230493C5
:10348000836943F0080383618069CDE9007100F02E
:103490000800CDE90320114D69462846FEF7C8FF14
:1034A000E814CDE90004694628460294FEF7C0FFFF
:1034B000002202212720FFF721F92720FFF710F92A
:1034C00005B0F0BD00380140001002400008014086
:1034D000580002401C01002000480040000C014040
:1034E00090F84230202B01D00220704721B11AB150
:1034F0000023036301F05ABC0120704790F842306A
:10350000202B01D00220704721B11AB100230363A0
:1035100001F094BC0120704710B50446174884425E
:1035200011D1E08DA0F2FF104142154801800188C1
:1035300019B1144A00880021115440F2FF121149B8
:103540000E48FFF7CDFF1048844215D10F4801887F
:10355000090411D40188FF2901880AD8491C018077
:103560000B490088BDE81040014401220648FFF7DE
:10357000C5BF41F40041018010BD00008C00002057
:103580003000002048070020D40000202800002040
:103590004806002070472DE9F843044690F84100A2
:1035A000984616460D46202802D00220BDE8F88332
:1035B00085B17EB100206064212084F84100FFF7CE
:1035C00031F8A6848146E684A0682027B0F5805FA4
:1035D00002D003E00120E9E7206910B12E46002562
:1035E0000EE000260CE08021204601F042FCA8B944
:1035F000C6B116F8010B21684860E08C401EE084DB
:10360000E08C4B464FF00002CDF800800028EAD154
:103610004FF04001204601F02CFC40B184F841708D
:103620000320C3E735F8020BC0F30800E3E784F892
:1036300041700020BAE77047FEE70F281DD2DFE88F
:1036400000F01C080A0C1C0E10121C1416181C1C6E
:103650001A000120704702207047032070470420A1
:1036600070470520704706207047072070470820E4
:1036700070470920704700207047FF20704770B5E1
:103680000C46054600F0AAF820EA04012846BDE8E9
:10369000704000F0CBB800002DE9FF5F0027FE2549
:1036A000DDF838A016468B468146B8460C2805D072
:1036B000B9F10E0F05D11227102001E07727302035
:1036C000804647F08001022000F0B0F880210420FD
:1036D000FFF7D5FF0021012000F0A8F880210A2083
:1036E00000F098F8002405E01BF80410092000F011
:1036F0009DF8641CB442F7D34946012000F096F8C7
:10370000B9F10C0F03D180210D2000F083F8294E70
:10371000042000F063F80446761E04D0E00702D1CE
:1037200014EA080FF4D080210D20FFF7A8FF36B16E
:10373000062000F053F810F01B0F0CD0FE2580215E
:103740000C2000F067F80021012000F06FF804B0B1
:103750002846BDE8F09F00253C40E00700D0FF254B
:10376000B9F10C0FEBD10A2000F038F804460C2018
:1037700000F034F810F007004FEAC40104D0083913
:103780000844AAF8000001E0AAF8001024B1122CA5
:1037900004D91224002603E00124FBE7002605E0FB
:1037A000092000F01BF803998855761CA642F7D330
:1037B000C5E70000E093040010B501221021054880
:1037C000FEF72BFF0122BDE8104011460248FEF72C
:1037D00024BF000000080140000C014070B57E21AC
:1037E00001EA40000A4D40F08004002210212846E2
:1037F000FEF713FF204601F0A7F8002001F0A4F81F
:103800000446012210212846FEF707FF204670BD1E
:103810000008014070B50C460546FFF7DFFF40EA9F
:1038200004012846BDE87040AFF3008070B50E4635
:103830007E2101EA4004094D002210212846FEF7AE
:10384000ECFE204601F080F8304601F07DF8284675
:10385000BDE8704001221021FEF7DFBE00080140E4
:103860000D4808B5416941F00101416140690022FC
:1038700000F00100009011460E20FEF73FFF0E20E1
:10388000FEF72EFF002211460F20FEF737FFBDE89E
:1038900008400F20FEF724BF001002402DE9F0433E
:1038A00085B000263F4800960196029603968169EE
:1038B00041F010018161816901F010010491816979
:1038C00041F020018161816901F020010491816949
:1038D00041F004018161816901F004010491816971
:1038E00041F00801816180692F4F00F008004FF41A
:1038F00060440490012221463846FEF78EFEDFF830
:10390000AC80012248F213014046FEF786FEDFF844
:10391000A090012243F239014846FEF77EFE009452
:1039200001240325694638460194CDE90245FEF796
:103930007FFD1320CDE9000469464046CDE90245EC
:10394000FEF776FD41F20100CDE9000469464846E4
:10395000CDE90245FEF76CFD6003CDE900040220CD
:10396000CDE9020569464846FEF762FDE00303958E
:103970008DE8510069464046FEF75AFD3820039510
:103980008DE8510069464846FEF752FD4FF47070CD
:10399000CDE90006694602944846FEF749FD05B0A8
:1039A000BDE8F08300100240001001400008014013
:1039B000000C0140104810B50E4901604FF48271AF
:1039C000416000218160C1604FF400720161C0E973
:1039D00005121822C0E90721416281620A21C162F1
:1039E000FFF79CF9002803D0BDE81040FEF770B93E
:1039F00010BD0000003001403400002010B50E4C16
:103A00000C480C2120604FF4E13060600020A06081
:103A1000E060C4E90401A061E0612046FFF794FC86
:103A200008B1FEF755F92068C16841F01001C16086
:103A300010BD0000003801408C00002038B5174848
:103A4000C16941F48021C161C16901F48021009103
:103A5000816941F0080181618069124C00F0080021
:103A600000900F4820604FF4614060600020A0602B
:103A70000C21E060C4E90401A061E0612046FFF789
:103A800063FC08B1FEF724F920684068BDE83840BF
:103A9000012205490348FFF731BD00000010024034
:103AA00000480040D4000020480600202DE9F047DF
:103AB000DFF8489300244FF4004822464146484628
:103AC000FEF7ABFDCE4D012208212846FEF7A5FDED
:103AD000012210212846FEF7A0FD012220212846C0
:103AE000FEF79BFD40212846FEF792FDAE156F15AF
:103AF00078B180212846FEF78BFDD0B131462846AB
:103B0000FEF786FD28B339462846FEF781FD80B3CF
:103B10003FE00A20FEF7C8FB40212846FEF778FD6B
:103B200030BB012440212846FEF772FD0028F9D061
:103B30002FE00A20FEF7B8FB80212846FEF768FD3B
:103B4000B0B9022480212846FEF762FD0028F9D092
:103B50001FE00A20FEF7A8FB31462846FEF758FD75
:103B600030B9032431462846FEF752FD0028F9D02B
:103B70000FE0FFE70A20FEF797FB39462846FEF7DD
:103B800047FD30B9042439462846FEF741FD002898
:103B9000F9D0012241464846FEF73FFD00220821A8
:103BA0002846FEF73AFD40212846FEF731FD78B160
:103BB00080212846FEF72CFDD0B131462846FEF77D
:103BC00027FD28B339462846FEF722FD80B33FE0A3
:103BD0000A20FEF769FB40212846FEF719FD30BB9D
:103BE000052440212846FEF713FD0028F9D02FE0D8
:103BF0000A20FEF759FB80212846FEF709FDB0B9DF
:103C0000062480212846FEF703FD0028F9D01FE096
:103C10000A20FEF749FB31462846FEF7F9FC30B989
:103C2000072431462846FEF7F3FC0028F9D00FE0C0
:103C3000FFE70A20FEF738FB39462846FEF7E8FC86
:103C400030B9082439462846FEF7E2FC0028F9D0AE
:103C5000012208212846FEF7E0FC00221021284618
:103C6000FEF7DBFC40212846FEF7D2FC78B180212C
:103C70002846FEF7CDFCD0B131462846FEF7C8FCF9
:103C800028B339462846FEF7C3FC80B33FE00A203C
:103C9000FEF70AFB40212846FEF7BAFC30BB092498
:103CA00040212846FEF7B4FC0028F9D02FE00A2076
:103CB000FEF7FAFA80212846FEF7AAFCB0B90A24DA
:103CC00080212846FEF7A4FC0028F9D01FE00A2036
:103CD000FEF7EAFA31462846FEF79AFC30B90B2483
:103CE00031462846FEF794FC0028F9D00FE0FFE7A4
:103CF0000A20FEF7D9FA39462846FEF789FC30B982
:103D00000C2439462846FEF783FC0028F9D001220E
:103D100010212846FEF781FC002220212846FEF7CC
:103D20007CFC40212846FEF773FC78B180212846B0
:103D3000FEF76EFCD0B131462846FEF769FC28B389
:103D400039462846FEF764FC80B33FE00A20FEF7C0
:103D5000ABFA40212846FEF75BFC30BB0D24402126
:103D60002846FEF755FC0028F9D02FE00A20FEF780
:103D70009BFA80212846FEF74BFCB0B90E24802127
:103D80002846FEF745FC0028F9D01FE00A20FEF780
:103D90008BFA31462846FEF73BFC30B90F243146FA
:103DA0002846FEF735FC0028F9D00FE0FFE70A208F
:103DB000FEF77AFA39462846FEF72AFC30B9102475
:103DC00039462846FEF724FC0028F9D00122414656
:103DD0004846FEF722FC012208212846FEF71DFC7A
:103DE000012210212846FEF718FC01222021284636
:103DF000FEF713FC2046BDE8F087000000080140F4
:103E0000000C0140FEE7FEE730B40021084B0A46F3
:103E10005FF0000003EBC004401CC0B26254802875
:103E2000F8D3491CC9B20829F2D330BC00F0A0B8BD
:103E3000C801002030B5CC0801F0070301259D40E2
:103E4000EBB2064D05EBC005C808285C0AB1184363
:103E500002E063EA0000C043285530BDC8010020DD
:103E600070B5424D4FF40044002221462846FEF72B
:103E7000D4FBC820FEF718FA012221462846FEF797
:103E8000CCFB0021AE2000F029F90021084600F00B
:103E900025F90021102000F021F90021402000F038
:103EA0001DF90021812000F019F90021CF2000F038
:103EB00015F90021A12000F011F90021C82000F01F
:103EC0000DF90021A62000F009F90021A82000F03A
:103ED00005F900213F2000F001F90021D32000F076
:103EE000FDF80021084600F0F9F80021D52000F087
:103EF000F5F80021802000F0F1F80021D92000F031
:103F0000EDF80021F12000F0E9F80021DA2000F0BE
:103F1000E5F80021122000F0E1F80021DB2000F09C
:103F2000DDF80021402000F0D9F80021202000F029
:103F3000D5F80021022000F0D1F800218D2000F0FA
:103F4000CDF80021142000F0C9F80021A42000F0D1
:103F5000C5F80021A62000F0C1F8FFF755FFBDE825
:103F600070400021AF2000F0B9B8000000100140FF
:103F700070B5114E002400BF04F1B000C0B20021A2
:103F800000F0ACF80021084600F0A8F8002110204D
:103F900000F0A4F85FF0000506EBC5000121005D0C
:103FA00000F09CF86D1CEDB2802DF5D3641CE4B2DA
:103FB000082CE1D370BD0000C80100202DE9FC4FA2
:103FC0001C460E4682468B460190082B0DD060079A
:103FD00000D0012000EBD40061084843C0B2814604
:103FE000203AD0B2009000204BE00620F7E7082CE2
:103FF00013D00C2C18D0102C1BD0182C44D10098A6
:10400000234900EBC00000BF01EB8001002711F83D
:104010000850E80712D00B9A13E000981D4900EBF6
:10402000400001EB4001F1E700981B4900EB400024
:10403000EAE71A49009801EB0011E7E70B9828B36B
:10404000002231465046FFF7F5FE761C7F1C6D08B6
:10405000FFB2F6B2082FDCD30AF1010000F0FF0A2C
:10406000082C0AD00199AAEB0100B0EB540F04D13F
:104070000BF108008A4600F0FF0B08F101005E46D4
:10408000C0B280464845B2D3BDE8FC8F0122D8E7D4
:10409000BE690008325D00085A5F0008CE63000860
:1040A0002DE9F8411E46154688460446079F0BE059
:1040B0003346414620460097FFF780FF082E0AD07E
:1040C00004EB5600C4B26D1C2A78A2F120005E28D1
:1040D000EED9BDE8F881A41DE4B2F4E72DE9F0477C
:1040E0001D4C054609B1012200E0002201212046B5
:1040F000FEF793FA00220221A0462046FEF78DFA31
:10410000164F00244FF480494FF4005600223146E8
:104110003846FEF782FA280601D5012200E0002287
:1041200049463846FEF779FA012231463846FEF70D
:1041300074FA6806641C050EE4B2082CE6D301226A
:10414000022144464046FEF768FA2046BDE8F047A3
:1041500001221146FEF761BA00080140001001403B
:1041600003211420FFF78BBA10B51420FFF736FB9C
:10417000800705D10321BDE810401420FFF74ABB9A
:1041800010BD70B50646082188B000240846FFF728
:1041900076FA00210D20FFF749FB80210E20FFF762
:1041A0006EFA93208DF8040020208DF8050006A8F3
:1041B00001AB0090022219460C20FFF76DFA0500B2
:1041C0000DD1002101A8425C7254425C491C54404C
:1041D000C9B20429F7D3405CA04200D0FE2580215B
:1041E0000E20FFF717FB08B0284670BD10B5FFF78B
:1041F000E3FA00F02FF8FFF7B3FFBDE81040FFF738
:10420000B3BF30B50C460546082187B00846FFF716
:1042100036FA07210D20FFF709FB03211420FFF7D1
:10422000F9FA06A801AB00908DF804500122194656
:104230000C20FFF731FA002809D1BDF81810102919
:1042400005D19DF8041021709DF80510617007B02C
:1042500030BD000010B5204C012211462046FEF76B
:10426000DCF90220FEF720F8002201212046FEF7AB
:10427000D4F90220FEF718F8012211462046FEF775
:10428000CCF90220FEF710F80F210120FFF7CEFA3B
:104290000220FEF709F83D211120FFF7C7FA1E2181
:1042A0002D20FFF7C3FA00212C20FFF7BFFA8D2144
:1042B0002A20FFF7BBFA3E212B20FFF7B7FA402157
:1042C0001520FFF7B3FAFFF74BFF0220FDF7ECFFD5
:1042D000BDE81040FFF748BF000C014070471CB517
:1042E00001A92620FFF78DFF18B96846FFF749FF9F
:1042F00008B100201CBD00989DF8031000BA20F002
:10430000FF0008431CBD00002DE9F04F00268FB0D0
:10431000B146ADF81C60052740F2DC5B4FF47A7AB9
:104320004FF00108002144460823ECA20846CDF8CE
:104330000080FFF7B5FE0823E8A21946002000948C
:10434000FFF7AEFE0823E5A2102100200094FFF73E
:10435000A7FE0823E1A2182100200094FFF7A0FE89
:10436000FFF706FE4FF4FA70FDF79EFF761C002162
:10437000F6B20823DEA208460094FFF791FE082358
:10438000DFA2194600200094FFF78AFE0823DFA26F
:10439000102100200094FFF783FE0823CFA21821EC
:1043A00000200094FFF77CFEFFF7E2FD55465046E3
:1043B000FDF77AFFFCF7DCFA28B1B6FBF7F007FB54
:1043C0001060A8B129E00120FCF7BBFA4FF0080308
:1043D000009408B1D0A22DE1D4A210210020FFF753
:1043E0005FFEFFF7C5FD5846FDF75EFF002671E052
:1043F0000823D3A2182100200094FFF751FEFFF7F5
:10440000B7FD2846FDF750FF0823B4A2182100206D
:104410000094FFF745FEFFF7ABFD6420FDF744FF76
:1044200080E70220FCF78DFA4FF00803009458B1A2
:10443000B9A218210020FFF733FEFFF799FD4FF4D2
:10444000FA60FDF731FF45E0C2A210210020FFF71E
:1044500027FEFFF78DFD5846FDF726FF0026642056
:10446000FDF722FF0823C0A2102100200094FFF7CF
:1044700017FE082399A2182100200094FFF710FED0
:10448000FFF776FD2846FDF70FFF07A8FCF7F0FAC7
:1044900000284FF00803009439D0B8A2CAE000BF4A
:1044A000B6FBF7F007FB1060A0B90823A4A21821FF
:1044B00000200094FFF7F4FDFFF75AFD2846FDF7B2
:1044C000F3FE082385A2182100200094FFF7E8FDE1
:1044D000FFF74EFD6420FDF7E7FE761CF6B20823D9
:1044E000ABA2102100200094FFF7DAFD08237BA285
:1044F000182100200094FFF7D3FDFFF739FD28466F
:10450000FDF7D2FEFCF734FA0028C9D189E7A5A24D
:1045100010210020FFF7C4FDFFF72AFD5846FDF7E4
:10452000C3FE6420FDF7C0FE0823A3A210210020D3
:104530000094FFF7B5FD082368A21821002000941D
:10454000FFF7AEFDFFF714FD2846FDF7ADFEFCF7C3
:10455000E5FA4FF00803009408B19CA26AE0A0A21B
:1045600010210020FFF79CFDFFF702FD5846FDF7E4
:104570009BFE6420FDF798FE08239EA210210020D8
:104580000094FFF78DFD082354A218210020009409
:10459000FFF786FDFFF7ECFCAA462846FDF784FEF0
:1045A00008A800250090ADF82090ADF8249009AB44
:1045B0004FF4967229460120FCF7C5FA09280AD063
:1045C00029460120FCF738FA28B96D1CADB2B5F5C3
:1045D000967FF5D300252A468BA101A8FBF716FE8E
:1045E000082301AA182100200094FFF759FDFFF7C6
:1045F000BFFC5046FDF758FE6420FDF755FE08232A
:1046000086A2102100200094FFF74AFD082333A260
:10461000182100200094FFF743FDFFF7A9FC504646
:10462000FDF742FE29460220FCF774FB68B108231F
:104630007FA2009418210020FFF732FDFFF798FCBD
:104640004FF4FA60FDF730FEE7E6082323A21021BD
:104650000020CDF80080FFF723FD08231FA21821BA
:104660000020CDF80080FFF71BFDFFF781FC002143
:10467000082374A20846CDF80080FFF711FD2A46F2
:1046800061A10AA8FBF7C2FD08230AAA1946002067
:10469000CDF80080FFF704FD08236FA21021002051
:1046A000CDF80080FFF7FCFC08230CA218210020A5
:1046B000CDF80080FFF7F4FCFFF75AFC40F6C41079
:1046C000FDF7F2FDFFF7A0FBFFF752FC01F0FAFA4D
:1046D000664981F800900FB0BDE8F08F20202020BF
:1046E000202020202020202020202020000000004A
:1046F000506C6163652066696E676572000000003A
:10470000746F2072656769737465720046697273AD
:1047100074207363616E000047656E206661696C8A
:10472000656421202020202020000000466972734B
:1047300074206F6B212020202020202020000000EA
:104740004E6F2066696E6765722120202020202030
:10475000200000005365636F6E64206F6B21202082
:1047600020202020200000004D61746368696E677E
:104770002E2E2E2020202020200000004E6F74209E
:1047800073616D6521202020202020202000000062
:10479000506C61636520616761696E202020202074
:1047A000200000004D617463686564212020202092
:1047B000202020202000000050726F636573736911
:1047C0006E672E2E2E202020200000004D6572677F
:1047D00065206661696C656421202020200000004E
:1047E0004D65726765642120202020202020202034
:1047F0002000000046696E64696E672049442E2ED1
:104800002E2020202000000049443A25642020204A
:1048100020202020202020202000000053746F72D0
:10482000696E672E2E2E20202020202020000000E0
:1048300053746F7265206661696C65642120202065
:1048400020000000526567697374657265642120F9
:1048500020202020200000005375636365737321BE
:104860002020202020202020200000000000002008
:10487000F8B5FDF7D7FE054642F2107701244FF454
:104880007A760DE0FFF72BFD38B1FDF7ADFA10B3E6
:10489000012824D0022826D013E06420FDF704FD6F
:1048A000FDF7C0FE401BB842ECD3082310A20094D1
:1048B00018210020FFF7F4FBFFF75AFB3046FDF705
:1048C000F3FCFFF7A1FAFFF753FB01F0FBF90B49EB
:1048D00000200870F8BD082309A20094E8E7082327
:1048E0000AA20094E4E708230AA20094E0E700008B
:1048F00054696D656F757421000000000000002090
:1049000052656769737465726564210046756C6CE5
:1049100021000000457869737473210000224FF470
:1049200000510148FDF779BE000C014001225103FE
:104930000148FDF772BE0000000C01400148FEF77F
:104940007DB900003400002001B582B00A2000903B
:10495000012301AA02A90348FEF77AFA9DF8040090
:104960000EBD00003400002010B5406A0021C18750
:10497000C186FEF761F910BDF8B515460E460B4627
:10498000009204460122022100F010F840B933469B
:10499000002280212046009500F008F8002804D06D
:1049A000606D40F0200060650320F8BD2DE9F843FC
:1049B0001E46914688460446089DFDF733FE401B7F
:1049C000351AFDF72FFE074625480068C0F3CB30A7
:1049D000684338E0701C37D0FDF724FEC01BA842A6
:1049E00003D215B1009860B32CE02068416821F033
:1049F000E00141606068B0F5827F0BD1A068B0F53E
:104A0000004F02D0B0F5806F04D12068016821F01A
:104A100040010160A06AB0F5005F09D1206801681B
:104A200021F4005101602068016841F400510160E7
:104A3000012084F85100002084F850000320BDE8D4
:104A4000F8830025401E00902068816838EA010044
:104A500004D000214945BDD10020F0E70121F9E74C
:104A6000240000207047FDF7E3BD30B58FB028214A
:104A70006846FBF74DFE14210AA8FBF749FE012109
:104A80000804CDE900100024029402250491CDE928
:104A900007504FF4E01009906846FDF73DFF08B15C
:104AA00072B6FEE70F20CDE90A054FF48060CDE92C
:104AB0000C4002210AA80E94FDF752FE002801D0F6
:104AC00072B6FEE70FB030BD704710B5406A0021E6
:104AD000C185C184FEF701FB10BD70B5446A206832
:104AE000406994F84110C0F3C0100025212904D179
:104AF00018B1E584204600F08EF82068406994F8EB
:104B00004210C0F38010222904D118B1E585204657
:104B100000F05AF8606C40F0100060642046FEF728
:104B2000DCFA70BD10B50146406A096809684FF0AB
:104B3000000289062ED4C28501680C3151E8003F7D
:104B400023F4807341E80034002CF5D1016814315E
:104B500051E8003F23F0010341E80034002CF5D177
:104B60000168143151E8003F23F0400341E800346C
:104B7000002CF5D1202180F84210016B012909D1C8
:104B800001680C3151E8003F23F0100341E8003484
:104B9000002CF5D14263016B012902D0FEF7BCFC69
:104BA00010BD818DFEF760FA10BD10B5406A01217D
:104BB0004163016B012902D0FEF7ECFC10BD818D31
:104BC0004908FEF751FA10BD01680C3151E8002F79
:104BD00022F4907241E80023002BF5D101681431D2
:104BE00051E8002F22F0010241E80023002BF5D10B
:104BF000016B012909D101680C3151E8002F22F025
:104C0000100241E80023002BF5D1202180F842104A
:104C100000210163704701680C3151E8002F22F038
:104C2000C00241E80023002BF5D1202180F841107B
:104C3000704708B590F84210222901D0022008BD23
:104C400082684FF480539A4201D1016921B1816A8F
:104C50009A421BD04AB10AE00268816A5268C2F3E4
:104C600008020A80816A891C08E0026972B1026840
:104C7000526802F07F020A70816A491C8162C18D0C
:104C8000491E0904090CC18503D01BE00268526863
:104C9000F1E70168CA6822F02002CA600168CA68A8
:104CA00022F48072CA6001684A6922F001024A61F6
:104CB000202180F8421000214163026B012A03D0B9
:104CC000FEF72AFC002008BD016301680C3151E8A1
:104CD000002F22F0100241E80023002BF5D10168DB
:104CE0000A68D20602D50A6849680091818DFEF7EC
:104CF000BBF9E7E770B5044600680169E26821F492
:104D00004051114301612169A0680843616908436A
:104D10002168CA6841F20C639A430243CA60206862
:104D20004169A26921F44071114341611E49206823
:104D3000884202D1FDF7BAFD01E0FDF7A7FD00EBC7
:104D4000C00101EB0012606864218000B2FBF0F347
:104D5000B3FBF1F36FF018067343B2FBF0F5B2FB4F
:104D6000F0F605EB8305322303EB0515B5FBF1F5F2
:104D7000B6FBF1F605F0F00505EB0615B2FBF0F613
:104D8000B2FBF0F0B0FBF1F06FF01802504306EB0D
:104D9000800003EB0010B0FBF1F0216800F00F0081
:104DA0002844886070BD00000038014038B5816239
:104DB00004468285002013466064222284F8422043
:104DC000E56B1B4AAA62E56B1A4AEA62E56B1A4A6E
:104DD0002A63E26B50630A462168E06B091DFDF708
:104DE0002BFA2068016840680090206948B120686B
:104DF0000C3050E8001F41F4807140E80012002A96
:104E0000F5D12068143050E8001F41F0010140E85E
:104E10000012002AF5D12068143050E8001F41F03C
:104E2000400140E80012002AF5D1002038BD000002
:104E3000254B0008AB4B0008DB4A000881628285E5
:104E4000C28500214164222180F84210016921B10C
:104E50000168CA6842F48072CA6001684A6942F017
:104E600001024A610068C16841F02001C160002070
:104E700070472DE9F843984617460D460446089EAC
:104E800024E0701C22D0FDF7CDFBA0EB0800B0425F
:104E90001AD8CEB12068C168490717D5802D15D022
:104EA000402D13D00168C94309070FD401680025BC
:104EB000406800902046FFF787FE0820606484F871
:104EC00040500120BDE8F8830320FBE7206800681C
:104ED00035EA000004D00020B842D2D00020F1E72B
:104EE0000120F9E738B504466846FCF7EBFF0120DE
:104EF00000216B46625C5D5C3032AA4201D000202A
:104F000038BD491CC9B20429F4D338BD38B50446AC
:104F10006846FCF7D7FF012000216B46625C5D5CB0
:104F20003032AA4201D0002038BD491CC9B2042940
:104F3000F4D338BD38B501240022835C8D5CAB42CC
:104F400001D000240FE0521CD2B2042AF5D3002174
:104F50006B46425C30325A54491CC9B20429F8D31A
:104F60001846FDF701F8204638BD000038B5012489
:104F70000021082312A208460094FFF791F80823A5
:104F800013A2194600200094FFF78AF8082313A201
:104F9000194630200094FFF783F8082311A210214E
:104FA00000200094FFF77CF8082313A218210020AA
:104FB0000094FFF775F8BDE83840FEF7D9BF000050
:104FC000436F6E6669726D204E65772050494E00C2
:104FD000436F6E6669726D3A200000005F5F5F5F2D
:104FE00000000000456E74657220342D64696769A5
:104FF000742050494E000000202020202020202036
:1050000020202020202020200000000038B501248E
:1050100008230CA200210A200094FFF741F808237E
:105020000AA2102100200094FFF73AF8082309A2F1
:10503000202100200094FFF733F8BDE83840FEF748
:1050400097BF000057656C636F6D65005F5F5F5FC2
:1050500000000000456E7465722050494E0000004B
:1050600038B501240021082312A208460094FFF756
:1050700017F8082312A2194600200094FFF710F831
:10508000082312A2194630200094FFF709F80823DC
:1050900010A2102100200094FFF702F8082312A2AA
:1050A000182100200094FEF7FBFFBDE83840FEF712
:1050B0005FBF0000536574204E65772050494E0055
:1050C0004E65772050494E3A200000005F5F5F5FD9
:1050D00000000000456E74657220342D64696769B4
:1050E000742050494E000000202020202020202045
:1050F00020202020202020200000000038B5124C65
:1051000020680168C9061AD501680025406800902A
:105110002046FDF7AAFFE06B0068406840F2FF12EE
:10512000A0F2FF10404280B2B0F5007F00D31046DD
:105130000649088006490D540348FEF7D1F9BDE839
:1051400038400148FDF7CABF8C0000203000002025
:10515000480700200148FDF7C1BF0000D40000202F
:10516000F8B5FDF75FFA054642F2107701244FF4D7
:105170007A760BE0FFF7B3F828B1FCF7AFFE00B387
:10518000012822D013E06420FDF78EF8FDF74AFADB
:10519000401BB842EED308230EA200941821002031
:1051A000FEF77EFFFEF7E4FE3046FDF77DF8FEF7E2
:1051B0002BFEFEF7DDFE00F085FD0949002008709A
:1051C000F8BD082307A20094E8E7082309A2009489
:1051D000E4E7000054696D656F75742100000000FC
:1051E00000000020556E72656769737465726564AE
:1051F000210000004E6F7420666F756E6421000000
:10520000FEE70907090E002804DB00F1E02080F822
:105210000014704700F00F0000F1E02080F8141D2A
:10522000704730380A2801D20120704700207047AB
:105230008EB00025FDF704FAFFF717FCFEF72EFBF2
:10524000FEF70EFBFEF7FAFBFEF7B4FBFEF7D6FB0C
:10525000FFF764FBFEF704FEFEF7C8FFFCF7F2FD64
:10526000FBF7D6FB012400210823F6A20846009490
:10527000FEF716FFFEF77CFEA01E0B900BA8FBF7B7
:105280008DFB06004FF0080300941BD0F2A2102102
:105290000020FEF705FF3246F3A102A8FAF7B6FF99
:1052A000082302AA182100200094FEF7F9FEFEF759
:1052B0005FFE4FF4FA60FCF7F7FFFEF7A5FDFCF781
:1052C00097F90FE0EBA210210020FEF7E9FEEDA117
:1052D0000B9AE2E76D1CEDB24FF47A70FCF7E4FF35
:1052E000052D03D2FCF70CF90028F3D0FBF7B6FF2D
:1052F000002820D041F28830FCF7D6FFFBF7A0FF52
:10530000FEF782FD0121E2A0FCF7E8FAA0B100213E
:10531000EBA0FCF7E3FA80B100F0D4FCF24D4FF0C3
:1053200002094FF0040A4FF0050B4FF03008002639
:10533000287818B1B4E0FEE7FEE7FEE7FEF7CFFFFE
:10534000070062D001A8FCF7A5FD0146002001AAD4
:1053500022E000BF52F82030BB421BD16E70FFF735
:10536000E5FA0823E1A2182100200094FEF798FE38
:10537000FEF7FEFD41F28830FCF796FFFFF7CEFA0C
:105380000823DDA2182100200094FEF789FEFEF715
:10539000EFFD3AE0401CC0B28842DBD368780823B6
:1053A000401C6870D7A2182100200094FEF778FEF8
:1053B000FEF7DEFD4FF47A70FCF776FF0823CEA2ED
:1053C000182100200094FEF76BFEFEF7D1FD6878EF
:1053D00003281AD3FBF7D8FC0823CCA218210020FD
:1053E0000094FEF75DFEFEF7C3FD41F28830FCF746
:1053F0005BFFFBF7C1FC0823BFA21821002000942B
:10540000FEF74EFEFEF7B4FD6E70FDF70BF9A968CE
:10541000411AB1F5FA7F43D3A860ADF80460ADF846
:10542000086002A901A8FBF791FC002877D00228A8
:1054300036D028790823401C2871B2A218210020F8
:105440000094FEF72DFEFEF793FD4FF47A70FCF703
:105450002BFF0823A8A2182100200094FEF720FEAD
:10546000FEF786FD287903281AD3FBF78DFC082365
:10547000A6A2182100200094FEF712FEFEF778FD88
:1054800041F28830FCF710FFFBF776FC08239AA264
:10549000182100200094FEF703FEFEF769FD2E712F
:1054A000FCF7E6FAFEF702FB00283FF441AF29784B
:1054B000A1B301297ED002297DD003297FF438AF22
:1054C000411E0E2978D8FEF7B8F869790429BFF48F
:1054D0002FAF854A082314325054303001968DF88E
:1054E000040008EBC100C0B201AA19460094FEF7FF
:1054F000D7FDFEF73DFD6879401CC0B268710428F5
:10550000DCD179491431081FFFF714FD00284FF052
:105510000803009475D07FA2A5E300E01BE02E7184
:10552000FFF704FA082371A2182100200094FEF767
:10553000B7FDFEF71DFD41F28830FCF7B5FEFFF721
:10554000EDF908236CA2182100200094FEF7A8FDB5
:10555000FEF70EFDA4E7102833D0082837D00D2819
:1055600045D00F2865D004286BD00C28A6D185F82B
:1055700006B02C706E71EE70EE60082367A2009486
:1055800000210846FEF78CFD082369A21946002079
:105590000094FEF785FD082368A2102100200094E6
:1055A000FEF77EFD082367A2102130200094FEF74D
:1055B00077FD02E00EE129E372E3082363A2009481
:1055C00035E02C706E71EE60FFF720FDB0E6AC7137
:1055D0002C706E71EE70EE600021082360A2084608
:1055E0000094FEF75DFD082361A200940AE085F8AF
:1055F00006902C706E71EE70EE6008235FA200942E
:10560000D4E02FE308210020FEF74AFD08234DA235
:10561000194630200094FEF743FD08234BA21021C9
:1056200000200094FEF73CFD08235AA200941821A4
:10563000A6E20320A8712C706E71EE70EE60082354
:10564000B2E0BCE0436865636B696E672041533626
:1056500030382E2E2E00000048616E647368616B36
:1056600065204661696C21004572726F723A20258F
:105670003032580048616E647368616B65204F4B2F
:1056800021000000416464723A202530385800003F
:10569000247379732F6455356A5667314C39622FFC
:1056A000746573742F7468696E672F70726F70659C
:1056B0007274792F706F73742F7265706C7900003B
:1056C000247379732F6455356A5667314C39622FCC
:1056D000746573742F7468696E672F70726F70656C
:1056E0007274792F73657400000000205375636332
:1056F000657373210000000020202020202020203E
:10570000000000004572726F72210000416C6172EE
:105710006D2100005361766564210000456E74655B
:10572000722050494E20746F2044656C657465008A
:1057300046696E6765727072696E740050494E3AC0
:10574000200000005F5F5F5F00000000456E746531
:105750007220342D64696769742050494E0000003E
:10576000456E746572204F6C642050494E000000F5
:105770004F6C642050494E3A20000000456E74651D
:10578000722050494E20746F2052656769737465AA
:105790007200000020202020202020202020202017
:1057A0002020202000000000FAA2009400210846DA
:1057B000FEF776FC0823AFF27C02009422E785F81E
:1057C00006A02C706E71EE70EE600823AFF25402EA
:1057D0000094D5E6411E0E297ED8FDF72EFF69798B
:1057E0000429BFF4F3AEF14A5054303001968DF8DD
:1057F0000400A879009430B108EBC1000823C0B2BE
:1058000001AA194604E0C806000E082301AA1021C7
:10581000FEF746FCFEF7ACFB6879401CC0B268712D
:1058200004287FF4D3AEA879012833D002287CD095
:10583000032876D0042875D00528DC4873D0FFF7FC
:1058400051FB002870D0FFF771F80823AFF2641203
:10585000182100200094FEF723FCFEF789FB41F29B
:105860008830FCF721FD0823AFF2741218210020C4
:105870000094FEF715FC0823CDA21021002000940F
:10588000FEF70EFCFEF774FBFFF748F82E70AE71C2
:10589000AE704DE5C548FFF739FB00287ED085F88E
:1058A00000902E616E71AE71FFF7DAFB40E50823C0
:1058B000AFF2B012182100200094FEF7F1FBFEF7C2
:1058C00057FB4FF47A70FCF7EFFC0823AFF23C1261
:1058D00018210020009400E03EE1FEF7E1FBFEF716
:1058E00047FB2E70AE71EE7033E10823AFF2EC127D
:1058F000182100200094FEF7D3FBFEF739FB4FF48C
:105900007A70FCF7D1FC0823AFF27812182100203E
:105910000094FEF7C5FBFEF72BFB6E71EE60C3E152
:1059200003E02BE05BE088E0D7E0A048FFF7EEFA69
:1059300000284DD085F800A0AE71002108239EA25A
:1059400008460094FEF7ACFB0823A0A219460020ED
:105950000094FEF7A5FB08239CA2102100200094D0
:10596000FEF79EFB082399A2182100200094FEF761
:1059700097FBFEF7FDFAFEF77BFFD9E48B48FFF7B4
:10598000C5FA58B185F800B0AE710021082395A280
:1059900008460094FEF784FB082300E018E08BA281
:1059A000194600200094FEF77BFB082387A21021F4
:1059B00000200094FEF774FB082384A21821002025
:1059C0000094FEF76DFBFEF7D3FAFFF7C9FBAFE4D7
:1059D000E878401CC0B2E870032886D367E77348B4
:1059E000FFF794FA002853D006202870AE71FEF716
:1059F0000BFAFEF7BDFA0823AFF2CC2200210846CD
:105A00000094FEF74DFB082371A219460020009474
:105A1000FEF746FB08236EA2102100200094FEF73B
:105A20003FFB08236AA2182100200094FEF738FBF0
:105A3000FEF79EFAFEF768FC7AE4FFF767FA38B3E0
:105A400007202870AE71FEF7DFF9FEF791FA00210A
:105A5000082369A208460094FEF722FB08235CA2F3
:105A6000194600200094FEF71BFB082358A21021C2
:105A700000200094FEF714FB082355A218210020F3
:105A80000094FEF70DFBFEF773FAFBF7C3F94FE442
:105A9000E878401CC0B2E87003289FD20823AFF218
:105AA0009C32182100200094FEF7FAFAFEF760FA03
:105AB0004FF47A70FCF7F8FB082345A21821002068
:105AC0000094FEF7EDFAFEF753FA6E71EE6059E0BE
:105AD000FEF7E6FAFEF74CFA2AE4A878401CC0B2BA
