:020000040800F2
:10000000D00C002099010008332D0008E3250008DA
:10001000312D0008B50B00083D3F0008000000002E
:1000200000000000000000000000000091390008FE
:10003000ED0B0008000000000932000893390008A9
:10004000B3010008B3010008B3010008B3010008C0
:10005000B3010008B3010008B3010008B3010008B0
:10006000B3010008B3010008B3010008B3010008A0
:10007000B3010008B3010008B3010008B301000890
:10008000B3010008B3010008B3010008B301000880
:10009000B3010008B3010008B3010008B301000870
:1000A000B3010008B3010008B3010008B301000860
:1000B000B3010008B3010008B3010008B301000850
:1000C000B3010008B3010008B30100086938000853
:1000D000B3010008B3010008B3010008913E000815
:1000E000B3010008B3010008B301000800F002F8F2
:1000F00000F042F80AA090E8000C82448344AAF180
:100100000107DA4501D100F037F8AFF2090EBAE87D
:100110000F0013F0010F18BFFB1A43F0010318473B
:10012000D4660000F4660000103A24BF78C878C195
:10013000FAD8520724BF30C830C144BF04680C60ED
:10014000704700000023002400250026103A28BF35
:1001500078C1FBD8520728BF30C148BF0B60704739
:10016000642900F08980782900F0C280002070475F
:100170001FB51FBD10B510BD00F09EFA1146FFF768
:10018000F7FF03F0F3FE00F0BCFA03B4FFF7F2FF51
:1001900003BC00F0BFFA0000094880470948004747
:1001A000FEE7FEE7FEE7FEE7FEE7FEE7FEE7FEE727
:1001B000FEE7FEE704480549054A064B7047000084
:1001C000F5390008ED000008D0060020D00C002012
:1001D000D0080020D0080020B2F120030AD5C2F1D7
:1001E000200320FA02F001FA03F321FA02F140EAB7
:1001F0000300704721FA03F04FF000017047000040
:100200000FB41CB5074B06AA7B44694600900598BD
:1002100000F003FA0020694600F012FA1CBC5DF8F9
:1002200014FB00003504000070B5044685690068C1
:10023000C10601D5302600E02026C00707D070BDDA
:10024000D4E9012130469047206A401C20626D1E8F
:10025000F6D570BD70B5044685690078C00707D132
:1002600070BDD4E9012120209047206A401C206203
:100270006D1EF6D570BD00002DE9F0410646002444
:1002800010687529314616A510D0AFF300800028FC
:1002900002DA404213A507E031688A0701D512A5AA
:1002A00002E0490704D511A5012401E0AFF3008065
:1002B00000210A2206F1240709E0B0FBF2FCB0FBA2
:1002C000F2F302FB1C00303078541846491C002819
:1002D000F3D123462A463046BDE8F04100F03FB94D
:1002E000000000002D0000002B0000002000000096
:1002F00070B504460D4621461068AFF30080218892
:10030000090502D50F4A7A4402E00E4A7A440E32B9
:10031000002104F1240305E000F00F060009965DBA
:100320005E54491C0028F7D120780023000704D52B
:10033000702D02D009B1022311322046BDE8704071
:1003400000F00DB9B06400002DE9F05F8946044665
:100350004FF0000ADFF824B1FB44C0F820A020468B
:10036000E168884700287DD0252806D0D4E90121FE
:100370009047206A401C2062F1E700255F46204636
:10038000E16888472028064607DB312E05D2B819D8
:1003900010F8200C08B10543F1E7A80701D525F0B6
:1003A0000405C4F81CA00027C4F818A02A2E09D000
:1003B000304603F0D4FD38B304EB8708303EC8F86C
:1003C000186019E059F8041B204604EB870291617C
:1003D000E1688847012F064618D1E069002820DA35
:1003E00025F020051DE0D8F8180000EB800006EB92
:1003F00040003038C8F818002046E16888470646B3
:1004000003F0ADFD0028EED1012F0AD02E2E08D129
:100410002046E16888477F1C0646022F45F02005EC
:10042000C4DBA069002803DA404245F00105A06161
:10043000E80701D025F01005A6B1A6F14100192862
:1004400002D8203645F400654A46314620462560EC
:100450004D46FFF785FE60B1012807D0ED1D25F060
:10046000070000E007E000F1080978E705F104095A
:1004700075E730467AE7206ABDE8F09F86640000A1
:10048000032A40F2308010F0030C00F0158011F8C0
:10049000013BBCF1020F624498BF11F801CB00F898
:1004A000013B38BF11F8013BA2F1040298BF00F8EC
:1004B00001CB38BF00F8013B11F0030300F0C58009
:1004C000083AC0F0088051F8043B083A51F804CBD0
:1004D000A0E80810F5E7121D5CBF51F8043B40F896
:1004E000043BAFF30080D20724BF11F8013B11F8A1
:1004F00001CB48BF11F8012B24BF00F8013B00F8E5
:1005000001CB48BF00F8012B70474FF0000200B547
:10051000134694469646203922BFA0E80C50A0E826
:100520000C50B1F12001BFF4F7AF090728BFA0E8D4
:100530000C5048BF0CC05DF804EB890028BF40F8A0
:10054000042B08BF704748BF20F8022B11F0804FE2
:1005500018BF00F8012B70477047704770472DE9AE
:10056000F0470D4699469246044600F1240801687A
:10057000880604D5E06921F01001216000E0012027
:10058000A84201DD471B00E00027A1697A1902EBB0
:100590000900081AA0612078C00602D42046FFF79F
:1005A00043FE002608E0D4E901211AF8060090472E
:1005B000206A401C761C20624E45F4DB2078C00681
:1005C0000AD52046FFF730FE06E0D4E901213020AD
:1005D0009047206A401C2062381EA7F10107F4DC16
:1005E00007E0D4E9012118F805009047206A401C73
:1005F0002062281EA5F10105F3DC2046FFF72AFE44
:100600002078000602D50220BDE8F0870120FBE734
:1006100001694A1C02610878704700B58FB0CDE9C6
:1006200001310021059105497944CDE903101146B6
:100630006846FFF789FE0FB000BD0000E5FFFFFF31
:100640000A6802F8010B0A60704710B5203AC0F042
:100650000B80B1E81850203AA0E81850B1E81850C3
:10066000A0E81850BFF4F5AF5FEA027C24BFB1E800
:100670001850A0E8185044BF18C918C0BDE8104071
:100680005FEA827C24BF51F8043B40F8043B08BF7A
:100690007047D20728BF31F8023B48BF11F8012B41
:1006A00028BF20F8023B48BF00F8012B704700002C
:1006B00000487047700600207546FFF7F9FFAE4608
:1006C00005006946534620F00700854618B020B55E
:1006D000FFF770FDBDE820404FF000064FF0000727
:1006E0004FF000084FF0000B21F00701AC46ACE8DA
:1006F000C009ACE8C009ACE8C009ACE8C0098D4647
:10070000704710B50446AFF300802046BDE81040A6
:10071000FFF73BBD01491820ABBEFEE726000200F3
:10072000704700B58BB0020A8DF824208DF82500A3
:10073000080A8DF826000AA88DF82710009001AB52
:10074000042209A90C2000F03BF938B9BDF82800B3
:100750000B2803D39DF80D000BB000BDFF20FBE775
:1007600000B58BB001AB8DF824000AA800900122DF
:1007700009A9022000F024F938B9BDF828000B2897
:1007800003D39DF80D000BB000BDFF20FBE700B5C3
:100790008BB009A80022009001AB1146012000F0A7
:1007A0000FF938B9BDF824000B2803D39DF80D00CC
:1007B0000BB000BDFF20FBE7F0B58BB00646002470
:1007C0004FF49675304600F055F9002820D02846A1
:1007D00000F000FE641CE4B2032CF3D3002401AF4C
:1007E000002202AB11464020009700F0E9F888B9DA
:1007F000BDF804000F280DD3DDF812009DF8151088
:1008000000BA20F0FF00084307493060486000202C
:100810000BB0F0BD284600F0DDFD641CE4B2022CF4
:10082000DED3FF20F4E700002800002010B502F01E
:100830009BF84FF47A7000F0CDFD642000F0CAFD03
:100840004FF4FA74204600F0C5FD2046BDE8104084
:1008500000F0C0BD00B58BB001AB8DF82400080AD4
:100860008DF825000AA88DF826100090032209A90A
:10087000072000F0A5F838B9BDF828000B2803D3ED
:100880009DF80D000BB000BDFF20FBE710B58AB04E
:10089000044609A80022009001AB1146032000F095
:1008A0008FF810B1FF200AB010BDBDF824000D284C
:1008B00002D39DF80D0010B19DF80D00F3E7BDF8CF
:1008C0000E0040BA20800020EDE700002DE9F0473F
:1008D0008946824600F03CFF154C002605462680DE
:1008E000DFF8508041F288371AE02088A8B12088CC
:1008F000092812D3B8F80700218840BA093081428C
:100900000BD322880B495046FFF7BAFD2188A9F87E
:10091000001026800020BDE8F087012000F05AFD7D
:1009200000F016FF401BB842DFD32680FF20F2E71D
:10093000280000207005002000B58BB009A8002217
:10094000009001AB1146052000F03AF838B9BDF827
:1009500024000B2803D39DF80D000BB000BDFF2031
:10096000FBE730B58DB01C46109D8DF80400080AD9
:100970008DF805008DF80610100A8DF807000BA8F9
:100980008DF80820009003AB052201A9042000F097
:1009900017F890B9BDF82C000F280ED39DF815005C
:1009A00038B9BDF8160040BA2080BDF8180040BA2A
:1009B00028809DF815000DB030BDFF20FBE700003A
:1009C000F0B5C1B0140002464FF0EF00469F8DF81D
:1009D00000001E4625484FF001038DF801304068A5
:1009E0006D464FEA106C8DF802C04FEA104C8DF83E
:1009F00003C04FEA102C8DF804C08DF8050004F1F7
:100A000003008DF806304FEA10238DF808008DF8AA
:100A100007308DF809204FF00A0006D005F10A00D2
:100A20002246FFF72DFD0A34A0B20022062104E081
:100A30006B5C491C1A4492B289B28142F8D3110A04
:100A40002954401C80B241F288332A54401C82B29F
:100A50006946074801F074FD36B12FB1394630467A
:100A6000FFF734FF41B0F0BD0020FBE72800002075
:100A7000880000202DE9FE43814600F069FE06460D
:100A8000EF20284C8DF8000001218DF801106068DE
:100A9000020E8DF80220020C8DF80320020A8DF858
:100AA00004208DF8050000258DF806108DF80750FC
:100AB0008DF80850258041F288373B460922694667
:100AC000194801F03DFDC82000F084FCDFF85C808F
:100AD00011E0208809280BD398F800104046EF2930
:100AE00006D14178012903D198F8060007280BD0D8
:100AF000012000F06FFC00F02BFE801BB842E8D311
:100B00002580FF20BDE8FE83D8F8020098F8051084
:100B100000BA20F0FF000843C9F80000606025809B
:100B20000020EFE72800002088000020700500204A
:100B300000B58BB001AB8DF82400080A8DF82500B4
:100B40000AA88DF826100090032209A90620FFF7B5
:100B500037FF38B9BDF828000B2803D39DF80D00E6
:100B60000BB000BDFF20FBE738B50C460546FFF78C
:100B70000EFE00280CD10120FFF7F2FD002807D15E
:100B80002B464FF49672002101200094FFF7E9FEF6
:100B900038BD000001221103014800F0D4BD00005F
:100BA000000C014000224FF48051014800F0CBBD01
:100BB000000C0140FEE7000008B5094900200823A9
:100BC000C8600861486148710120009005A219467B
:100BD000202002F0FBF9BDE8084002F05FB90000F8
:100BE00000000020202020200000000070470000AE
:100BF0002DE9F043002689B03546ADF80460ADF824
:100C000018604FF4FA784FF4FA694FF47A770124B8
:100C100000210823ABA20846009402F0D7F908236C
:100C2000A8A219460020009402F0D0F90823A5A23A
:100C300010210020009402F0C9F90823A1A2182174
:100C40000020009402F0C2F902F028F9404600F0BA
:100C5000C1FB761C0021F6B208239FA2084600942F
:100C600002F0B4F90823A0A219460020009402F073
:100C7000ADF908239FA210210020009402F0A6F9EC
:100C8000082390A218210020009402F09FF902F09E
:100C900005F9384600F09EFBFFF779FD38B10520D5
:100CA000B6FBF0F100FB116000284DD061E001209F
:100CB000FFF756FD4FF00803009450B190A21821A1
:100CC000002002F083F902F0E9F8484600F082FBC8
:100CD0004FE090A21021002002F078F902F0DEF837
:100CE00040F2DC56304600F075FB642000F072FBE9
:100CF00008238DA210210020009402F067F9082338
:100D000070A218210020009402F060F902F0C6F8E9
:100D1000384600F05FFB06A84FF49678009001ABD0
:100D2000424600210120FFF71CFE30B309284FF096
:100D30000803009454D081A21821002002F046F943
:100D400002F0ACF84846AEE0082381A2182100204A
:100D5000009402F03BF902F0A1F8384600F03AFBAB
:100D6000082358A218210020009402F02FF902F065
:100D700095F8642000F02EFB4AE7BDF8042079A125
:100D800002A8FFF73DFA082302AA102100200094D0
:100D900002F01CF902F082F8304600F01BFB6420E0
:100DA00000F018FB082374A210210020009402F028
:100DB0000DF9082343A218210020009402F006F93F
:100DC00002F06CF8384600F005FB0121BDF8040084
:100DD000FFF7A7FC4FF00803009418B16BA2ABE734
:100DE0006FA2A9E737A21021002002F0EFF8082334
:100DF00034A218210020009402F0E8F802F04EF826
:100E0000002108236BA20846009402F0DFF8BDF829
:100E100004206DA102A8FFF7F3F9082302AA1946DE
:100E20000020009402F0D2F808236CA210210020C8
:100E3000009402F0CBF8082322A21821002000948D
:100E400002F0C4F802F02AF8384600F0C3FA08238A
:100E500067A210210020009402F0B8F802F01EF8FA
:100E6000384600F0B7FAFFF792FCF0B90120FFF71F
:100E700077FCD0B908A80090ADF81C50ADF8205010
:100E800007AB424600210120FFF76BFD09284FF018
:100E90000803009414D03DA21021002002F096F81F
:100EA00001F0FCFF304600F095FA01F043FF01F03D
:100EB000F5FF03F043FD5348057009B0BDE8F0832A
:100EC00051A2E9E7202020202020202020202020DF
:100ED0002020202000000000506C616365206669BE
:100EE0006E67657200000000746F2064656C657445
:100EF000650000005363616E2066696E676572006D
:100F000047656E206661696C656421202020202081
:100F10002000000046696E676572207363616E6E23
:100F20006564212020000000536561726368696E6A
:100F3000672E2E2E20202020200000005365617295
:100F40006368206661696C656421202020000000D0
:100F50004E6F2066696E6765722120202020202058
:100F600020000000466F756E642049443A256420D5
:100F7000202020202020000044656C6574696E6785
:100F80002E2E2E20202020202000000044656C659D
:100F90007465206661696C65642120202000000072
:100FA0004E6F7420666F756E6421202020202020F3
:100FB0002000000044656C657465642120202020B9
:100FC000202020202000000049443A2564202020D1
:100FD0002020202020202020200000005375636363
:100FE0006573732120202020202020202000000075
:100FF000566572696679696E672E2E2E2020202034
:10100000200000000000002044656C6574652063CA
:101010006F6E6669726D65642100000072B6FEE74E
:1010200006490020C8610648016941F004010161D8
:10103000016941F04001016170470000D0000020CB
:1010400000200240064A0021D16106490A6942F0A7
:1010500002020A614861086940F040000861704777
:10106000D000002000200240044B0022DA61044A34
:10107000136943F00103136101807047D000002021
:101080000020024014480022C168CB06134904D551
:10109000CA6942F00202CA611022C3685B0705D523
:1010A000CB6943F00103CB6142F00402C369DB0763
:1010B00007D0CB6943F00403CB61C16921F0010182
:1010C000C161A2F58071013901D0C2607047C16968
:1010D00021F00101C161704700200240D0000020D2
:1010E00070B5054600F034FB0646114C09E0681C5B
:1010F00007D025B100F02CFB801BA84201D90320AA
:1011000070BDE068C007F2D1E068800601D52020FC
:10111000E060E068C00605D4E069C00702D1E0687D
:10112000400703D5FFF7AEFF012070BD002070BD62
:101130000020024030B58BB0040005D0684600F0B6
:101140004FF800216A460BE003200BB030BD00BF12
:1011500052F82130A34201D10220F6E7491CC9B25E
:101160008142F5D30A2801D30120EEE7054600F0BD
:10117000E1F90648224600EB85010023022000F039
:1011800099F900F08DF90020DFE7000000F4010874
:1011900010B5114C86B02068401C1AD100F0CAF975
:1011A000002000900120CDE9024004A9684600F02B
:1011B00023F930B94FF0303200232146022000F0ED
:1011C00079F90648029004A9684600F015F900F084
:1011D00067F906B010BD000000F0010800F4010836
:1011E00030B503460020094C014600BF04EB8102E4
:1011F000D2F80024551C03D043F82020401CC0B274
:10120000491CC9B20A29F1D330BD000000F0010821
:10121000044909680A0E02700A0C42700A0A8270B8
:10122000C170704700F00108F0B58FB0050005D01F
:101230006846FFF7D5FF00216C460DE002200FB095
:10124000F0BD00BF54F82120AA4203D10A2905D0DD
:10125000461E0CE0491CC9B28142F3D30120EEE7DF
:1012600004EB8100406844F82100491CC9B2B14236
:10127000F6DB00F05FF900200A900D4F0120CDE968
:101280000C700EA90AA800F0B7F800250AE000BF0C
:1012900054F8252007EB85010023022000F00AF90D
:1012A0006D1CEDB2B542F3DB00F0FAF80020C6E7A2
:1012B00000F4010830B585B0044600F03BF9002089
:1012C00000900B4D0120CDE9025004A9684600F0C2
:1012D00093F82068002300BA20F0FF02E078294646
:1012E0000243022000F0E6F800F0DAF805B030BD65
:1012F00000F0010810B590F821100022022905D055
:101300000421816380F82020012010BD01680B6852
:1013100023F00E030B6001680B6823F001030B60E0
:1013200090F84030C46B012101FA03F3636080F848
:10133000211080F82020104610BD000010B590F854
:1013400021100024022903D00421816301243DE0FF
:1013500001680A6822F00E020A6001680A6822F039
:1013600001020A601A4A0168914201D1012121E07B
:10137000174A1432914201D110211BE0144A28323D
:10138000914201D1891515E0114A3C32914201D1B7
:1013900089140FE00E4A5032914202D14FF480314D
:1013A00008E00B4A6432914202D14FF4801101E00F
:1013B0004FF08071064A083A5160012180F82110EF
:1013C000002180F82010416B01B18847204610BDF4
:1013D0000800024070B5044600F0BAF90546601CEA
:1013E00002D004480078044400F0B2F9401BA04247
:1013F000FAD370BD180000202DE9F04705462648B5
:101400000F460126017E01290FD001218146017678
:101410002868DFF888804CF25034022808D0A246B1
:101420002046FFF75DFEA8B131E00220BDE8F0875D
:101430002046FFF755FE08BB0120FFF7F1FD2046CF
:10144000FFF74EFED8F81010064621F00401C8F848
:1014500010101CE04FF0FF303860AC6811E02046FF
:10146000FFF7F0FD5046FFF73BFED8F810100600DE
:1014700021F00201C8F8101001D03C6007E004F52B
:101480008064D5E9020100EB8120A042E7D8002169
:1014900089F818103046C9E7D0000020002002402B
:1014A0000348016941F0800101610020704700009C
:1014B000002002402DE9F05F07461C4888460024C2
:1014C000017E15461E46012909D00121814601767B
:1014D0004CF2503A5046FFF703FE18B122E00220CA
:1014E000BDE8F09F012F02D0022F00D00427D34681
:1014F000DFF83CA0220128463146FEF76DFE81B29E
:1015000008EB4400FFF7B0FD5846FFF7E9FDDAF8B5
:10151000102022F00102CAF8102018B9641CE4B2AD
:10152000BC42E7D3002289F81820D9E7D000002078
:1015300000200240064900200A69120607D5054A24
:101540004A60054A4A600969090600D501207047CA
:101550000020024023016745AB89EFCD2DE9F84F0C
:10156000DFF8B8910024A9F1040B23460F2709F1F5
:10157000040AABF1040EC9E00125A5402A40AA42A5
:101580007DD1674ED1F804C0ACEB0608B44532D02B
:1015900014DCBCF1030F3AD009DCBCF1000F2AD0F7
:1015A000BCF1010F1CD0BCF1020F31D11DE0BCF128
:1015B000110F17D0BCF1120F2AD119E0B8F5881F0E
:1015C00019D006DCB8F5803F15D0B8F5801F1FD1C3
:1015D00011E0B8F5001F0ED0B8F5041F18D10AE0CD
:1015E000CB6815E0CB681B1D12E0CB6808330FE019
:1015F000CB680C330CE08B682BB1012B4FF0080348
:1016000003D0456104E0042302E0056100E000230B
:10161000FF2A01D8064601E000F104064FEA8405DE
:1016200001D9A5F12005D6F8008007FA05FC28EAC3
:101630000C0803FA05F548EA0508C6F800804D686D
:10164000ED0062D5374DAE6946F00106AE61AD6979
:1016500024F0030605F001050095334D06EB050C5B
:10166000DCF80850A607360F07FA06F825EA080541
:10167000DFF8B880404503D14FF0000817E044E0A0
:10168000DFF8AC80404502D14FF001080FE0DFF8F1
:10169000A480404502D14FF0020808E0DFF89880AE
:1016A000404502D14FF0030801E04FF0040808FA6A
:1016B00006F848EA0508CCF808804D68D9F80060BB
:1016C000ED024D4601D5164300E096432E604D686D
:1016D000DAF80060AD02554601D5164300E09643A6
:1016E0002E604D68DBF80060AD035D4601D5164302
:1016F00000E096432E604D68DEF80060ED0375460D
:1017000001D5164300E096432E60641C0D682A46FE
:10171000E5407FF431AFBDE8F88F000008040140D8
:1017200000001110001002400000014000080140BC
:10173000000C014000100140001401408068084086
:1017400000D0012070470AB1016170470904FBE72E
:101750000148806870470000180000200248816836
:10176000027811448160704718000020074810B5C6
:10177000016841F010010160032000F075F80F20AE
:1017800000F006F800F024F8002010BD0020024010
:1017900070B50D4D04464FF47A712878B1FBF0F026
:1017A0000A490968B1FBF0F000F0E0FC48B9102CE0
:1017B00007D200222146501E00F036F800206C604F
:1017C00070BD012070BD0000180000202400002022
:1017D0000C4808B5816941F001018161816901F01E
:1017E00001010091C16941F08051C161C06900F0FF
:1017F000805000900448416821F0E06141F00071A0
:10180000416008BD0010024000000140002809DBD3
:1018100000F01F02012191404009800000F1E0200A
:10182000C0F8001170470000F0B40E4B1B680C4666
:10183000C3F30223C3F10705042D00D90425191DA4
:10184000072901D2002300E0DB1E012606FA05F17C
:10185000491E214099409E40761E16403143F0BCFF
:1018600002F06DBB0CED00E0064900F007020868CD
:101870004FF6FF03184040EA0220034A1043086075
:10188000704700000CED00E00000FA052DE9F0477C
:101890000F46050061D0434E306800F00700B842A3
:1018A00009D2306820F0070038433060306800F01B
:1018B0000700B84251D128683B4C810712D5400738
:1018C00003D5606840F4E06060602878000703D5C5
:1018D000606840F4605060606068A96820F0F000C3
:1018E000084360602878C00728D06868012810D0B5
:1018F0002168022810D0890700292EDA616821F0BA
:10190000030101436160FFF723FF804641F28839FC
:101910000DE021688903EFE78901EDE7FFF718FF84
:10192000A0EB0801494502D90320BDE8F0876068B3
:10193000696800F00C00B0EB810FEFD1306800F067
:101940000700B8420BD9306820F0070038433060F8
:10195000306800F00700B84201D00120E5E72878A0
:10196000400705D56068E96820F4E06008436060DE
:101970002878000706D56068296920F4605040EA9D
:10198000C100606000F038F86168084AC1F30311D3
:10199000515CC8400649086006480068FFF7F8FE39
:1019A0000020C2E7002002400010024092490008D7
:1019B000240000201C0000200448054900684968F4
:1019C000044AC1F30221515CC84070472400002042
:1019D00000100240A249000804480549006849680F
:1019E000044AC1F3C221515CC84070472400002062
:1019F00000100240A24900080E4A51680E4801F04A
:101A00000C03042B11D0082B0FD10C48C1F38343D6
:101A1000C903C05C0AD55168084AC1F34041921E0F
:101A2000515C054A5043B0FBF1F07047044948430C
:101A3000704700000010024000127A00824900083E
:101A400000093D002DE9F84F040070D02078C04D0A
:101A5000C00749D06868C0F38100012807D06868D2
:101A6000C0F38100022809D16868C00306D5286840
:101A7000800339D560680028E7D035E06068B0F5AC
:101A8000803F0BD010B1B0F5A02F11D0286820F402
:101A900080302860286820F4802002E0286840F424
:101AA00080302860606890B1FFF752FE06460AE079
:101AB000286840F480202860F0E700BFFFF748FE68
:101AC000801B642873D828688003F7D50CE0FFF7E3
:101AD0003FFE064605E000BFFFF73AFE801B642884
:101AE000F0D828688003F7D420789A4E80074FF00A
:101AF00001094FF0000839D5686810F00C0F07D0C5
:101B00006868C0F38100022809D16868C00306D460
:101B10002868800714D52069012808D110E02069C1
:101B2000B0B1C6F80090FFF713FE074605E00AE1E2
:101B3000FFF70EFEC01B0228C4D828688007F7D51F
:101B40002868616920F0F80040EAC10028600DE0D3
:101B5000C6F80080FFF7FCFD074604E0FFF7F8FD3C
:101B6000C01B022823D828688007F7D420780007F4
:101B70002CD57948A169D9B1C0F80090FFF7E8FDEC
:101B8000074604E0FFF7E4FDC01B02280FD8686A8F
:101B90008007F7D571484FF4FA510068B0FBF1F0B7
:101BA000009000BF0098411E0091FAD20EE080E044
:101BB000C0F80080FFF7CCFD074604E0FFF7C8FD42
:101BC000C01B022875D8686A8007F7D420784007C0
:101BD00060D5E8690027C00008D4E86940F080506B
:101BE000E861E869012700F0805000905C480168D6
:101BF000C90513D40168834641F480710160FFF781
:101C0000A7FD824606E000BFFFF7A2FDA0EB0A0099
:101C100064284ED8DBF80000C005F5D5E06801283F
:101C20000AD008B1052813D0286A20F001002862E4
:101C3000286A20F0040002E0286A40F001002862CF
:101C4000E06841F2883B98B1FFF782FD82460BE0E5
:101C5000286A40F004002862EEE700BFFFF778FD35
:101C6000A0EB0A0159455AD8286A8007F6D50CE03E
:101C7000FFF76EFD824605E0FFF76AFDA0EB0A0163
:101C800059454CD8286A8007F6D41FB1E86920F07E
:101C90008050E861E06988B36968C1F38101022975
:101CA00044D00228C6F8608004D0FFF751FD0446F6
:101CB00038E034E0FFF74CFD074604E0FFF748FD4D
:101CC000C01B02282BD828688001F7D4206AB0F501
:101CD000803F05D16868A16820F40030084368603F
:101CE000D4E908010843696821F474110843686065
:101CF000C6F86090FFF72CFD044606E025E000BF23
:101D0000FFF726FD001B022809D828688001F7D5B7
:101D10001BE000BFFFF71CFD001B022802D90320B7
:101D2000BDE8F88F28688001F4D40EE00128F7D0D0
:101D30006868226A00F48031914204D1616A00F43B
:101D40007010884201D00120EAE70020E8E7000097
:101D50000010024000004242800442422400002061
:101D6000007000407047000038B5044600684268C3
:101D70008168C9434B0606D5CB0704D1D3435B0624
:101D800001D4216C05E08B0708D4D3431B0605D48E
:101D9000616C01B02046BDE8304008478B0601D594
:101DA0004B0646D4D3439B0643D44B060AD494F83F
:101DB0005130032B3ED0636D43F004036365C36869
:101DC00083680093890609D4616D41F00101616562
:101DD00081680091016821F040010160606D002878
:101DE00027D02068416821F0E0014160012084F89B
:101DF0005100900722D02068416821F00301416022
:101E0000104DE06C40B14563E06CFFF797FA18B1F4
:101E1000606D40F040006065A06C002809D045630B
:101E2000A06CFFF78BFA002803D0606D40F04000F3
:101E3000606538BDC1688068009038BD2046FFF7F6
:101E400091FF38BD9538000870B5040009D0606A6C
:101E5000002540B125616561A56294F8510040B14B
:101E60000CE0012070BD6068B0F5827FF4D0E561C0
:101E7000F2E784F85050204600F040F8022084F841
:101E800051002068016821F040010160A08821898B
:101E900000F4827001F404410843A18901F4006157
:101EA0000843217C01F002010843217D01F001017A
:101EB0000843218B01F400710843217F01F03801B0
:101EC000084394F8201001F080010843218D01F4AB
:101ED0000051084321680860A069042101EA10400C
:101EE000216848602068C16921F40061C1616565AD
:101EF000012084F85100002070BD000030B585B08D
:101F000000240094019402940394006818498842C4
:101F10002BD11848816941F480518161816901F4B4
:101F200080510491816941F0040181618069124D01
:101F300000F004000490A0200090022001900320F3
:101F4000039069462846FFF709FB4020CDE90004CD
:101F5000694628460294FFF701FB00221146232020
:101F6000FFF762FC2320FFF751FC05B030BD0000F5
:101F70000030014000100240000801402DE9FF4FF1
:101F800081B01D46934604464FF001090E9EFFF7AF
:101F9000DFFB074694F851006168012806D0B1F5CF
:101FA000827F3CD1A168C9BB042838D1029800289F
:101FB00071D0BBF1000FFBD0002DF9D094F8500088
:101FC00001282CD04FF0010A84F850A094F8510059
:101FD000042802D0052084F851004FF00008C4F80E
:101FE0005480C4F838B0E587A58702992163E58657
:101FF000A586C4F84080C4F844802068016849067A
:1020000003D4016841F040010160E068B0F5006F61
:10201000606808D0F0B3012D49D081E0FFE70220CD
:1020200005B0BDE8F08F08B1012D39D1206B2168D2
:102030000088C860206B801C2063E08E401EE08614
:102040002EE02068816889070FD5E18E69B1B9F16A
:10205000010F0AD1216B0988C160206B801C2063AD
:10206000E08E401EE0864FF0000920688168C907B5
:102070000CD0E18F51B1C068A16B0880A06B801CAF
:10208000A063E08F401EE0874FF00109FFF760FB7F
:10209000C01B01E00BE067E0B04201D3701C50D1DF
:1020A000E08E0028CDD1E08F0028CAD13EE0206B21
:1020B000216800780873206B401C2063E08E401E6E
:1020C000E0862DE02068816889070FD5E18E69B12F
:1020D000B9F1010F0AD1216B09780173206B401C03
:1020E0002063E08E401EE0864FF000092068816882
:1020F000C9070CD0E18F51B1C068A16B0870A06B0B
:10210000401CA063E08F401EE0874FF00109FFF7FD
:102110001FFBC01BB04202D3701C01D011E086B17E
:10212000E08E0028CED1E08F0028CBD13A46314650
:10213000204601F0B7FB50B12020606584F8508044
:1021400012E084F851A084F85080032068E7A0686A
:1021500018B92068C1688068009084F851A084F89C
:102160005080606D0028F1D0012059E710B5401E65
:10217000B0F1807F01D3012010BD4FF0E0246061F9
:102180000F21601701F0DBFE0020A0610720206115
:10219000002010BD70477047F8B501680446086814
:1021A000CA684B6910F00F0F4FF0000559D003F0CB
:1021B000010602F49077374365D0C10705D0D105F9
:1021C00003D5616C41F001016164410705D5D90770
:1021D00003D0616C41F002016164810705D5D90724
:1021E00003D0616C41F004016164010707D502F07E
:1021F0002001314303D0616C41F008016164616CDE
:1022000000293AD0800604D5900602D5204601F078
:1022100021FC20684069616CC0F38010090700D47C
:1022200060B3204601F0EFFB20684069400621D5ED
:102230002068143050E8001F21F0400140E80012EF
:10224000002AF5D1E06BA8B16D494163E06BFFF75F
:1022500075F8002811D0E06B416B01B0BDE8F0408B
:10226000084783060FD593060DD52046BDE8F840F4
:1022700001F0F0BB2046FFF78EFFF8BD2046FFF7C8
:102280008AFF6564F8BD266B2023012E7CD1C6062B
:102290007AD5D60678D508684868009048694FF026
:1022A0000206400640D5E16B086840680004000C57
:1022B000E8D0A28D8242E5D9E085886920282DD01A
:1022C00020680C3050E8001F21F4807140E80012B3
:1022D000002AF5D12068143050E8001F21F00101D8
:1022E00040E80012002AF5D12068143050E8001FA1
:1022F00021F0400140E80012002AF5D184F8423074
:10230000256320680C3050E8001F21F0100140E8E0
:102310000012002AF5D1E06BFEF7ECFF6663A08D9A
:10232000E18D401A81B22AE0A08DE18D401A81B280
:10233000E08D0028A6D00029A4D022680C3252E8F3
:10234000000F20F4907042E80007002FF5D12068BC
:10235000143050E8002F22F0010240E80027002F3F
:10236000F5D184F84230256320680C3050E8002F06
:1023700022F0100240E80023002BF5D166632046CE
:10238000FFF708FFF8BDFFE705062BD5150629D591
:1023900094F841002128F5D1A068B0F5805F01D103
:1023A0002069B0B1206A411C216221680078486030
:1023B000E08C401E0004000CE084E3D12068C1687A
:1023C00021F08001C1602068C16841F04001C16016
:1023D000D8E7206A0088C0F308004860206A801CA3
:1023E0002062E5E74006CDD55006CBD5CA68204629
:1023F00022F04002CA6084F8413000F0F1F8C1E7F1
:10240000F739000870B5040004D094F841000025A5
:1024100010B106E0012070BD84F84050204600F065
:1024200023F8242084F841002068C16821F4005179
:10243000C160204601F070FB2068016921F49041E1
:1024400001612068416921F02A0141612068C16869
:1024500041F40051C1606564202084F8410084F893
:1024600042006563002070BD30B585B00024009443
:102470000194029403940068184988422CD11848AA
:10248000C16941F48021C161C16901F480210491D5
:10249000816941F0080181618069124D00F00800F6
:1024A00004904FF48060009002200190032003907C
:1024B00069462846FFF752F8E814CDE9000469465A
:1024C00028460294FFF74AF8002211462720FFF71A
:1024D000ABF92720FFF79AF905B030BD004800405E
:1024E00000100240000C014090F84230202B01D037
:1024F0000220704721B11AB10023036301F068BBC9
:10250000012070470B49884213D10B480188090408
:102510000FD40188FF29018808D8491C0180074988
:102520000088012201440348FFF7DEBF41F4004167
:1025300001807047880000202800002070050020DE
:102540002DE9F843044690F84100984616460D469A
:10255000202802D00220BDE8F88385B17EB100209A
:102560006064212084F84100FFF7F2F8A6848146D8
:10257000E684A0682027B0F5805F02D003E0012048
:10258000E9E7206910B12E4600250EE000260CE098
:102590008021204601F037FBA8B9C6B116F8010B1F
:1025A00021684860E08C401EE084E08C4B464FF090
:1025B0000002CDF800800028EAD14FF0400120460B
:1025C00001F021FB40B184F841700320C3E735F8E6
:1025D000020BC0F30800E3E784F841700020BAE77B
:1025E0007047FEE70F281DD2DFE800F01C080A0C38
:1025F0001C0E10121C1416181C1C1A000120704707
:102600000220704703207047042070470520704760
:102610000620704707207047082070470920704740
:1026200000207047FF20704770B50C46054600F04B
:10263000A9F820EA04012846BDE8704000F0CAB8B5
:102640002DE9FF5F0027FE25DDF838A016468B46F2
:102650008146B8460C2805D0B9F10E0F05D11227D6
:10266000102001E077273020804647F080010220CB
:1026700000F0B0F880210420FFF7D6FF00210120F0
:1026800000F0A8F880210A2000F098F8002405E066
:102690001BF80410092000F09DF8641CB442F7D325
:1026A0004946012000F096F8B9F10C0F03D18021C2
:1026B0000D2000F083F8294E042000F063F8044652
:1026C000761E04D0E00702D114EA080FF4D080216E
:1026D0000D20FFF7A9FF36B1062000F053F810F0E7
:1026E0001B0F0CD0FE2580210C2000F067F8002184
:1026F000012000F06FF804B02846BDE8F09F0025E7
:102700003C40E00700D0FF25B9F10C0FEBD10A20C7
:1027100000F038F804460C2000F034F810F0070000
:102720004FEAC40104D008390844AAF8000001E0C7
:10273000AAF8001024B1122C04D91224002603E0B8
:102740000124FBE7002605E0092000F01BF80399AF
:102750008855761CA642F7D3C5E70000E093040035
:1027600010B5012210210548FEF7EDFF0122BDE85A
:10277000104011460248FEF7E6BF00000008014085
:10278000000C014070B57E2101EA40000A4D40F086
:102790008004002210212846FEF7D5FF204601F0D4
:1027A00069F8002001F066F804460122102128464D
:1027B000FEF7C9FF204670BD0008014070B50C4609
:1027C0000546FFF7DFFF40EA04012846BDE87040F8
:1027D000AFF3008070B50E467E2101EA4004094D3A
:1027E000002210212846FEF7AEFF204601F042F8F5
:1027F000304601F03FF82846BDE870400122102124
:10280000FEF7A1BF000801402DE9F04385B0002686
:102810003F480096019602960396816941F01001A7
:102820008161816901F010010491816941F0200109
:102830008161816901F020010491816941F0040105
:102840008161816901F004010491816941F008010D
:10285000816180692F4F00F008004FF460440490BC
:10286000012221463846FEF76EFFDFF8AC800122D8
:1028700048F213014046FEF766FFDFF8A090012200
:1028800043F239014846FEF75EFF00940124032518
:10289000694638460194CDE90245FEF75FFE1320F4
:1028A000CDE9000469464046CDE90245FEF756FEF3
:1028B00041F20100CDE9000469464846CDE90245F0
:1028C000FEF74CFE6003CDE900040220CDE90205CD
:1028D00069464846FEF742FEE00303958DE8510045
:1028E00069464046FEF73AFE382003958DE85100D0
:1028F00069464846FEF732FE4FF47070CDE9000697
:10290000694602944846FEF729FE05B0BDE8F0830B
:10291000001002400010014000080140000C01407E
:10292000104810B50E4901604FF4827141600021DA
:102930008160C1604FF400720161C0E90512182284
:10294000C0E90721416281620A21C162FFF77CFA76
:10295000002803D0BDE81040FEF760BB10BD0000AA
:10296000003001403000002038B51748C16941F4FB
:102970008021C161C16901F480210091816941F028
:10298000080181618069124C00F0080000900F4836
:1029900020604FF4614060600020A0600C21E06086
:1029A000C4E90401A061E0612046FFF72BFD08B1F6
:1029B000FEF734FB20684068BDE838400122054935
:1029C0000348FFF791BD000000100240004800409E
:1029D00088000020700500202DE9F047DFF84893BB
:1029E00000244FF40048224641464846FEF7ABFE1D
:1029F000CE4D012208212846FEF7A5FE0122102116
:102A00002846FEF7A0FE012220212846FEF79BFE65
:102A100040212846FEF792FEAE156F1578B1802151
:102A20002846FEF78BFED0B131462846FEF786FEDB
:102A300028B339462846FEF781FE80B33FE00A20DE
:102A4000FEF7C8FC40212846FEF778FE30BB012483
:102A500040212846FEF772FE0028F9D02FE00A2018
:102A6000FEF7B8FC80212846FEF768FEB0B90224C4
:102A700080212846FEF762FE0028F9D01FE00A20D8
:102A8000FEF7A8FC31462846FEF758FE30B903246D
:102A900031462846FEF752FE0028F9D00FE0FFE746
:102AA0000A20FEF797FC39462846FEF747FE30B964
:102AB000042439462846FEF741FE0028F9D00122B9
:102AC00041464846FEF73FFE002208212846FEF711
:102AD0003AFE40212846FEF731FE78B18021284693
:102AE000FEF72CFED0B131462846FEF727FE28B36C
:102AF00039462846FEF722FE80B33FE00A20FEF763
:102B000069FC40212846FEF719FE30BB0524402110
:102B10002846FEF713FE0028F9D02FE00A20FEF722
:102B200059FC80212846FEF709FEB0B90624802111
:102B30002846FEF703FE0028F9D01FE00A20FEF722
:102B400049FC31462846FEF7F9FD30B907243146E5
:102B50002846FEF7F3FD0028F9D00FE0FFE70A2032
:102B6000FEF738FC39462846FEF7E8FD30B9082460
:102B700039462846FEF7E2FD0028F9D00122082157
:102B80002846FEF7E0FD002210212846FEF7DBFD77
:102B900040212846FEF7D2FD78B180212846FEF775
:102BA000CDFDD0B131462846FEF7C8FD28B33946E1
:102BB0002846FEF7C3FD80B33FE00A20FEF70AFC7B
:102BC00040212846FEF7BAFD30BB092440212846A3
:102BD000FEF7B4FD0028F9D02FE00A20FEF7FAFB3B
:102BE00080212846FEF7AAFDB0B90A248021284694
:102BF000FEF7A4FD0028F9D01FE00A20FEF7EAFB4B
:102C000031462846FEF79AFD30B90B243146284656
:102C1000FEF794FD0028F9D00FE0FFE70A20FEF749
:102C2000D9FB39462846FEF789FD30B90C243946D0
:102C30002846FEF783FD0028F9D0012210212846FE
:102C4000FEF781FD002220212846FEF77CFD402171
:102C50002846FEF773FD78B180212846FEF76EFD09
:102C6000D0B131462846FEF769FD28B339462846DB
:102C7000FEF764FD80B33FE00A20FEF7ABFB402186
:102C80002846FEF75BFD30BB0D2440212846FEF7A9
:102C900055FD0028F9D02FE00A20FEF79BFB80218C
:102CA0002846FEF74BFDB0B90E2480212846FEF7DA
:102CB00045FD0028F9D01FE00A20FEF78BFB3146C6
:102CC0002846FEF73BFD30B90F2431462846FEF773
:102CD00035FD0028F9D00FE0FFE70A20FEF77AFB68
:102CE00039462846FEF72AFD30B9102439462846D1
:102CF000FEF724FD0028F9D0012241464846FEF7A0
:102D000022FD012208212846FEF71DFD0122102187
:102D10002846FEF718FD012220212846FEF713FD64
:102D20002046BDE8F087000000080140000C01408B
:102D3000FEE7FEE730B40021084B0A465FF00000D2
:102D400003EBC004401CC0B262548028F8D3491C75
:102D5000C9B20829F2D330BC00F0A0B8F0000020BE
:102D600030B5CC0801F0070301259D40EBB2064DBC
:102D700005EBC005C808285C0AB1184302E063EA05
:102D80000000C043285530BDF000002070B5424D12
:102D90004FF40044002221462846FEF7D4FCC82008
:102DA000FEF718FB012221462846FEF7CCFC002145
:102DB000AE2000F029F90021084600F025F9002195
:102DC000102000F021F90021402000F01DF9002121
:102DD000812000F019F90021CF2000F015F9002121
:102DE000A12000F011F90021C82000F00DF9002108
:102DF000A62000F009F90021A82000F005F9002123
:102E00003F2000F001F90021D32000F0FDF800215F
:102E1000084600F0F9F80021D52000F0F5F800216F
:102E2000802000F0F1F80021D92000F0EDF8002119
:102E3000F12000F0E9F80021DA2000F0E5F80021A7
:102E4000122000F0E1F80021DB2000F0DDF8002185
:102E5000402000F0D9F80021202000F0D5F8002112
:102E6000022000F0D1F800218D2000F0CDF80021E3
:102E7000142000F0C9F80021A42000F0C5F80021BA
:102E8000A62000F0C1F8FFF755FFBDE87040002113
:102E9000AF2000F0B9B800000010014070B5114E2D
:102EA000002400BF04F1B000C0B2002100F0ACF873
:102EB0000021084600F0A8F80021102000F0A4F836
:102EC0005FF0000506EBC5000121005D00F09CF8F5
:102ED0006D1CEDB2802DF5D3641CE4B2082CE1D357
:102EE00070BD0000F00000202DE9FC4F1C460E468E
:102EF00082468B460190082B0DD0600700D0012040
:102F000000EBD40061084843C0B28146203AD0B2F9
:102F1000009000204BE00620F7E7082C13D00C2C83
:102F200018D0102C1BD0182C44D10098234900EB4A
:102F3000C00000BF01EB8001002711F80850E8072E
:102F400012D00B9A13E000981D4900EB400001EBF2
:102F50004001F1E700981B4900EB4000EAE71A49FD
:102F6000009801EB0011E7E70B9828B300223146E7
:102F70005046FFF7F5FE761C7F1C6D08FFB2F6B2D7
:102F8000082FDCD30AF1010000F0FF0A082C0AD058
:102F90000199AAEB0100B0EB540F04D10BF108002A
:102FA0008A4600F0FF0B08F101005E46C0B2804681
:102FB0004845B2D3BDE8FC8F0122D8E73656000859
:102FC000AA490008D24B0008465000082DE9F841F4
:102FD0001E46154688460446079F0BE03346414689
:102FE00020460097FFF780FF082E0AD004EB56001A
:102FF000C4B26D1C2A78A2F120005E28EED9BDE88B
:10300000F881A41DE4B2F4E72DE9F0471D4C054614
:1030100009B1012200E0002201212046FEF793FBC6
:1030200000220221A0462046FEF78DFB164F002409
:103030004FF480494FF40056002231463846FEF7DF
:1030400082FB280601D5012200E0002249463846CD
:10305000FEF779FB012231463846FEF774FB68061D
:10306000641C050EE4B2082CE6D30122022144467A
:103070004046FEF768FB2046BDE8F04701221146B6
:10308000FEF761BB0008014000100140032114203D
:10309000FFF7CABA10B51420FFF774FB800705D1FB
:1030A0000321BDE810401420FFF788BB10BD70B5A8
:1030B0000646082188B000240846FFF7B5FA00212B
:1030C0000D20FFF787FB80210E20FFF7ADFA93203C
:1030D0008DF8040020208DF8050006A801AB0090B3
:1030E000022219460C20FFF7ABFA05000DD1002192
:1030F00001A8425C7254425C491C5440C9B2042984
:10310000F7D3405CA04200D0FE2580210E20FFF7BF
:1031100055FB08B0284670BD10B5FFF721FB00F045
:103120002FF8FFF7B3FFBDE81040FFF7B3BF30B58E
:103130000C460546082187B00846FFF775FA0721B7
:103140000D20FFF747FB03211420FFF737FB06A8EC
:1031500001AB00908DF80450012219460C20FFF7B6
:103160006FFA002809D1BDF81810102905D19DF873
:10317000041021709DF80510617007B030BD00008B
:1031800010B5204C012211462046FEF7DCFA022041
:10319000FEF720F9002201212046FEF7D4FA022092
:1031A000FEF718F9012211462046FEF7CCFA02205C
:1031B000FEF710F90F210120FFF70CFB0220FEF7AC
:1031C00009F93D211120FFF705FB1E212D20FFF7F6
:1031D00001FB00212C20FFF7FDFA8D212A20FFF7AB
:1031E000F9FA3E212B20FFF7F5FA40211520FFF7D1
:1031F000F1FAFFF74BFF0220FEF7ECF8BDE81040B4
:10320000FFF748BF000C014070471CB501A92620FC
:10321000FFF78DFF18B96846FFF749FF08B1002096
:103220001CBD00989DF8031000BA20F0FF00084371
:103230001CBD00002DE9F04F00268FB0B146ADF85F
:103240001C60052740F2DC5B4FF47A7A4FF00108EE
:10325000002144460823ECA20846CDF80080FFF781
:10326000B5FE0823E8A2194600200094FFF7AEFE41
:103270000823E5A2102100200094FFF7A7FE0823F1
:10328000E1A2182100200094FFF7A0FEFFF706FE40
:103290004FF4FA70FEF79EF8761C0021F6B2082370
:1032A000DEA208460094FFF791FE0823DFA219462C
:1032B00000200094FFF78AFE0823DFA210210020DF
:1032C0000094FFF783FE0823CFA21821002000946A
:1032D000FFF77CFEFFF7E2FD55465046FEF77AF811
:1032E000FDF755FA28B1B6FBF7F007FB1060A8B15F
:1032F00029E00120FDF734FA4FF00803009408B1EB
:10330000D0A22DE1D4A210210020FFF75FFEFFF72D
:10331000C5FD5846FEF75EF8002671E00823D3A2EB
:10332000182100200094FFF751FEFFF7B7FD284653
:10333000FEF750F80823B4A2182100200094FFF7EC
:1033400045FEFFF7ABFD6420FEF744F880E702205E
:10335000FDF706FA4FF00803009458B1B9A21821FE
:103360000020FFF733FEFFF799FD4FF4FA60FEF7F8
:1033700031F845E0C2A210210020FFF727FEFFF739
:103380008DFD5846FEF726F800266420FEF722F849
:103390000823C0A2102100200094FFF717FE082385
:1033A00099A2182100200094FFF710FEFFF776FD88
:1033B0002846FEF70FF807A8FDF768FA00284FF037
:1033C0000803009439D0B8A2CAE000BFB6FBF7F0FA
:1033D00007FB1060A0B90823A4A2182100200094C4
:1033E000FFF7F4FDFFF75AFD2846FDF7F3FF08232A
:1033F00085A2182100200094FFF7E8FDFFF74EFD9D
:103400006420FDF7E7FF761CF6B20823ABA210217B
:1034100000200094FFF7DAFD08237BA2182100208A
:103420000094FFF7D3FDFFF739FD2846FDF7D2FFE3
:10343000FDF7ADF90028C9D189E7A5A21021002028
:10344000FFF7C4FDFFF72AFD5846FDF7C3FF6420D0
:10345000FDF7C0FF0823A3A2102100200094FFF76E
:10346000B5FD082368A2182100200094FFF7AEFDE7
:10347000FFF714FD2846FDF7ADFFFDF75DFA4FF0AD
:103480000803009408B19CA26AE0A0A210210020C9
:10349000FFF79CFDFFF702FD5846FDF79BFF6420F8
:1034A000FDF798FF08239EA2102100200094FFF74B
:1034B0008DFD082354A2182100200094FFF786FDFB
:1034C000FFF7ECFCAA462846FDF784FF08A8002574
:1034D0000090ADF82090ADF8249009AB4FF49672AF
:1034E00029460120FDF73DFA09280AD02946012086
:1034F000FDF7B0F928B96D1CADB2B5F5967FF5D3DF
:1035000000252A468BA101A8FCF77AFE082301AA10
:10351000182100200094FFF759FDFFF7BFFC50462B
:10352000FDF758FF6420FDF755FF082386A2102100
:1035300000200094FFF74AFD082333A21821002041
:103540000094FFF743FDFFF7A9FC5046FDF742FF4B
:1035500029460220FDF7ECFA68B108237FA2009407
:1035600018210020FFF732FDFFF798FC4FF4FA60B6
:10357000FDF730FFE7E6082323A210210020CDF855
:103580000080FFF723FD08231FA218210020CDF89B
:103590000080FFF71BFDFFF781FC0021082374A2C8
:1035A0000846CDF80080FFF711FD2A4661A10AA860
:1035B000FCF726FE08230AAA19460020CDF8008051
:1035C000FFF704FD08236FA210210020CDF8008032
:1035D000FFF7FCFC08230CA218210020CDF8008086
:1035E000FFF7F4FCFFF75AFC40F6C410FDF7F2FEBB
:1035F000FFF7A0FBFFF752FC01F0A0F9664981F844
:1036000000900FB0BDE8F08F202020202020202047
:10361000202020202020202000000000506C61632A
:10362000652066696E67657200000000746F207225
:103630006567697374657200466972737420736399
:10364000616E000047656E206661696C65642120CB
:1036500020202020200000004669727374206F6BC8
:103660002120202020202020200000004E6F2066F6
:10367000696E676572212020202020202000000034
:103680005365636F6E64206F6B2120202020202003
:10369000200000004D61746368696E672E2E2E2035
:1036A00020202020200000004E6F742073616D6583
:1036B000212020202020202020000000506C616369
:1036C0006520616761696E202020202020000000B5
:1036D0004D61746368656421202020202020202013
:1036E0002000000050726F63657373696E672E2E41
:1036F0002E202020200000004D6572676520666145
:10370000696C656421202020200000004D657267EF
:10371000656421202020202020202020200000007F
:1037200046696E64696E672049442E2E2E20202043
:103730002000000049443A25642020202020202039
:10374000202020202000000053746F72696E672EC5
:103750002E2E2020202020202000000053746F7285
:1037600065206661696C65642120202020000000CE
:10377000526567697374657265642120202020207A
:10378000200000005375636365737321202020209F
:10379000202020202000000000000020F8B5FDF7C8
:1037A000D7FF054642F2107701244FF47A760DE0F8
:1037B000FFF72BFD38B1FDF7BDFC10B3012824D075
:1037C000022826D013E06420FDF704FEFDF7C0FFB9
:1037D000401BB842ECD3082310A20094182100200B
:1037E000FFF7F4FBFFF75AFB3046FDF7F3FDFFF759
:1037F000A1FAFFF753FB01F0A1F80B490020087074
:10380000F8BD082309A20094E8E708230AA200945F
:10381000E4E708230AA20094E0E7000054696D651C
:103820006F75742100000000000000205265676978
:10383000737465726564210046756C6C210000002C
:10384000457869737473210000224FF400510148D8
:10385000FDF779BF000C0140012251030148FDF73B
:1038600072BF0000000C01400148FEF77DBA000065
:103870003000002001B582B00A200090012301AA87
:1038800002A90348FEF77AFB9DF804000EBD000074
:103890003000002010B5406A0021C187C186FEF7C4
:1038A00061FA10BDF8B515460E460B460092044667
:1038B0000122022100F010F840B933460022802195
:1038C0002046009500F008F8002804D0606D40F014
:1038D000200060650320F8BD2DE9F8431E4691469F
:1038E00088460446089DFDF733FF401B351AFDF757
:1038F0002FFF074625480068C0F3CB30684338E007
:10390000701C37D0FDF724FFC01BA84203D215B1AD
:10391000009860B32CE02068416821F0E00141602C
:103920006068B0F5827F0BD1A068B0F5004F02D07F
:10393000B0F5806F04D12068016821F0400101607A
:10394000A06AB0F5005F09D12068016821F4005138
:1039500001602068016841F400510160012084F891
:103960005100002084F850000320BDE8F8830025B2
:10397000401E00902068816838EA010004D00021D0
:103980004945BDD10020F0E70121F9E724000020DE
:103990007047FDF7E3BE30B58FB028216846FCF7CD
:1039A000B4FD14210AA8FCF7B0FD01210804CDE9FB
:1039B00000100024029402250491CDE907504FF431
:1039C000E01009906846FEF73DF808B172B6FEE7D0
:1039D0000F20CDE90A054FF48060CDE90C400221AB
:1039E0000AA80E94FDF752FF002801D072B6FEE738
:1039F0000FB030BD704710B5406A0021C185C18449
:103A0000FEF7C9FB10BD01680C3151E8002F22F40C
:103A1000907241E80023002BF5D10168143151E880
:103A2000002F22F0010241E80023002BF5D1016BA9
:103A3000012909D101680C3151E8002F22F0100250
:103A400041E80023002BF5D1202180F8421000210D
:103A50000163704708B590F84210222901D0022076
:103A600008BD82684FF480539A4201D1016921B1A7
:103A7000816A9A421BD04AB10AE00268816A5268A0
:103A8000C2F308020A80816A891C08E0026972B1E7
:103A90000268526802F07F020A70816A491C8162E2
:103AA000C18D491E0904090CC18503D01BE00268C1
:103AB0005268F1E70168CA6822F02002CA60016812
:103AC000CA6822F48072CA6001684A6922F0010261
:103AD0004A61202180F8421000214163026B012AD3
:103AE00003D0FEF70FFD002008BD016301680C3113
:103AF00051E8002F22F0100241E80023002BF5D1FD
:103B000001680A68D20602D50A6849680091818D69
:103B1000FEF740FBE7E7000070B504460068016966
:103B2000E26821F44051114301612169A068084312
:103B3000616908432168CA6841F20C639A430243F1
:103B4000CA6020684169A26921F440711143416152
:103B50001E492068884202D1FDF73EFF01E0FDF7D3
:103B60002BFF00EBC00101EB0012606864218000B4
:103B7000B2FBF0F3B3FBF1F36FF018067343B2FB43
:103B8000F0F5B2FBF0F605EB8305322303EB0515E8
:103B9000B5FBF1F5B6FBF1F605F0F00505EB061502
:103BA000B2FBF0F6B2FBF0F0B0FBF1F06FF01802F0
:103BB000504306EB800003EB0010B0FBF1F02168EE
:103BC00000F00F002844886070BD000000380140FC
:103BD00081628285C28500214164222180F84210E1
:103BE000016921B10168CA6842F48072CA60016843
:103BF0004A6942F001024A610068C16841F020014F
:103C0000C160002070472DE9F843984617460D46DD
:103C10000446089E24E0701C22D0FDF799FDA0EB1D
:103C20000800B0421AD8CEB12068C168490717D53C
:103C3000802D15D0402D13D00168C94309070FD43A
:103C400001680025406800902046FFF7DCFE082050
:103C5000606484F840500120BDE8F8830320FBE74E
:103C60002068006835EA000004D00020B842D2D0B5
:103C70000020F1E70120F9E738B504466846FDF772
:103C8000C7FA012000216B46625C5D5C3032AA42BB
:103C900001D0002038BD491CC9B20429F4D338BD75
:103CA00038B504466846FDF7B3FA012000216B469B
:103CB000625C5D5C3032AA4201D0002038BD491CF4
:103CC000C9B20429F4D338BD38B501240022835C7D
:103CD0008D5CAB4201D000240FE0521CD2B2042A0A
:103CE000F5D300216B46425C30325A54491CC9B2AC
:103CF0000429F8D31846FDF7DDFA204638BD000048
:103D000038B501240021082312A208460094FFF7C9
:103D10005DF9082313A2194600200094FFF756F915
:103D2000082313A2194630200094FFF74FF9082307
:103D300011A2102100200094FFF748F9082313A2D4
:103D4000182100200094FFF741F9BDE83840FFF743
:103D5000A5B80000436F6E6669726D204E657720CE
:103D600050494E00436F6E6669726D3A2000000044
:103D70005F5F5F5F00000000456E74657220342D48
:103D800064696769742050494E000000202020209B
:103D900020202020202020202020202000000000A3
:103DA00038B5012408230CA200210A200094FFF753
:103DB0000DF908230AA2102100200094FFF706F94C
:103DC000082309A2202100200094FFF7FFF8BDE896
:103DD0003840FFF763B8000057656C636F6D65008E
:103DE0005F5F5F5F00000000456E746572205049A0
:103DF0004E00000038B501240021082312A2084615
:103E00000094FFF7E3F8082312A21946002000945B
:103E1000FFF7DCF8082312A2194630200094FFF7C0
:103E2000D5F8082310A2102100200094FFF7CEF847
:103E3000082312A2182100200094FFF7C7F8BDE85C
:103E40003840FFF72BB80000536574204E6577208B
:103E500050494E004E65772050494E3A20000000F0
:103E60005F5F5F5F00000000456E74657220342D57
:103E700064696769742050494E00000020202020AA
:103E800020202020202020202020202000000000B2
:103E90000148FEF781B9000088000020F8B5FDF761
:103EA00057FC054642F2107701244FF47A760BE076
:103EB000FFF7ABF928B1FDF7B7F900B3012822D01D
:103EC00013E06420FDF786FAFDF742FC401BB84280
:103ED000EED308230EA2009418210020FFF776F8F5
:103EE000FEF7DCFF3046FDF775FAFEF723FFFEF71D
:103EF000D5FF00F023FD094900200870F8BD082314
:103F000007A20094E8E7082309A20094E4E7000070
:103F100054696D656F757421000000000000002079
:103F2000556E72656769737465726564210000007F
:103F30004E6F7420666F756E64210000FEE70907FE
:103F4000090E002804DB00F1E02080F8001470471F
:103F500000F00F0000F1E02080F8141D70473038A9
:103F60000A2801D201207047002070478EB0FDF76B
:103F7000FDFBFFF710FDFEF747FCFEF7F5FCFEF733
:103F8000CFFCFFF761FCFEF701FFFFF7C5F8FDF777
:103F9000FFF8FCF74BFC012400210823F7A2084698
:103FA0000094FFF713F8FEF779FFA01E0C900CA801
:103FB000FCF702FC05004FF00803009427D0F4A2A0
:103FC00010210020FFF702F82A46F5A101A8FCF70E
:103FD00017F9082301AA182100200094FEF7F6FF24
:103FE000FEF75CFF4FF4FA60FDF7F4F9FEF7A2FE6E
:103FF00000F0A4FCED4D4FF002094FF0040A4FF021
:10400000050B4FF030080026287840B1B8E0E8A250
:1040100010210020FEF7DAFFE9A10C9AD6E7FFF79E
:10402000F4F8070061D001A8FDF7DAF80146002096
:1040300001AB21E053F82020BA421BD16E70FFF78C
:104040000BFC0823E1A2182100200094FEF7BEFF1C
:10405000FEF724FF41F28830FDF7BCF9FFF7F4FBCF
:104060000823DDA2182100200094FEF7AFFFFEF721
:1040700015FF3AE0401CC0B28842DBD368780823C1
:10408000401C6870D7A2182100200094FEF79EFF04
:10409000FEF704FF4FF47A70FDF79CF90823CEA2D7
:1040A000182100200094FEF791FFFEF7F7FE6878D4
:1040B00003281AD3FCF776FD0823CCA21821002090
:1040C0000094FEF783FFFEF7E9FE41F28830FDF72A
:1040D00081F9FCF75FFD0823BFA21821002000949E
:1040E000FEF774FFFEF7DAFE6E70FDF731FBA9688C
:1040F000411AB1F5FA7F43D3A860ADF80460ADF87A
:10410000086002A901A8FCF72FFD002875D002283D
:1041100036D028790823401C2871B2A2182100202B
:104120000094FEF753FFFEF7B9FE4FF47A70FDF7E7
:1041300051F90823A8A2182100200094FEF746FF99
:10414000FEF7ACFE287903281AD3FCF72BFD0823D1
:10415000A6A2182100200094FEF738FFFEF79EFE6D
:1041600041F28830FDF736F9FCF714FD08239AA2D6
:10417000182100200094FEF729FFFEF78FFE2E7114
:10418000FEF72AFC00283FF43FAF297899B30129B4
:104190007ED002297DD003297FF436AF411E0E293F
:1041A00078D8FEF71FFA69790429BFF42DAF7F4A4A
:1041B000082314325054303001968DF8040008EB77
:1041C000C100C0B201AA19460094FEF7FFFEFEF737
:1041D00065FE6879401CC0B268710428DCD173495F
:1041E0001431081FFFF770FD00284FF008030094FA
:1041F00075D080A246E31CE0FFE72E71FFF72CFB91
:10420000082372A2182100200094FEF7DFFEFEF7BB
:1042100045FE41F28830FDF7DDF8FFF715FB082376
:104220006DA2182100200094FEF7D0FEFEF736FEA6
:10423000A6E7102833D0082837D00D2845D00F28FE
:1042400065D0042875D00C28A6D185F806B02C704E
:104250006E71EE70EE60082368A20094002108469B
:10426000FEF7B4FE08236AA2194600200094FEF768
:10427000ADFE082369A2102100200094FEF7A6FEDF
:10428000082368A2102130200094FEF79FFE02E070
:1042900059E0CAE248E3082364A2009435E02C7098
:1042A0006E71EE60FFF77CFDAEE6AC712C706E7146
:1042B000EE70EE600021082361A208460094FEF72C
:1042C00085FE082362A200940AE085F806902C700F
:1042D0006E71EE70EE60082360A2009420E0D0E2E0
:1042E00008210020FEF772FE08234EA21946302056
:1042F0000094FEF76BFE08234CA2102100200094CE
:10430000FEF764FE08235BA20094182184E20320D8
:10431000A8712C706E71EE70EE6008235AA20094A2
:1043200000210846FEF752FE08233CA20094D7E77E
:10433000FFE785F806A02C706E71EE70EE60082322
:1043400046A200948AE7411E0E2916D8FEF74AF9C4
:1043500069790429A8D2154A0C325054303001969C
:104360008DF80400A879009430B108EBC10008234F
:10437000C0B201AA194698E092E039E24368656349
:104380006B696E672041533630382E2E2E000000A8
:1043900048616E647368616B65204661696C2100D9
:1043A0004572726F723A20253032580000000020AA
:1043B00048616E647368616B65204F4B210000009B
:1043C000416464723A2025303858000053756363A5
:1043D0006573732100000000202020202020202071
:1043E000000000004572726F72210000416C617222
:1043F0006D2100005361766564210000456E74658F
:10440000722050494E20746F2044656C65746500BD
:1044100046696E6765727072696E740050494E3AF3
:10442000200000005F5F5F5F00000000456E746564
:104430007220342D64696769742050494E00000071
:10444000456E746572204F6C642050494E00000028
:104450004F6C642050494E3A20000000456E746550
:10446000722050494E20746F2052656769737465DD
:10447000720000002020202020202020202020204A
:104480002020202000000000456E746572205049F5
:104490004E20746F20556E72656769737465720083
:1044A000C806000E082301AA1021FEF78FFDFEF7B3
:1044B000F5FC6879401CC0B2687104287FF4F4AE42
:1044C000A879012833D002287AD0032874D0042890
:1044D00073D00528F94871D0FFF7CEFB00286ED0C5
:1044E000FFF7BAF90823AFF21C121821002000943C
:1044F000FEF76CFDFEF7D2FC41F28830FCF76AFF54
:104500000823AFF22C12182100200094FEF75EFD64
:104510000823EBA2102100200094FEF757FDFEF7C0
:10452000BDFCFFF791F92E70AE71AE706CE5E348FB
:10453000FFF7B6FB002875D085F800902E616E71EC
:10454000AE71FFF757FC5FE50823AFF26812182140
:1045500000200094FEF73AFDFEF7A0FC4FF47A70BD
:10456000FCF738FF0823AFF2F40218210020009472
:10457000FEF72CFDFEF792FC2E70AE71EE7034E16A
:104580000823AFF2A012182100200094FEF71EFDB0
:10459000FEF784FC4FF47A70FCF71CFF0823AFF29F
:1045A0002C12182100200094FEF710FDFEF776FC77
:1045B0006E71EE60BCE103E02BE05BE088E0D8E0E8
:1045C000BE48FFF76DFB00284DD085F800A0AE7106
:1045D00000210823BCA208460094FEF7F7FC08233C
:1045E000BEA2194600200094FEF7F0FC0823BBA2EF
:1045F000102100200094FEF7E9FC0823B7A218213F
:1046000000200094FEF7E2FCFEF748FCFFF7C6F836
:10461000FAE4AA48FFF744FB20B185F800B0AE7178
:10462000082300E01FE00021B2A208460094FEF734
:10463000CDFC0823A9A2194600200094FEF7C6FC71
:104640000823A6A2102100200094FEF7BFFC082337
:10465000A2A2182100200094FEF7B8FCFEF71EFC71
:10466000FFF71CFCD0E4E878401CC0B2E8700328D7
:1046700086D369E79148FFF713FB002853D0062043
:104680002870AE71FEF756FBFEF708FC0823AFF268
:104690008022002108460094FEF798FC082390A28F
:1046A000194600200094FEF791FC08238CA21021EB
:1046B00000200094FEF78AFC082389A2182100201C
:1046C0000094FEF783FCFEF7E9FBFEF7B3FD9BE4E5
:1046D000FFF7E6FA38B307202870AE71FEF72AFB21
:1046E000FEF7DCFB0021082387A208460094FEF7B2
:1046F0006DFC08237AA2194600200094FEF766FCA0
:10470000082377A2102100200094FEF75FFC082305
:1047100073A2182100200094FEF758FCFEF7BEFBA0
:10472000FCF766FA70E4E878401CC0B2E870032831
:104730009FD20823AFF25432182100200094FEF7D4
:1047400045FCFEF7ABFB4FF47A70FCF743FE082301
:1047500063A2182100200094FEF738FCFEF79EFBB0
:104760006E71EE605AE000BFFEF730FCFEF796FB7C
:104770004AE4A878401CC0B2A87003281ED3FCF7F6
:1047800011FA0823AFF29C32182100200094FEF7A2
:104790001DFCFEF783FB40F6B830FCF71BFEFCF770
:1047A000F9F9082350A2182100200094FEF70EFC0E
:1047B000FEF774FB2E70AE71AE7016E00823AFF2F8
:1047C000DC32182100200094FEF700FCFEF766FBA7
:1047D0004FF47A70FCF7FEFD082343A21821002055
:1047E0000094FEF7F3FBFEF759FBFCF7E5F90BE449
:1047F000102897D16E71EE60A879012840D0022868
:104800003ED003283CD0042808D0052806D0082331
:10481000AFF2F032102100940020A5E70823AFF298
:10482000FC321021009430209EE7411E0E2923D82F
:10483000FDF7D8FE697904299AD2204A0823121D6F
:104840005054303001968DF8040008EBC100C0B21E
:1048500001AA19460094FEF7B9FBFEF71FFB687921
:10486000401CC0B268710428C1D1032028706E7149
:104870006E61FFF745FA17E51028B8D16E712E6109
:1048800056E026A218210020FEF7A0FBFEF706FB4B
:104890004FF47A70FCF79EFD082311A21821002026
:1048A0000094FEF793FBFEF7F9FAFEF743FAFEF7E2
:1048B000F5FA00F043F82E70AE7196E70C00002078
:1048C00020202020202000006361726420746F206B
:1048D00072656769737465720000000020202020F3
:1048E00020202020202020202020202020202020C8
:1048F000000000006361726420746F20756E726541
:10490000676973746572000044656C657465204660
:10491000696E6765727072696E7400004D69736DBF
:1049200061746368210000001028A4D16E716E616B
:104930000823AFF210521946009474E738B50124E9
:10494000082308A200210A200094FEF73FFB082359
:1049500006A2202100200094FEF738FBBDE8384075
:10496000FEF79CBA57656C636F6D65005072657396
:1049700073204B4559313620666F722050494E00E6
:10498000010202030405060708090A0B0C0D0E0FAD
:1049900010100000000000000000010203040607E0
:1049A00008090000000001020304000000000000EC
:1049B0000000002F000000000700070000147F1413
:1049C0007F1400242A7F2A12006264081323003611
:1049D0004955225000000503000000001C22410040
:1049E000000041221C000014083E08140008083E84
:1049F0000808000000A0600000080808080800007F
:104A000060600000002010080402003E5149453E4D
:104A10000000427F4000004261514946002141456B
:104A20004B31001814127F10002745454539003CD2
:104A30004A494930000171090503003649494936A0
:104A400000064949291E000036360000000056368F
:104A50000000000814224100001414141414000073
:104A60004122140800020151090600324959513E01
:104A7000007C1211127C007F49494936003E4141B9
:104A80004122007F4141221C007F49494941007F6A
:104A900009090901003E4149497A007F0808087F59
:104AA0000000417F4100002040413F01007F081489
:104AB0002241007F40404040007F020C027F007F87
:104AC0000408107F003E4141413E007F090909066C
:104AD000003E4151215E007F09192946004649499F
:104AE00049310001017F0101003F4040403F001F6C
:104AF0002040201F003F4038403F006314081463EB
:104B000000070870080700615149454300007F41D4
:104B1000410000552A552A55000041417F000004FC
:104B20000201020400404040404000000102040035
:104B3000002054545478007F48444438003844449A
:104B4000442000384444487F003854545418000826
:104B50007E0901020018A4A4A47C007F0804047844
:104B60000000447D4000004080847D00007F1028CC
:104B700044000000417F4000007C04180478007C61
:104B80000804047800384444443800FC24242418E1
:104B90000018242418FC007C08040408004854541D
:104BA000542000043F444020003C4040207C001C36
:104BB0002040201C003C4030403C00442810284449
:104BC000001CA0A0A07C004464544C441414141491
:104BD00014140000000000000000000000000000AD
:104BE000FC000000000002000000000C020C0200AB
:104BF00000000000000090D0BCD0BC900003000377
:104C000000001824FE448C0003020702010018244F
:104C1000D8B04C80000300010201C038E438E00045
:104C2000010202010202080600000000000000006C
:104C30000000000000F8040200000001020400026D
:104C400004F800000004020100009060F860900089
:104C50000000010000002020FC20200000000100D6
:104C600000000000000000000806000000002020F6
:104C700020202000000000000000000000000000D4
:104C80000002000000000080601C0200040300001D
:104C90000000F8040404F800010202020100000808
:104CA000FC000000000203020000188444241800E5
:104CB00003020202020008042424D80001020202B6
:104CC000010040B088FC80000000000302003C248A
:104CD0002424C400010202020100F824242CC00094
:104CE0000102020201000C04E41C040000000300A5
:104CF0000000D8242424D800010202020100384414
:104D00004444F8000003020201000000100000000B
:104D1000000002000000000020000000000006006B
:104D20000000002050880402000000000102909062
:104D300090909000000000000000000204885020C5
:104D40000002010000001804C42418000000020042
:104D50000000F804E494F80001020202020000E0FE
:104D60009CF0800002030000030204FC2424D8000D
:104D7000020302020100F80404040C000102020212
:104D8000010004FC0404F80002030202010004FC18
:104D900024740C0002030202030004FC24740C00BF
:104DA000020302000000F0080444CC4000010202AB
:104DB000010004FC2020FC040203000003020404A0
:104DC000FC040400020203020200000404FC0404C8
:104DD00006040403000004FC24D00C0402030200B7
:104DE000030204FC04000000020302020203FC3C74
:104DF000C03CFC0003000300030004FC30C4FC04BE
:104E0000020302000300F8040404F8000102020295
:104E1000010004FC24241800020302000000F884AE
:104E20008404F80001020207050004FC24649800D1
:104E3000020302000302182424448C00030202022D
:104E400001000C04FC040C0000020302000004FC3E
:104E50000000FC04000102020100047C80E01C044C
:104E60000000030000001CE03CE01C000003000305
:104E70000000049C609C0400020300030200041C68
:104E8000E01C04000002030200000C84641C040007
:104E90000203020203000000FE02020000000704F9
:104EA0000400000E30C000000000000102000002FB
:104EB00002FE0000000404070000000402040000D9
:104EC00000000000000000000000000008080808C2
:104ED0000808000002000000000000000000004080
:104EE000A0A0C00000010202030204FC2020C000B8
:104EF00000030202010000C0202060000001020245
:104F0000020000C02024FC0000010202030200C0D5
:104F1000A0A0C0000001020202000020F824240426
:104F20000002030202000040A0A0602000070A0A5D
:104F30000A0404FC2020C000020302000302002037
:104F4000E4000000000203020000000020E4000072
:104F500008080807000004FC80E02020020302008B
:104F600003020404FC000000020203020200E0202D
:104F7000E020C00003000300030020E02020C00068
:104F800002030200030200C02020C0000001020250
:104F9000010020E02020C000080F0A02010000C02C
:104FA0002020E0000001020A0F0820E0402020003D
:104FB0000203020000000060A0A020000002020224
:104FC00003000020F820000000000102020020E0A1
:104FD0000020E00000010202030220E020806020A7
:104FE0000000030100006080E08060000003000317
:104FF000000020608060200002030003020020E027
:10500000208060200808070100000020A060200028
:10501000000203020200000020DE02000000000780
:105020000400000000FF00000000000F000000026C
:10503000DE20000000040700000002010204040258
:105040000000000000000000000000000000000060
:10505000000000000000000000F800000000000058
:1050600000333000000000100C06100C0600000099
:1050700000000000000040C07840C0784000043FBD
:1050800004043F040400007088FC0830000000188D
:1050900020FF211E0000F008F000E01800000021B1
:1050A0001C031E211E0000F00888700000001E2155
:1050B00023241927211010160E0000000000000004
:1050C000000000000000000000E0180402000000E2
:1050D00000071820400000020418E0000000004013
:1050E000201807000000404080F08040400002028D
:1050F000010F01020200000000F0000000000101A9
:10510000011F01010100000000000000000080B04C
:10511000700000000000000000000000000000011E
:105120000101010101010000000000000000003049
:1051300030000000000000000000806018040060E3
:1051400018060100000000E010080810E000000F41
:10515000102020100F00001010F8000000000020A8
:10516000203F2020000000700808088870000030F0
:105170002824222130000030088888483000001898
:10518000202020110E000000C02010F800000007B1
:105190000424243F240000F8088888080800001927
:1051A000212020110E0000E0108888180000000F58
:1051B000112020110E0000380808C838080000002F
:1051C000003F000000000070880808887000001C84
:1051D000222121221C0000E010080810E00000003D
:1051E000312222110F00000000C0C00000000000AA
:1051F00000303000000000000080000000000000CF
:1052000080600000000000008040201008000001C5
:105210000204081020004040404040404000040488
:105220000404040404000008102040800000002052
:10523000100804020100007048080808F00000008F
:10524000003036010000C030C828E810E000071820
:10525000272423140B000000C038E0000000203C8D
:1052600023020227382008F8888888700000203F31
:10527000202020110E00C030080808083800071848
:1052800020202010080008F808080810E000203F3F
:10529000202020100F0008F88888E8081000203F20
:1052A00020202320180008F88888E8081000203FF4
:1052B000200003000000C03008080838000007186C
:1052C0002020221E020008F808000008F808203FED
:1052D000210101213F20000808F8080800000020F3
:1052E000203F2020000000000808F8080800C080C7
:1052F00080807F00000008F888C028180800203F40
:1053000020012638200008F8080000000000203F97
:1053100020202020300008F8F800F8F80800203F8E
:10532000003F003F200008F830C00008F808203F88
:10533000200007183F00E01008080810E0000F10D8
:10534000202020100F0008F808080808F000203F6F
:10535000210101010000E01008080810E0000F180A
:10536000242438504F0008F8888888887000203F2F
:105370002000030C3020007088080808380000382E
:10538000202121221C00180808F808081800000035
:10539000203F2000000008F808000008F808001F5F
:1053A000202020201F000878880000C8380800004E
:1053B00007380E010000F80800F80008F800033C68
:1053C0000700073C03000818688080681808203030
:1053D0002C03032C30200838C800C838080000000F
:1053E000203F2000000010080808C83808002038B6
:1053F000262120201800000000FE0202020000000A
:10540000007F40404000000C30C000000000000061
:1054100000010638C00000020202FE000000004049
:1054200040407F000000000004020202040000006F
:10543000000000000000000000000000000080806C
:105440008080808080800002020400000000000054
:105450000000000000000000808080800000001933
:10546000242222223F2008F8008080000000003F14
:10547000112020110E000000008080800000000E2E
:10548000112020201100000000808088F800000E0C
:10549000112020103F200000808080800000001F2D
:1054A000222222221300008080F0888888180020A1
:1054B000203F202000000000808080808000006B62
:1054C00094949493600008F8008080800000203F4E
:1054D000210000203F20008098980000000000205C
:1054E000203F20200000000000809898000000C0AD
:1054F0008080807F000008F8000080808000203FCE
:1055000024022D302000000808F8000000000020D0
:10551000203F202000008080808080808000203F0D
:1055200020003F20003F8080008080800000203FDE
:10553000210000203F200000808080800000001FAC
:10554000202020201F00808000808000000080FF3D
:10555000A12020110E000000008080808000000E3D
:10556000112020A0FF80808080008080800020208B
:105570003F212000010000008080808080000033F7
:10558000242424241900008080E080800000000092
:10559000001F202000008080000000808000001F8D
:1055A000202020103F20808080000080808000012B
:1055B0000E300806010080800080008080800F305F
:1055C0000C030C300F0000808000808080000020E1
:1055D000312E0E312000808080000080808080810C
:1055E0008E7018060100008080808080800000217D
:1055F000302C2221300000000000807C02020000DC
:105600000000003F404000000000FF0000000000DC
:105610000000FF0000000002027C8000000000404B
:10562000403F0000000000060101020204040000E7
:10563000000000000000000000000000000000006A
:10564000000000000000000000000000000000005A
:10565000000000000000000000000000000000F05A
:10566000F0F0000000000000000000017F010000D9
:10567000000000000000001C1C1C000000000000D6
:105680008060301C8C60301C0C00000000000000AA
:10569000000000000000000000000000000000000A
:1056A0000000000000E00000000000E000000086B4
:1056B000E69F86868686E69F860000011F0101011F
:1056C00001011F010100000080C06020F820E0C03F
:1056D0000000000003070C18FF70E18100000000CB
:1056E000070F10107F100F070000806020608000FF
:1056F0000000E02000000F3020309F70DC371030B9
:10570000C0000000100E030007181018070000006A
:10571000C02020E0C0000000000080E01F38E887C3
:1057200003C43C040000070F1810100B070D1010E5
:10573000080000808C4C38000000000000000000D1
:105740000000000000000000000000000000000059
:1057500000000000000000000000000080E03008B1
:1057600004000000000000FEFF0100000000000037
:1057700000000000030F1820400000040830E08003
:105780000000000000000000000001FFFE0000001B
:105790000000004020180F0300000000000000007F
:1057A00000000000C00000000000004266663C18D7
:1057B000FF183C6666420000000000000300000085
:1057C0000000000000000000800000000000001049
:1057D00010101010FF10101010100000000000003A
:1057E00003000000000000000000000000000000B6
:1057F0000000000000000000000000000000008029
:105800008C4C380000000000000000000000000088
:1058100000000000000000101010101010101010F8
:105820001000000000000000000000000000000068
:105830000000000000000000000000000000000068
:1058400000000000000000001C1C1C000000000004
:1058500000000000000000000000E0380C00000024
:10586000000080701C03000000000060380E010082
:10587000000000000000000080C060202060C080A8
:10588000000000FEFF010000000001FFFE0000011B
:10589000070E181010180E0701000000808080C04D
:1058A000E000000000000000000000FFFF0000001A
:1058B000000000001010101F1F10101000000080CA
:1058C000402020202060C0800000000303008040B2
:1058D00020381F070000001C1A1918181818181F64
:1058E00000000080C020202060C080000000000375
:1058F00003001010182FE780000000070F10101091
:1059000010180F070000000000000000C0E0F000C9
:10591000000000C0B088868180FFFF80800000000A
:1059200000000010101F1F1010000000E0606060F9
:1059300060606060000000003F1008080818F0E098
:10594000000000070B101010101C0F0300000000D7
:1059500080C040202020E0C0000000FCFF21100893
:10596000080818F0E0000001070C18101010080FCC
:1059700003000000C0E06060606060E06000000064
:1059800003000000E0180700000000000000001FF6
:105990001F00000000000080C0602020202060C0A8
:1059A00080000087EF2C1818303068CF8300000784
:1059B0000F0810101010180F07000000C0C02020A2
:1059C0002020C0800000001F3F604040402010FFAA
:1059D000FE0000000C1C101010080F030000000057
:1059E0000000000000000000000000000000000EA9
:1059F0000E0E0000000000000000001C1C1C000037
:105A00000000000000000000000000000000000096
:105A10000000000C0C000000000000000000005816
:105A2000380000000000000000000000008040205E
:105A30001000000010284482010000000000000057
:105A40000000000001020408100000000000000037
:105A500000000000000000848484848484848484A2
:105A600084000000000000000000000000000000B2
:105A70001020408000000000000000000000000036
:105A800001824428100000001008040201000000F8
:105A9000000000C020201010101030E0C0000003F3
:105AA000030000F010080C070300000000001C1C9D
:105AB0001C0000000000000000C0406020202040CA
:105AC000C00000FCFF01F00E03C1FE03807F000157
:105AD000070E08111110110904020000000080E0F7
